:040000008CEF3FF052
:107F18000001D1EF3FF0C19AC198C186C184C182E6
:107F2800C190C08EC084C082C090C08AC098C086EC
:107F3800C29012000FD08B84000E026E320E016EBA
:107F4800B6EC3FF08B94000E026E320E016EB6EC6A
:107F58003FF000D004060428D8A401D001D0EBD704
:107F680000D0120002500110D8A401D001D002D0D4
:107F780013D012D0100E036E940EE82EFED7032EE7
:107F8800FCD700F00106D8A0020602500110D8A4C0
:107F980001D001D0EFD700D01200000E806E000E85
:107FA800816E000E826E000E836E000E846E110EBE
:107FB800926E0F0E936E930E946E000E956E000ED9
:107FC800966E8FEC3FF0056E020E046E05509EEC27
:107FD8003FF000D081B001D001D002D08B84FAD715
:107FE80081B201D001D0F6D78B94F4D7F3D7F2D76A
:087FF800F1D7FFD700EF00F004
:020000040020DA
:08000000FFFFFFFFFFFFFFFF00
:020000040030CA
:0E00000024CE381EFF8381FF0FC00FA00F40DB
:00000001FF
