:100000000A128A115F2E00308A000408840A8207CF
:1000100000345334773431343D344334573420344E
:10002000203420345334773432343D344334433431
:1000300057340A3453345734333420343D34203465
:100040005334743461347234743426345334743415
:060050006F34703400342F
:100C2000831203131F140800F000700883120313CB
:100C300088000800F1010314F10D00300A128A1136
:100C4000E5260A128A110800C030F5007508F10087
:100C500000300A128A11E5260A128A110800F000F3
:100C60007018332E372E8312031385153A2E8312F4
:100C7000031385110800F00070183F2E432E8312D5
:100C800003130515462E8312031305110800F00007
:100C9000492E831203130C1E4E2E4F2E492E502E1A
:100CA000700899000800F6007608F5007508F10054
:100CB00001300A128A11E5260A128A110800A001E1
:100CC000A101A201A301A401A501A601A701A801F8
:100CD000A90183010A128A115D2F831603131F17BE
:100CE000831203139F171F13831603139F151F15DA
:100CF0009F141F109F17831203131F100800F10188
:100D00008316031318158130990083120313981763
:100D10001816831603139816831203131A08F0008B
:100D20007008F1001A08F0007008F1000800A02E09
:100D30000730F3007D30F200F20B9C2EF30B9C2E5B
:100D40000130F0020030031CF103F102FF307106A4
:100D5000031DAC2EFF307006031DAF2EB02E982E53
:100D6000B12E080001300A128A112F260A128A11A8
:100D70006230F6006530F500F50BBC2EF60BBC2E8C
:100D8000C12E3830F5007508F10000300A128A11C2
:100D9000E5260A128A110630F5007508F1000030C8
:100DA0000A128A11E5260A128A110C30F50075081C
:100DB000F10000300A128A11E5260A128A110A127D
:100DC0008A111A260A128A110800F40074080A12FD
:100DD0008A113B260A128A1171080A128A111426F6
:100DE0000A128A1101300A128A112F260A128A1158
:100DF0000730F3007D30F200F20BFC2EF30BFC2EDB
:100E000000300A128A112F260A128A110D30F300BF
:100E1000FB30F200F20B0A2FF30B0A2F0F2F0030DA
:100E20000A128A113B260A128A1100300A128A110C
:100E300014260A128A110800F8004F2F780884003F
:100E40000A128A1103200A128A110A3A0319292F59
:100E50002A2F372F780884000A128A1103200A12D9
:100E60008A110D3A031D352F362F3D2F372F0A12C9
:100E70008A1124260A128A114A2F780884000A123D
:100E80008A1103200A128A110A128A1153260A12A1
:100E90008A114A2F0130F7007708F8074F2F78089A
:100EA00084000A128A1103200A128A110038031DD5
:100EB0005A2F5B2F1E2F5C2F0800FA018312031399
:100EC000850186018701880189011130831603138A
:100ED00085000F30860093308700880189010A124F
:100EE0008A116D260A128A110A128A117F260A12A5
:100EF0008A110A128A11B2260A128A110A128A115A
:100F000010260A128A1183120313851401300A1263
:100F10008A111C270A128A114D300A128A1147269B
:100F20000A128A1101300A128A1147260A128A11FE
:100F300053300A128A1147260A128A110A300A12FD
:100F40008A1147260A128A114F300A128A1147263F
:100F50000A128A1147300A128A1147260A128A1188
:100F6000B12F831203130619B62FB72FCD2FB92F28
:100F7000B92F061DBC2FBD2FB92FBE2F0A30F00090
:100F80000030F1000A128A1197260A128A117A0893
:100F9000013AF9007908FA00CD2F7A08031DD12F04
:100FA000F22F831203130618D62FD72FDE2F3C30D3
:100FB0000A128A1147260A128A11B12F8618E12FC8
:100FC000E22FE92F3E300A128A1147260A128A11AF
:100FD000B12F4F300A128A1147260A128A11B12FF7
:100FE000B12FB12F46300A128A1147260A128A11F0
:100FF000B12FB12FB12FFC2FFC2F0A128A1100281C
:02400E0032FF7F
:00000001FF
