:100000000A128A11E92B00308A000408840A820748
:10001000003443347934743472346F346E342034A1
:10002000503454344B343434303441340034443458
:1000300049345334543441344E34433445343A34DF
:08004000003463346D34003418
:10073200831203131F140800F000700883120313BE
:1007420088000800F1010314F10D00300A128A1129
:10075200D9240A128A110800C030F5007508F10088
:1007620000300A128A11D9240A128A110800F000F4
:100772007018BC2BC02B831203138515C32B831255
:10078200031385110800F0007018C82BCC2B8312BC
:1007920003130515CF2B8312031305110800F6006E
:1007A2007608F5007508F10001300A128A11D92481
:1007B2000A128A110800F60076088038F5007508DA
:1007C200F10000300A128A11D9240A128A11080093
:1007D200AF01B001B101B201B301B401B501B6017B
:1007E200B701B80183010A128A11592E8316031325
:1007F2001F17831203139F171F13831603139F15CB
:100802001F159F141F109F17831203131F10080038
:10081200122C0730F3007D30F200F20B0E2CF30B9A
:100822000E2C0130F0020030031CF103F102FF3004
:100832007106031D1E2CFF307006031D212C222C75
:100842000A2C232C0800F4003F2C831203130715F3
:100852005030F0000030F1000A128A1109240A1205
:100862008A118312031307116430F0000030F10083
:100872000A128A1109240A128A113F2C0130F40249
:100882007408FF3A031D462C472C262C482C0800DE
:10089200F401F5014C2C701C4F2C502C562C720874
:1008A200F4070318F50A7308F50701300310F20D77
:1008B200F30DFF3E031D572C01300310F10CF00C19
:1008C200FF3E031D5E2C71087004031D692C6A2C07
:1008D2004C2C6B2C7508F101F1077408F001F0073C
:1008E200722C0800F401F501831203139F121F12E8
:1008F2009F110730F3007D30F200F20B7E2CF30BD8
:100902007E2C831203131F15862C1F19892C8A2C07
:10091200862C8B2C1E08F200F3017208F300F20100
:100922007208F4007308F500831603131E08740797
:10093200F40075080318750AF5007508F101F1074E
:100942007408F001F007A52C080001300A128A1180
:10095200B8230A128A116230F6006530F500F50BF1
:10096200B02CF60BB02CB52C3830F5007508F10020
:1009720000300A128A11D9240A128A110630F500AF
:100982007508F10000300A128A11D9240A128A115C
:100992000C30F5007508F10000300A128A11D924D2
:1009A2000A128A110A128A11A3230A128A11080052
:1009B200F40074080A128A11C4230A128A117108F7
:1009C2000A128A119D230A128A1101300A128A110F
:1009D200B8230A128A110730F3007D30F200F20BBD
:1009E200F02CF30BF02C00300A128A11B8230A12F1
:1009F2008A110D30F300FB30F200F20BFE2CF30BE8
:100A0200FE2C032D00300A128A11C4230A128A1105
:100A120000300A128A119D230A128A110800F80076
:100A2200432D780884000A128A1103200A128A11BF
:100A32000A3A03191D2D1E2D2B2D780884000A1247
:100A42008A1103200A128A110D3A031D292D2A2D1B
:100A5200312D2B2D0A128A11AD230A128A113E2D35
:100A6200780884000A128A1103200A128A110A12D3
:100A72008A11D0230A128A113E2D0130F70077081D
:100A8200F807432D780884000A128A1103200A12FB
:100A92008A110038031D4E2D4F2D122D502D0800A6
:100AA200710870040319562D572D8D2DF50103146D
:100AB200F50D672D01300310F00DF10DFF3E031D02
:100AC2005C2D0130F4007408F507672DF11F6A2DC3
:100AD2006B2D5B2D6D2D6D2D71087302031D732D12
:100AE20070087202031C762D772D7E2D7008F2029B
:100AF2007108031CF303F3027E2D01300310F10C85
:100B0200F00CFF3E031D7F2D0130F502031D8A2DDF
:100B12008B2D6D2D8D2D8D2D7308F101F10772082E
:100B2200F001F007942D0800F501F6017108700438
:100B320003199C2D9D2DDB2DF7010314F70DAD2D0F
:100B420001300310F00DF10DFF3E031DA22D013007
:100B5200F4007408F707AD2DF11FB02DB12DA12DB2
:100B6200B32DB32D01300310F50DF60DFF3E031D1D
:100B7200B42D71087302031DC02D70087202031C8C
:100B8200C32DC42DCC2D7008F2027108031CF3038F
:100B9200F3027514CC2D01300310F10CF00CFF3E62
:100BA200031DCD2D0130F702031DD82DD92DB32DF4
:100BB200DB2DDB2D7608F101F1077508F001F00756
:100BC200E22D080083120313A101F71FE92DEA2D7C
:100BD200F32DF609F709F60A0319F70AA10103141E
:100BE200A10DF32DF91FF62DF72D012EF809F909A4
:100BF200F80A0319F90A0130FA007A08A106012E4F
:100C0200A201A301770876040319082E092E472EA4
:100C1200A0010314A00D192E01300310F60DF70DDB
:100C2200FF3E031D0E2E0130FA007A08A007192E8E
:100C3200F71F1C2E1D2E0D2E1F2E1F2E01300310EE
:100C4200A20DA30DFF3E031D202E77087902031D7E
:100C52002C2E76087802031C2F2E302E382E760882
:100C6200F8027708031CF903F9022214382E013026
:100C72000310F70CF60CFF3E031D392E0130A002C3
:100C8200031D442E452E1F2E472E472E2108031DDD
:100C92004B2E512EA209A309A20A0319A30A512E0F
:100CA2002308F701F7072208F601F607582E080075
:100CB20083120313AE018501860187018801890130
:100CC20011308316031385000F308600933087009E
:100CD200880189010A128A11F7230A128A110A125B
:100CE2008A11A6240A128A1102300A128A112424B5
:100CF2000A128A110A128A1199230A128A1183127C
:100D02000313851401300A128A1110250A128A115E
:100D12000A128A11AD230A128A110F300A128A119D
:100D220010250A128A114E300A128A11DC230A1285
:100D32008A1119300A128A1110250A128A11A12E5B
:100D42000A128A1173240A128A1170088312031379
:100D5200AB007108AC0002300310AC0CAB0CFF3ED0
:100D6200031DAD2E2B08AD002D08AE00AE09AE0A54
:100D72002430F6000030F7002E08AB00AC012B083F
:100D8200F0002C08F1000A30F2000030F3000A12E1
:100D92008A1149240A128A117008643EF800710807
:100DA2000318013E003EF9000A128A11E3250A12D5
:100DB2008A11760883120313AD002D08AE004B3062
:100DC2000A128A11DC230A128A11831203132E08D3
:100DD200AB00AC012B08F8002C08F90003300A1212
:100DE2008A1105270A128A113230F0000030F10010
:100DF2000A128A1109240A128A11A12EA12E012F88
:100E0200012F0A128A11002883120313AA0020302C
:100E120084002F30FA000408FB000A30FC007A0834
:100E2200840083130008FD00FA0A7B0884007D0811
:100E32008000FB0AFC0B102F1030F0002730F1006D
:100E42007908F301F3077808F201F2070A128A110E
:100E520095250A128A11710883120313A901A907A1
:100E62007008A801A8071030F0002730F1007908B7
:100E7200F301F3077808F201F2070A128A115125E9
:100E82000A128A11710883120313A701A7077008B7
:100E9200A601A607E830F0000330F1002708F301AD
:100EA200F3072608F201F2070A128A1151250A12E3
:100EB2008A11710883120313A501A5077008A40102
:100EC200A407E830F0000330F1002708F301F3072C
:100ED2002608F201F2070A128A1195250A128A11CE
:100EE200710883120313A701A7077008A601A607BA
:100EF2006430F0000030F1002508F301F307240804
:100F0200F201F2070A128A1151250A128A11710896
:100F120083120313A301A3077008A201A20764307E
:100F2200F0000030F1002508F301F3072408F20174
:100F3200F2070A128A1195250A128A117108831280
:100F42000313A501A5077008A401A4070A30F00045
:100F52000030F1002308F301F3072208F201F2073F
:100F62000A128A1151250A128A1171088312031377
:100F7200A101A1077008A001A0070A30F00000300B
:100F8200F1002308F301F3072208F201F2070A1223
:100F92008A1195250A128A11710883120313A3017B
:100FA200A3077008A201A20706302A02031CDA2F47
:100FB200DB2FE02F0530FA007A08AA00E02FAA08FA
:100FC200031DE42FE52FE72FFF2FFF2F2A08FA003A
:100FD2007A07FE3E203E840083130008303E0A1248
:100FE2008A11D0230A128A11013083120313AA0232
:0E0FF200AA08031DFD2FFE2FE72FFF2F08007A
:02400E0032FF7F
:00000001FF
