:060000000A128A11442FD0
:100E8000831203131F14080083010A128A11BC2F56
:100E9000FF3083160313920083120313921012146F
:100EA000950112159715171597121712950108003D
:100EB000831603131F17831203139F171F13831621
:100EC00003139F151F159F141F109F1783120313E1
:100ED0001F1008007008F20004300310F20DFF3EEE
:100EE000031D6D2F30307205F300831203131708B2
:100EF000CF39730497007108F3007008F2000230D4
:100F00000310F30CF20CFF3E031D802F72089500B6
:100F10000800F401F501831203139F121F129F11A1
:100F20000730F3007D30F200F20B942FF30B942F77
:100F3000831203131F159C2F1F199F2FA02F9C2F67
:100F4000A12F1E08F200F3017208F300F2017208EB
:100F5000F4007308F500831603131E087407F400E9
:100F600075080318750AF5007508F101F107740892
:100F7000F001F007BB2F0800F601F70183120313FD
:100F800085018601870188018901113083160313C9
:100F900085000F30860093308700880189010A128E
:100FA0008A1158270A128A110A128A1148270A122E
:100FB0008A110A128A1140270A128A118312031316
:100FC00006168612E32F0A128A1189270A128A113D
:100FD0007108F701F7077008F601F6077708F101C5
:100FE000F1077608F001F0070A128A116A270A123F
:100FF0008A11E32FE32FFC2FFC2F0A128A110028FD
:02400E0032FF7F
:00000001FF
