:100000000A128A119F2E00308A000408840A82078F
:1000100000345334573431343D344334573420346E
:1000200020345334573432343D344334433457341A
:0200300000349A
:100CB800831203131F140800F00070088312031333
:100CC80088000800F1010314F10D00300A128A119E
:100CD80021270A128A110800C030F5007508F100B2
:100CE80000300A128A1121270A128A110800F0001E
:100CF80070187F2E832E831203138515862E831278
:100D0800031385110800F00070188B2E8F2E8312A4
:100D180003130515922E8312031305110800F6001C
:100D28007608F5007508F10001300A128A112127AA
:100D38000A128A110800A001A101A201A301A401BD
:100D4800A501A601A701A801A90183010A128A1118
:100D5800992FFF3083160313920083120313921006
:100D68001214950112159715171597121712950158
:100D78000800831603131F17831203139F171F13EB
:100D8800831603139F151F159F141F109F17831297
:100D980003131F1008007008F20004300310F20D4E
:100DA800FF3E031DD22E30307205F3008312031369
:100DB8001708CF39730497007108F3007008F20020
:100DC80002300310F30CF20CFF3E031DE52E7208EF
:100DD8009500080001300A128A117B260A128A112E
:100DE8006230F6006530F500F50BF82EF60BF82E9C
:100DF800FD2E3830F5007508F10000300A128A110E
:100E080021270A128A110630F5007508F100003012
:100E18000A128A1121270A128A110C30F500750866
:100E2800F10000300A128A1121270A128A110A12C7
:100E38008A1166260A128A110800F40074080A1238
:100E48008A1187260A128A1171080A128A116026E5
:100E58000A128A1101300A128A117B260A128A1193
:100E68000730F3007D30F200F20B382FF30B382FE8
:100E780000300A128A117B260A128A110D30F300FB
:100E8800FB30F200F20B462FF30B462F4B2F0030AE
:100E98000A128A1187260A128A1100300A128A1148
:100EA80060260A128A110800F8008B2F780884003F
:100EB8000A128A1103200A128A110A3A0319652FA5
:100EC800662F732F780884000A128A1103200A12E9
:100ED8008A110D3A031D712F722F792F732F0A1261
:100EE8008A1170260A128A11862F780884000A123D
:100EF8008A1103200A128A110A128A1193260A12E9
:100F08008A11862F0130F7007708F8078B2F7808A9
:100F180084000A128A1103200A128A110038031D5C
:100F2800962F972F5A2F982F0800831203138501A5
:100F38008601870188018901113083160313850012
:100F48000F30860093308700880189010A128A11C0
:100F5800BD260A128A110A128A11AD260A128A11AE
:100F68000A128A11EE260A128A110A128A115C26BE
:100F78000A128A1183120313851401300A128A1186
:100F880058270A128A11C82F831203130618CD2F67
:100F9800CE2FDC2FBC30F0000230F1000A128A118B
:100FA800CF260A128A118312031306168612C82F37
:100FB8008618DF2FE02FEE2FBC30F0000230F10052
:100FC8000A128A11CF260A128A11831203130612F3
:100FD8008616C82F0030F0000030F1000A128A117E
:100FE800CF260A128A11C82FC82FC82FC82FFC2F46
:080FF800FC2F0A128A110028E7
:02400E0032FF7F
:00000001FF
