:0400000088EF3FF056
:107F0C00C28012000001CEEF3FF0BD9EBD9CCB683D
:107F1C00CA82CA90BD86BD84BD98BD9A000EBE6E45
:107F2C00CA841200C29AC298C296C294C28200D06D
:107F3C00C2B201D001D0FCD7C3CF01F0C4CF02F044
:107F4C001200C19AC198C186C184C182C190C08EF1
:107F5C00C084C082C090C08AC098C086C2901200F3
:107F6C0001C003F0033AF00E0316300E0316BD5099
:107F7C00CF0B0310BD6E01C003F002C004F0D8900B
:107F8C0004320332D890043203320350BE6E120016
:107F9C00000E066E000E056E000E806E000E816ED9
:107FAC00000E826E000E836E000E846E110E926EA9
:107FBC000F0E936E930E946E000E956E000E966ED1
:107FCC00A7EC3FF08BEC3FF086EC3FF08A888A9A66
:107FDC0000D098EC3FF001C005F002C006F005C0DF
:107FEC0001F006C002F0B6EC3FF0F3D7F2D7FFD7A2
:047FFC0000EF00F0A2
:020000040020DA
:08000000FFFFFFFFFFFFFFFF00
:020000040030CA
:0E00000024CE381EFF8381FF0FC00FA00F40DB
:00000001FF
