:100000000A128A11C52D00308A000408840A82076A
:100010000034533455344334433445345334533427
:1000200021340A3450346C346534613473346534AB
:10003000203465346E3474346534723421340034C1
:10004000503461347334733477346F3472346434BD
:100050002034363420346434693467346934743479
:100060000A343A3400344534523452344F34523422
:0200700000345A
:100A0400F0007008831203138800080001340234D4
:100A1400033404340534063464008001840A040673
:100A24000319003404060F2DF1010314F10D0030F5
:100A34000A128A1129260A128A110800C030F50008
:100A44007508F10000300A128A1129260A128A1147
:100A54000800F00070182F2D332D83120313851511
:100A6400362D8312031385110800F00070183B2DF6
:100A74003F2D831203130515422D83120313051111
:100A84000800F6007608F5007508F10001300A1236
:100A94008A1129260A128A110800831603131F17C4
:100AA400831203139F171F13831603139F151F1518
:100AB4009F141F109F17831203131F1008006A2D21
:100AC4000730F3007D30F200F20B662DF30B662D38
:100AD4000130F0020030031CF103F102FF30710613
:100AE400031D762DFF307006031D792D7A2D622D9E
:100AF4007B2D0800FF30F1007108F200812D0A12ED
:100B04008A11A1260A128A11F1007108F2007208F2
:100B1400FF3A03198E2D8F2D812D922D922D922D1A
:100B24000A128A11A1260A128A11FF3A031D9B2D6B
:100B34009C2D922D9D2D72089F2D0800F400BB2D35
:100B44008312031307155030F0000030F1000A122D
:100B54008A1161250A128A11831203130711643062
:100B6400F0000030F1000A128A1161250A128A117C
:100B7400BB2D0130F4027408FF3A031DC22DC32DAE
:100B8400A22DC42D080083132030840030300A12B3
:100B94008A110E250A128A110A128A1108250A12CC
:100BA4008A11B0000A128A1109250A128A11B100A9
:100BB4000A128A110A250A128A11B2000A128A112B
:100BC4000B250A128A11B3000A128A110C250A1283
:100BD4008A11B4000A128A110D250A128A11B5006D
:100BE40083010A128A11422F01300A128A112B251D
:100BF4000A128A116230F6006530F500F50B002EFA
:100C0400F60B002E052E3830F5007508F100003083
:100C14000A128A1129260A128A110630F50075086B
:100C2400F10000300A128A1129260A128A110C30A6
:100C3400F5007508F10000300A128A1129260A12FB
:100C44008A110A128A1116250A128A110800F40060
:100C540074080A128A1137250A128A1171080A12B5
:100C64008A1102250A128A1101300A128A112B25CF
:100C74000A128A110730F3007D30F200F20B402E85
:100C8400F30B402E00300A128A112B250A128A1106
:100C94000D30F300FB30F200F20B4E2EF30B4E2E10
:100CA400532E00300A128A1137250A128A11003095
:100CB4000A128A1102250A128A110800F800932EDA
:100CC400780884000A128A1103200A128A110A3A47
:100CD40003196D2E6E2E7B2E780884000A128A1159
:100CE40003200A128A110D3A031D792E7A2E812EC1
:100CF4007B2E0A128A1120250A128A118E2E780858
:100D040084000A128A1103200A128A110A128A1113
:100D140043250A128A118E2E0130F7007708F8074E
:100D2400932E780884000A128A1103200A128A1169
:100D34000038031D9E2E9F2E622EA02E08008312C3
:100D4400031308128816081788173130F000F00BC7
:100D5400A92EAC2E831203130618B12EB22EB52E73
:100D64000130412F412F8618B82EB92EBC2E0230E7
:100D7400412F412F0619BF2EC02EC32E0330412F01
:100D8400412F8619C62EC72ECA2E0A30412F412F55
:100D940008168812081788173130F000F00BD02E8F
:100DA400D32E831203130618D82ED92EDC2E04302A
:100DB400412F412F8618DF2EE02EE32E0530412FE0
:100DC400412F0619E62EE72EEA2E0630412F412F39
:100DD4008619ED2EEE2EF12E0B30412F412F0816E1
:100DE4008816081388173130F000F00BF72EFA2E0E
:100DF400831203130618FF2E002F032F0730412FF1
:100E0400412F8618062F072F0A2F0830412F412F14
:100E140006190D2F0E2F112F0930412F412F86193E
:100E2400142F152F182F0C30412F412F0816881618
:100E3400081788133130F000F00B1E2F212F831276
:100E440003130618262F272F2A2F0E30412F412F48
:100E540086182D2F2E2F312F0030412F412F0619A8
:100E6400342F352F382F0F30412F412F86193B2F28
:100E74003C2F3F2F0D30412F412FFF30412F0800D1
:100E8400FA01FB018312031385018601870188019E
:100E9400890111308316031385000F3086009330C7
:100EA4008700880189010A128A114F250A128A11C2
:100EB4000A128A11F6250A128A1102300A128A11BC
:100EC400A0250A128A1183120313851485126A2F2E
:100ED4000A128A1116250A128A1118300A128A1166
:100EE40060260A128A11FA01FB0106307B02031CF8
:100EF4007C2F7D2F7F2FB62FB62F0A128A117C25C7
:100F04000A128A11F9007B082A3E840079088313A7
:100F1400800001300A128A11A0250A128A117B0866
:100F24002A3E840083130008F9007B08303E8400C5
:100F34000008790603199F2FA02FA52F0130F9006F
:100F44007908FA07A52F2A300A128A1143250A12B2
:100F54008A110130F9007908FB0706307B02031C73
:100F6400B42FB52F7F2FB62F7A08031DBA2FD82F91
:100F740005300A128A11A0250A128A11831203135A
:100F840085120A128A1116250A128A112B300A12A6
:100F94008A1160260A128A11A030F0000F30F10085
:100FA4000A128A1161250A128A116A2F02300A1262
:100FB4008A11A0250A128A118312031385160A12B4
:100FC4008A1116250A128A1101300A128A11602622
:100FD4000A128A11A030F0000F30F1000A128A11AF
:100FE40061250A128A118312031385126A2F6A2F4C
:0C0FF4006A2FFC2FFC2F0A128A11002823
:02400E0032FF7F
:00000001FF
