:100000000A128A152F2BF1010314F10D00300A1288
:100010008A15EC240A128A110800F00168300A12CD
:100020008A115A210A128A11FB007B0883120313DA
:10003000BA00BA1F1C281D285328F0013A087F393E
:10004000FB007B08F10068300A128A1177200A123F
:100050008A1183120313B801B90101303902F43057
:1000600003193802031C352836283828532853280A
:100070000730FC007D30FB00FB0B3C28FC0B3C28D0
:10008000013083120313B8070318B90A0030B90707
:1000900001303902F43003193802031C502851286A
:1000A0003828532853280230FB007B08F0006830C2
:1000B0000A128A115A210A128A11FC007C08831242
:1000C0000313BA003A1F6528662876280230FB0021
:1000D0007B08F0003A08BF39FC007C08F10068306A
:1000E0000A128A1177200A128A1176280800F30072
:1000F00083120313AA018316031311147F28111806
:10010000822883287F2884287308F2007207FE392A
:100110008312031393008C28831603131419912858
:1001200092288C28111F95289628A4281115982804
:1001300011199B289C2898289D2883120313AA0133
:100140000314AA0DE528E528700883129300A82857
:10015000831603131419AD28AE28A828111FB1283F
:10016000B228C0281115B4281119B728B828B42806
:10017000B92883120313AA010314AA0DE528E52860
:10018000710883129300C428831603131419C92815
:10019000CA28C428111FCD28CE28DC281115D02844
:1001A0001119D328D428D028D52883120313AA01E3
:1001B0000314AA0DE528E5281115DE281119E128F8
:1001C000E228DE2883120313AA010800F601F11FBA
:1001D000EA28EB28F428F009F109F00A0319F10ADA
:1001E000F6010314F60DF428F31FF728F828022966
:1001F000F209F309F20A0319F30A0130F400740852
:10020000F6060229F701F80171087004031909299B
:100210000A294829F5010314F50D1A2901300310A4
:10022000F00DF10DFF3E031D0F290130F40074089D
:10023000F5071A29F11F1D291E290E292029202919
:1002400001300310F70DF80DFF3E031D2129710841
:100250007302031D2D2970087202031C30293129F5
:1002600039297008F2027108031CF303F3027714B2
:10027000392901300310F10CF00CFF3E031D3A291F
:100280000130F502031D452946292029482948291E
:100290007608031D4C295229F709F809F70A0319B2
:1002A000F80A52297808F101F1077708F001F00700
:1002B00059290800FA0083120313AA0183160313B5
:1002C00011146229111865296629622967297A089B
:1002D000F1007107FE398312031393006F2983160F
:1002E00003131419742975296F29111F7829792985
:1002F000882911157B2911197E297F297B298029BD
:1003000083120313AA010314AA0D0030292A292AF3
:100310007008831293008C298316031314199129F2
:1003200092298C29111F95299629A52911159829FB
:1003300011199B299C2998299D2983120313AA012D
:100340000314AA0D0030292A292A9114A7299118EB
:10035000AA29AB29A729AC2903147A0D8312031308
:100360009300B229831603131419B729B829B229A7
:10037000111FBB29BC29CB291115BE291119C1296F
:10038000C229BE29C32983120313AA010314AA0D8B
:100390000030292A292A91150030F8000030F70092
:1003A0002730F6001030F500082A0130F100003047
:1003B000F2000030F3000030F4007108F50272081A
:1003C000031C720FE429E529F6027308031C730F5E
:1003D000EA29EB29F7027408031C740FF029F129AC
:1003E000F8027808770476047504031DF829F929C2
:1003F000082A1115FB291119FE29FF29FB29002ABA
:1004000083120313AA010314AA0D0030292A292AF2
:1004100083160313141C0D2A0E2AD5290F2A8312C2
:1004200003131308F1007108F900831603139116E2
:1004300011161A2A111A1D2A1E2A1A2A1115202AE3
:100440001119232A242A202A83120313AA017908C6
:10045000292A080083120313C20038308400203098
:10046000FA000408FB000A30FC007A0884008313B9
:100470000008FD00FA0A7B0884007D088000FB0A62
:10048000FC0B352A1030F0002730F1007908F30119
:10049000F3077808F201F2070A128A15FA250A1200
:1004A0008A11710883120313C101C1077008C001CA
:1004B000C0071030F0002730F1007908F301F3078E
:1004C0007808F201F2070A128A1523250A128A1106
:1004D000710883120313BF01BF077008BE01BE0776
:1004E000E830F0000330F1003F08F301F3073E0865
:1004F000F201F2070A128A1523250A128A117108DD
:1005000083120313BD01BD077008BC01BC07E830AE
:10051000F0000330F1003F08F301F3073E08F20159
:10052000F2070A128A15FA250A128A117108831233
:100530000313BF01BF077008BE01BE076430F0009F
:100540000030F1003D08F301F3073C08F201F20727
:100550000A128A1523250A128A11710883120313BD
:10056000BB01BB077008BA01BA076430F000003065
:10057000F1003D08F301F3073C08F201F2070A120B
:100580008A15FA250A128A11710883120313BD0114
:10059000BD077008BC01BC070A30F0000030F10054
:1005A0003B08F301F3073A08F201F2070A128A1531
:1005B00023250A128A11710883120313B901B9079E
:1005C0007008B801B8070A30F0000030F1003B08AD
:1005D000F301F3073A08F201F2070A128A15FA2525
:1005E0000A128A11710883120313BB01BB0770083A
:1005F000BA01BA0706304202031CFF2A002B052B62
:100600000530FA007A08C200052BC208031D092B29
:100610000A2B0C2B242B242B4208FA007A07FE3ECF
:10062000383E840083130008303E0A128A151623D0
:100630000A128A11013083120313C202C208031D79
:10064000222B232B0C2B242B080083120313C7010E
:100650008501860187018801890111308316031302
:1006600085000F30860093308700880189010A12C7
:100670008A154C230A128A110A128A15B9240A1201
:100680008A110A128A153C230A128A110A128A1147
:100690000D200A128A1102300A128A15D1230A1279
:1006A0008A11831203138514B201562B831203138C
:1006B00006185B2B5C2B622B0A128A1146240A1245
:1006C0008A11562B0A128A15AC230A128A11831238
:1006D0000313C5004508AD000A128A15F6230A1255
:1006E0008A1183120313C5004508AC000A128A154B
:1006F00091240A128A1183120313C5004508AB0026
:100700000A128A150A230A128A1183120313C500DA
:100710004508AF000A128A151C240A128A11831296
:100720000313C5004508AE000A128A1543240A12B5
:100730008A1183120313C5004508B4000A128A15F2
:100740006A240A128A1183120313C5004508B700F0
:1007500083300A128A1522230A128A118312031384
:100760002B08C500C6014508F8004608F90002300C
:100770000A128A112A220A128A113A300A128A159A
:1007800016230A128A1186300A128A1522230A12A7
:100790008A11831203132C08C500C6014508F8000E
:1007A0004608F90002300A128A112A220A128A1116
:1007B0003A300A128A1516230A128A1189300A124F
:1007C0008A1522230A128A11831203132D08C500E9
:1007D000C6014508F8004608F90002300A128A11DD
:1007E0002A220A128A11C3300A128A1522230A12F7
:1007F0008A11831203132E08C500C6014508F800AC
:100800004608F90002300A128A112A220A128A11B5
:100810002F300A128A1516230A128A11C6300A12BC
:100820008A1522230A128A11831203133408C50081
:10083000C6014508F8004608F90002300A128A117C
:100840002A220A128A112F300A128A1516230A1236
:100850008A11C9300A128A1522230A128A118312B8
:1008600003133708C500C6014508F8004608F9001B
:1008700002300A128A112A220A128A11562B562B8A
:10088000562B422C422C0A128A110028472C831224
:100890000313061C4C2C4D2C472CBE2CBE2C86184A
:1008A000522C532C7D2C3230F0000030F1000A1213
:1008B0008A1591230A128A115D2C83120313861C58
:1008C000622C632C5D2C642C3230F0000030F1007F
:1008D0000A128A1591230A128A1117308312031300
:1008E0002B020318742C752C7A2C0130C30043089A
:1008F000AB07BE2CAB01BE2CBE2C83300A128A156E
:1009000022230A128A11831203132B08C300C40185
:100910004308F8004408F90002300A128A112A221A
:100920000A128A116430F0000030F1000A128A15B0
:1009300091230A128A1183300A128A1522230A127D
:100940008A1120300A128A1516230A128A1184305D
:100950000A128A1522230A128A1120300A128A15D5
:1009600016230A128A119630F0000030F1000A12A4
:100970008A1591230A128A11BE2CBE2C83120313EE
:100980000618C32CC42C4F2CC52C83300A128A1590
:1009900022230A128A11831203132B08C300C401F5
:1009A0004308F8004408F90002300A128A112A228A
:1009B0000A128A11DB2C83120313061CE02CE12C93
:1009C000DB2CE22C3230F0000030F1000A128A15E4
:1009D00091230A128A11502D8618EF2CF02C0F2D1E
:1009E0003230F0000030F1000A128A1591230A1209
:1009F0008A11FA2C83120313861CFF2C002DFA2C6B
:100A0000012D3B302C020318062D072D0C2D013033
:100A1000C3004308AC07502DAC01502D502D86303B
:100A20000A128A1522230A128A11831203132C0830
:100A3000C300C4014308F8004408F90002300A1258
:100A40008A112A220A128A116430F0000030F10063
:100A50000A128A1591230A128A1186300A128A15FF
:100A600022230A128A1120300A128A1516230A122A
:100A70008A1187300A128A1522230A128A1120301D
:100A80000A128A1516230A128A119630F0000030D5
:100A9000F1000A128A1591230A128A11502D502D45
:100AA000831203130618552D562DEC2C572D863026
:100AB0000A128A1522230A128A11831203132C08A0
:100AC000C300C4014308F8004408F90002300A12C8
:100AD0008A112A220A128A116D2D83120313061C11
:100AE000722D732D6D2D742D3230F0000030F10019
:100AF0000A128A1591230A128A11E22D8618812D75
:100B0000822DA12D3230F0000030F1000A128A153A
:100B100091230A128A118C2D83120313861C912DA6
:100B2000922D8C2D932D3B302D020318982D992D4D
:100B30009E2D0130C3004308AD07E22DAD01E22D2B
:100B4000E22D89300A128A1522230A128A11831291
:100B500003132D08C300C4014308F8004408F9003A
:100B600002300A128A112A220A128A116430F00015
:100B70000030F1000A128A1591230A128A11893075
:100B80000A128A1522230A128A1120300A128A15A3
:100B900016230A128A118A300A128A1522230A128F
:100BA0008A1120300A128A1516230A128A119630E9
:100BB000F0000030F1000A128A1591230A128A11FE
:100BC000E22DE22D831203130618E72DE82D7E2D6A
:100BD000E92D89300A128A1522230A128A118312FA
:100BE00003132D08C300C4014308F8004408F900AA
:100BF00002300A128A112A220A128A11FF2D831248
:100C00000313061C042E052EFF2D062E3230F00095
:100C10000030F1000A128A1591230A128A11742EEB
:100C20008618132E142E332E3230F0000030F100CF
:100C30000A128A1591230A128A111E2E8312031397
:100C4000861C232E242E1E2E252E1F302E02031826
:100C50002A2E2B2E302E0130C3004308AE07742EEF
:100C6000AE01742E742EC3300A128A1522230A1282
:100C70008A11831203132E08C300C4014308F8002D
:100C80004408F90002300A128A112A220A128A1133
:100C90006430F0000030F1000A128A1591230A1224
:100CA0008A11C3300A128A1522230A128A112030AF
:100CB0000A128A1516230A128A11C4300A128A15DA
:100CC00022230A128A1120300A128A1516230A12C8
:100CD0008A119630F0000030F1000A128A15912333
:100CE0000A128A11742E742E831203130618792E99
:100CF0007A2E102E7B2EC3300A128A1522230A1256
:100D00008A11831203132E08C300C4014308F8009C
:100D10004408F90002300A128A112A220A128A11A2
:100D2000912E83120313061C962E972E912E982E29
:100D30003230F0000030F1000A128A1591230A12B5
:100D40008A11082F8618A52EA62EC72E3230F00045
:100D50000030F1000A128A1591230A128A11B02E6E
:100D600083120313861CB52EB62EB02EB72E0C3070
:100D700034020318BC2EBD2EC22E0130C30043081E
:100D8000B407082FB4010314B40D082F082FC63080
:100D90000A128A1522230A128A11831203133408B5
:100DA000C300C4014308F8004408F90002300A12E5
:100DB0008A112A220A128A116430F0000030F100F0
:100DC0000A128A1591230A128A11C6300A128A154C
:100DD00022230A128A1120300A128A1516230A12B7
:100DE0008A11C7300A128A1522230A128A1120306A
:100DF0000A128A1516230A128A119630F000003062
:100E0000F1000A128A1591230A128A11082F082F5D
:100E10008312031306180D2F0E2FA22E0F2FC6308C
:100E20000A128A1522230A128A1183120313340824
:100E3000C300C4014308F8004408F90002300A1254
:100E40008A112A220A128A11252F83120313061CE3
:100E50002A2F2B2F252F2C2F3230F0000030F100BD
:100E60000A128A1591230A128A119A2F8618392F8D
:100E70003A2F592F3230F0000030F1000A128A1553
:100E800091230A128A11442F83120313861C492FBF
:100E90004A2F442F4B2F153037020318502F512F54
:100EA000562F0130C3004308B7079A2FB7019A2F76
:100EB0009A2FC9300A128A1522230A128A11831224
:100EC00003133708C300C4014308F8004408F900BD
:100ED00002300A128A112A220A128A116430F000A2
:100EE0000030F1000A128A1591230A128A11C930C2
:100EF0000A128A1522230A128A1120300A128A1530
:100F000016230A128A11CA300A128A1522230A12DB
:100F10008A1120300A128A1516230A128A11963075
:100F2000F0000030F1000A128A1591230A128A118A
:100F30009A2F9A2F8312031306189F2FA02F362F54
:100F4000A12FC9300A128A1522230A128A1183128C
:100F500003133708C300C4014308F8004408F9002C
:100F600002300A128A112A220A128A11B72F83121A
:100F70000313061CBC2FBD2FB72FBE2F3230F0003D
:100F80000030F1000A128A1591230A128A11831285
:100F900003132F080A128A1576230A128A11831264
:100FA00003132D080A128A15E4260A128A118312E5
:100FB00003132C080A128A1567250A128A11831254
:100FC00003132B080A128A153C270A128A1183126E
:100FD00003132E080A128A1548260A128A11831250
:100FE000031334080A128A1596260A128A118312EC
:100FF000031337080A128A15B0250A128A1108004D
:1015C800F00070088312031388000800640080018B
:1015D800840A0406031900340406EB2AF000701884
:1015E800F62AFA2A831203138515FD2A8312031398
:1015F80085110800F0007018022B062B83120313C4
:101608000515092B83120313051108000330FB008D
:101618007B08F00068300A128A115A210A128A15CA
:10162800152B0800F6007608F5007508F100013062
:101638000A128A15EC240A128A150800F6007608A0
:101648008038F5007508F10000300A128A15EC247C
:101658000A128A15080083132030840038300A12D1
:101668008A15EA220A128A1583010A128A11252B81
:1016780083160313871507160C3093008312031380
:10168800941514119410141094131413941608003C
:10169800831603131F17831203139F171F13831631
:1016A80003139F151F159F141F109F1783120313F1
:1016B8001F100800F300F201731C632B642B692BC5
:1016C8007008F1007108F207692B0310F00D031080
:1016D800F30CF308031D712B722B602B732B72080C
:1016E800752B0800F6007608031D7B2B902B08301D
:1016F80076020318802B812B902B0330F40074089A
:10170800F0007608F5007508F10068300A128A11B1
:1017180077200A128A15902B08009A2B0730F300BD
:101728007D30F200F20B962BF30B962B0130F00272
:101738000030031CF103F102FF307106031DA62BD4
:10174800FF307006031DA92BAA2B922BAB2B080088
:10175800F00168300A128A115A210A128A15FB0010
:101768007B0883120313B8000F303805FB000A30DA
:10177800FC007C08F0003808FD0004300310FD0C64
:10178800FF3E031DC22B7D0807390A128A155E2306
:101798000A128A157B07D02B0800F400EC2B831261
:1017A800031307155030F0000030F1000A128A15B3
:1017B80091230A128A158312031307116430F0006B
:1017C8000030F1000A128A1591230A128A15EC2BAF
:1017D8000130F4027408FF3A031DF32BF42BD32BCA
:1017E800F52B0800F0010314F00D68300A128A1175
:1017F8005A210A128A15FB007B0883120313B800CA
:101808000F303805FB000A30FC007C08F00038086F
:10181800FD0004300310FD0CFF3E031D0E2C7D0857
:101828000A128A155E230A128A157B071B2C0800E8
:101838000430FB007B08F00068300A128A115A2134
:101848000A128A15FC007C0883120313B8000F30B3
:101858003805FB000A30FC007C08F0003808FD0061
:1018680004300310FD0CFF3E031D352C7D080A12C1
:101878008A155E230A128A157B07422C0800053058
:10188800FB007B08F00068300A128A115A210A12FC
:101898008A15FC007C0883120313B8000F30380542
:1018A800FB000A30FC007C08F0003808FD0004301A
:1018B8000310FD0CFF3E031D5C2C7D080A128A15DF
:1018C8005E230A128A157B07692C08000630FB0084
:1018D8007B08F00068300A128A115A210A128A1508
:1018E800FC007C0883120313B8000F303805FB0096
:1018F8000A30FC007C08F0003808FD0004300310B2
:10190800FD0CFF3E031D832C7D080A128A155E23F9
:101918000A128A157B07902C08000230FB007B080E
:10192800F00068300A128A115A210A128A15FC003E
:101938007C0883120313B8000F303805FB000A3007
:10194800FC007C08F0003808FD0004300310FD0C92
:10195800FF3E031DAA2C7D0803390A128A155E234F
:101968000A128A157B07B82C080001300A128A155A
:10197800F2220A128A156230F6006530F500F50B7E
:10198800C32CF60BC32CC82C3830F5007508F100B1
:1019980000300A128A15EC240A128A150630F5005E
:1019A8007508F10000300A128A15EC240A128A150B
:1019B8000C30F5007508F10000300A128A15EC2485
:1019C8000A128A150A128A1103200A128A150800B7
:1019D800F40074080A128A15FE220A128A15710880
:1019E8000A128A15E4220A128A1501300A128A1587
:1019F800F2220A128A150730F3007D30F200F20B4A
:101A0800032DF30B032D00300A128A15F2220A1255
:101A18008A150D30F300FB30F200F20B112DF30B99
:101A2800112D162D00300A128A15FE220A128A1567
:101A380000300A128A15E4220A128A150800710871
:101A480070040319282D292D5F2DF5010314F50DB8
:101A5800392D01300310F00DF10DFF3E031D2E2D21
:101A68000130F4007408F507392DF11F3C2D3D2D88
:101A78002D2D3F2D3F2D71087302031D452D700834
:101A88007202031C482D492D502D7008F20271086E
:101A9800031CF303F302502D01300310F10CF00C7A
:101AA800FF3E031D512D0130F502031D5C2D5D2DF8
:101AB8003F2D5F2D5F2D7308F101F1077208F001CA
:101AC800F007662D0800F9003C30790203186D2DE7
:101AD8006E2DAF2D0A30F0000030F1007908831226
:101AE8000313B800B9013808F2003908F3000A12E4
:101AF8008A11E6200A128A15700883120313BA00A5
:101B080004300310BA0DFF3E031D852D0A30F00086
:101B18000030F1007908BB00BC013B08F2003C082A
:101B2800F3000A128A159A270A128A157008831276
:101B380003133A07BD003D08F900F0010314F00D46
:101B48007908B8003808F10068300A128A1177203D
:101B58000A128A15AF2D0800F900643079020318BB
:101B6800B62DB72DF92D0A30F0000030F1007908B4
:101B780083120313B800B9013808F2003908F300DA
:101B88000A128A11E6200A128A15700883120313B2
:101B9800BA0004300310BA0DFF3E031DCE2D0A30E3
:101BA800F0000030F1007908BB00BC013B08F200EE
:101BB8003C08F3000A128A159A270A128A15700837
:101BC800831203133A07BD003D08F9000630B80038
:101BD8003808F0007908B9003908F10068300A12AD
:101BE8008A1177200A128A15F92D0800F501F601E5
:101BF800710870040319012E022E402EF7010314F8
:101C0800F70D122E01300310F00DF10DFF3E031DEC
:101C1800072E0130F4007408F707122EF11F152E55
:101C2800162E062E182E182E01300310F50DF60D5F
:101C3800FF3E031D192E71087302031D252E70081F
:101C48007202031C282E292E312E7008F202710808
:101C5800031CF303F3027514312E01300310F10C49
:101C6800F00CFF3E031D322E0130F702031D3D2EFE
:101C78003E2E182E402E402E7608F101F1077508E9
:101C8800F001F007472E0800F9007908031D4D2ED2
:101C9800952E203079020318522E532E952E0A3095
:101CA800F0000030F100790883120313B800B9017D
:101CB8003808F2003908F3000A128A11E6200A12DD
:101CC8008A15700883120313BA0004300310BA0D82
:101CD800FF3E031D6A2E0A30F0000030F10079083B
:101CE800BB00BC013B08F2003C08F3000A128A154D
:101CF8009A270A128A157008831203133A07BD003F
:101D08003D08F9000430B8003808F0007908B90037
:101D18003908F10068300A128A1177200A128A15E8
:101D2800952E0800F9007908031D9B2EE32E0D302F
:101D380079020318A02EA12EE32E0A30F0000030FD
:101D4800F100790883120313B800B9013808F200CA
:101D58003908F3000A128A11E6200A128A15700857
:101D680083120313BA0004300310BA0DFF3E031D9B
:101D7800B82E0A30F0000030F1007908BB00BC0131
:101D88003B08F2003C08F3000A128A159A270A1247
:101D98008A157008831203133A07BD003D08F9003D
:101DA8000530B8003808F0007908B9003908F100A2
:101DB80068300A128A1177200A128A15E32E080061
:101DC800FC003C307C020318EA2EEB2E3B2F0A3035
:101DD800F0000030F1007C0883120313B800B90149
:101DE8003808F2003908F3000A128A11E6200A12AC
:101DF8008A15700883120313BA0004300310BA0D51
:101E0800FF3E031D022F0A30F0000030F1007C086D
:101E1800BB00BC013B08F2003C08F3000A128A151B
:101E28009A270A128A157008831203133A07BD000D
:101E38003D08FC00F00168300A128A115A210A1282
:101E48008A1583120313B8003808FB008030B800E5
:101E58003808FB05F0017B087C04B8003808F1005D
:101E680068300A128A1177200A128A153B2F080057
:101E7800FC0018307C020318422F432F992F0A3098
:101E8800F0000030F1007C0883120313B800B90198
:101E98003808F2003908F3000A128A11E6200A12FB
:101EA8008A15700883120313BA0004300310BA0DA0
:101EB800FF3E031D5A2F0A30F0000030F1007C0865
:101EC800BB00BC013B08F2003C08F3000A128A156B
:101ED8009A270A128A157008831203133A07BD005D
:101EE8003D08FC000230B8003808F00068300A12DB
:101EF8008A115A210A128A1583120313B900390864
:101F0800FB004030B8003808FB050230B80038083C
:101F1800F0007B087C04B9003908F10068300A1227
:101F28008A1177200A128A15992F0800F601F31FE3
:101F38009E2F9F2FA82FF209F309F20A0319F30A1B
:101F4800F6010314F60DA82FF11FAB2FAC2FB22FFB
:101F5800F009F109F00A0319F10AB22F71087004A7
:101F68000319B72FB82FEE2FF5010314F50DC82F5D
:101F780001300310F00DF10DFF3E031DBD2F0130A0
:101F8800F4007408F507C82FF11FCB2FCC2FBC2FF6
:101F9800CE2FCE2F71087302031DD42F7008720242
:101FA800031CD72FD82FDF2F7008F2027108031CEB
:101FB800F303F302DF2F01300310F10CF00CFF3EA6
:101FC800031DE02F0130F502031DEB2FEC2FCE2F60
:101FD800EE2FEE2F7608031DF22FF82FF209F309E2
:101FE800F20A0319F30AF82F7308F101F1077208CE
:081FF800F001F007FF2F0800C3
:02400E0032FF7F
:00000001FF
