:100000000A128A117C2D00308A000408840A8207B3
:10001000003443347934743472346F346E342034A1
:10002000503454344B3434343034413400344B3451
:0E003000653479347034613464343A34003409
:100A6000F00070088312031388000800F1010314DA
:100A7000F10D00300A128A114B260A128A11080061
:100A8000C030F5007508F10000300A128A114B26BB
:100A90000A128A110800F00070184F2D532D83128E
:100AA00003138515562D8312031385110800F000DA
:100AB00070185B2D5F2D831203130515622D8312B1
:100AC000031305110800F6007608F5007508F1001B
:100AD00001300A128A114B260A128A110800F60008
:100AE00076088038F5007508F10000300A128A1186
:100AF0004B260A128A110800A001A101A201A3013C
:100B0000A401A501A601A701A801A90183010A1258
:100B10008A11072F831603131F17831203139F17BE
:100B20001F13831603139F151F159F141F109F1764
:100B3000831203131F100800831203138910091076
:100B40000808F0390A3888000730F1007D30F000DD
:100B5000F00BA82DF10BA82D83120313891409148F
:100B60000808F03988000800BD2D0730F3007D30FB
:100B7000F200F20BB92DF30BB92D0130F002003069
:100B8000031CF103F102FF307106031DC92DFF3074
:100B90007006031DCC2DCD2DB52DCE2D0800FF30B8
:100BA000F1007108F200D42D0A128A115F270A128F
:100BB0008A11F1007108F2007208FF3A0319E12D61
:100BC000E22DD42DE52DE52DE52D0A128A115F27A2
:100BD0000A128A11FF3A031DEE2DEF2DE52DF02D9F
:100BE0007208F22D0800F4000E2E8312031307156D
:100BF0005030F0000030F1000A128A11B4250A12B8
:100C00008A118312031307116430F0000030F100E1
:100C10000A128A11B4250A128A110E2E0130F4022A
:100C20007408FF3A031D152E162EF52D172E0800F9
:100C300001300A128A114B250A128A116230F6001D
:100C40006530F500F50B222EF60B222E272E3830BC
:100C5000F5007508F10000300A128A114B260A12BD
:100C60008A110630F5007508F10000300A128A1169
:100C70004B260A128A110C30F5007508F10000307D
:100C80000A128A114B260A128A110A128A11362573
:100C90000A128A110800F40074080A128A115725F2
:100CA0000A128A1171080A128A1130250A128A1151
:100CB00001300A128A114B250A128A110730F300FB
:100CC0007D30F200F20B622EF30B622E00300A121E
:100CD0008A114B250A128A110D30F300FB30F20005
:100CE000F20B702EF30B702E752E00300A128A1143
:100CF00057250A128A1100300A128A1130250A1269
:100D00008A110800F800B52E780884000A128A11AA
:100D100003200A128A110A3A03198F2E902E9D2E53
:100D2000780884000A128A1103200A128A110D3AE7
:100D3000031D9B2E9C2EA32E9D2E0A128A11402548
:100D40000A128A11B02E780884000A128A11032030
:100D50000A128A110A128A1163250A128A11B02E08
:100D60000130F7007708F807B52E780884000A12DA
:100D70008A1103200A128A110038031DC02EC12EC9
:100D8000842EC22E0800F0000A3070020318C92E0B
:100D9000CA2ECE2E7008303E062F062F70080A3A53
:100DA000031DD32ED42ED72E4130062F062F7008C8
:100DB0000B3A031DDC2EDD2EE02E4230062F062FCF
:100DC00070080C3A031DE52EE62EE92E4330062F5F
:100DD000062F70080D3A031DEE2EEF2EF22E443032
:100DE000062F062F70080E3A031DF72EF82EFB2E45
:100DF0002A30062F062F70080F3A031D002F012FEF
:100E0000042F2330062F062F0030062F0800F9018B
:100E1000831203138501860187018801890111303E
:100E20008316031385000F308600933087008801F6
:100E300089010A128A118A250A128A110A128A1154
:100E40009C250A128A110A128A1118260A128A117E
:100E500002300A128A11F3250A128A11831203132F
:100E6000851401300A128A1182260A128A110A1286
:100E70008A1140250A128A110F300A128A1182261D
:100E80000A128A11432F47300A128A116F250A125B
:100E90008A110A128A11CF250A128A110A128A119E
:100EA000C3260A128A110A128A1163250A128A11AC
:100EB000432F432F5B2F5B2F0A128A1100288312C6
:100EC000031308128816081788173130F000F00B4A
:100ED000672F6A2F8312031306186F2F702F732F3B
:100EE0000130FF2FFF2F8618762F772F7A2F0230B1
:100EF000FF2FFF2F06197D2F7E2F812F0330FF2F0D
:100F0000FF2F8619842F852F882F0A30FF2FFF2F60
:100F100008168812081788173130F000F00B8E2F52
:100F2000912F831203130618962F972F9A2F0430B0
:100F3000FF2FFF2F86189D2F9E2FA12F0530FF2FEB
:100F4000FF2F0619A42FA52FA82F0630FF2FFF2F44
:100F50008619AB2FAC2FAF2F0B30FF2FFF2F0816AA
:100F60008816081388173130F000F00BB52FB82F12
:100F7000831203130618BD2FBE2FC12F0730FF2F7A
:100F8000FF2F8618C42FC52FC82F0830FF2FFF2F23
:100F90000619CB2FCC2FCF2F0930FF2FFF2F86190B
:100FA000D22FD32FD62F0C30FF2FFF2F08168816E5
:100FB000081788133130F000F00BDC2FDF2F83127D
:100FC00003130618E42FE52FE82F0E30FF2FFF2F15
:100FD0008618EB2FEC2FEF2F0030FF2FFF2F061975
:100FE000F22FF32FF62F0F30FF2FFF2F8619F92F37
:100FF000FA2FFD2F0D30FF2FFF2FFF30FF2F08009E
:02400E0032FF7F
:00000001FF
