:0400000068EF3EF077
:107CD000000104EF3FF08D908C50F00B0A108C6E79
:107CE000080EE82EFED78D808C50F00B8C6E1200A3
:107CF0008D928C50F00B08108C6E080EE82EFED77B
:107D00008D828C50F00B8C6E12008D928D908C5069
:107D1000F00B0A098C6E080EE82EFED78D828D803E
:107D20008C50F00B8C6E1200C19AC198C186C18430
:107D3000C182C190C08EC084C082C090C08AC098E9
:107D4000C086C29012000FD08B84000E026E320EDD
:107D5000016EBBEC3EF08B94000E026E320E016E93
:107D6000BBEC3EF000D004060428D8A401D001D01A
:107D7000EBD700D0120002500110D8A401D001D0DE
:107D800002D013D012D0100E036E940EE82EFED740
:107D9000032EFCD700F00106D8A002060250011005
:107DA000D8A401D001D0EFD700D01200630E0B642D
:107DB00001D001D00DD00C6E0A0E086E0C5078EC7C
:107DC0003EF00C6E0A0E0A6E0C506BEC3EF01BD0AF
:107DD0000BC001F0026A000E046E0A0E036E4EEC38
:107DE0003FF00150086E78EC3EF00BC001F0026AE3
:107DF000000E046E0A0E036EA2EC3FF001500A6EF4
:107E00006BEC3EF000D012000D6E000E0E6E0D50A9
:107E1000000E806E000E816E000E826E000E836E6C
:107E2000000E846E110E926E0F0E936E930E946E72
:107E3000000E956E000E966E94EC3EF085EC3EF0D2
:107E40000D6E020E046E0D50A3EC3EF000D081B01A
:107E500001D001D0FCD701D000D00D6E000E0E6E07
:107E60000D50630E0E6401D001D002D0F6D7F5D7C5
:107E70000EC00BF0D6EC3EF0010E026EF40E016E59
:107E8000BBEC3EF00E2A630E0E6401D001D0F0D799
:107E9000E4D7E3D7E2D7FFD700EF00F0056E000E7E
:107EA000076E055002AE01D001D009D0016C021E50
:107EB000D8B0022A056E010E076E055000D004AE40
:107EC00001D001D005D0036C041ED8B0042A00D024
:107ED00004500310D8B401D001D024D0056E010E97
:107EE000066E055005D0D89003360436062A00D019
:107EF00004AE01D001D0F7D701D000D00350015C0F
:107F000004500258D8A001D001D005D00350015E22
:107F10000450025A00D0D89004320332062EEED715
:107F200001D000D00750D8B401D001D005D0016CE9
:107F3000021ED8B0022A00D001C001F002C002F037
:107F400000D01200056E000E076E055004AE01D081
:107F500001D009D0036C041ED8B0042A056E010EAE
:107F6000076E055000D002AE01D001D007D0016CE1
:107F7000021ED8B0022A010E071A00D0000E096EA8
:107F8000000E086E04500310D8B401D001D028D0E0
:107F9000056E010E066E055005D0D89003360436E6
:107FA000062A00D004AE01D001D0F7D701D000D00E
:107FB000D890083609360350015C04500258D8A006
:107FC00001D001D006D00350015E0450025A08804F
:107FD00000D0D89004320332062EEAD701D000D068
:107FE0000750D8B401D001D005D0086C091ED8B014
:107FF000092A00D008C001F009C002F000D0120028
:020000040020DA
:08000000FFFFFFFFFFFFFFFF00
:020000040030CA
:0E00000024CE381EFF8381FF0FC00FA00F40DB
:00000001FF
