:060000000A128A117C2F98
:100EF80083010A128A11D22F831603131F17831234
:100F080003139F171F13831603139F151F159F1491
:100F18001F109F17831203131F1008009B2F073001
:100F2800F3007D30F200F20B972FF30B972F01306F
:100F3800F0020030031CF103F102FF307106031DBB
:100F4800A72FFF307006031DAA2FAB2F932FAC2FAE
:100F58000800F400C82F8312031307155030F0005F
:100F68000030F1000A128A1192270A128A1183129C
:100F7800031307116430F0000030F1000A128A11DF
:100F880092270A128A11C82F0130F4027408FF3A16
:100F9800031DCF2FD02FAF2FD12F0800831203139B
:100FA80085018601870188018901113083160313A1
:100FB80085000F30860093308700880189010A1266
:100FC8008A1180270A128A1102300A128A11AD2763
:100FD8000A128A11EF2F831203138619F42FF52FA3
:100FE800F72F0715EF2F0711EF2FEF2FEF2FFC2FFC
:080FF800FC2F0A128A110028E7
:02400E0032FF7F
:00000001FF
