:100000000A128A11792E00308A000408840A8207B5
:1000100000345334573431343D342B34203453348A
:10002000573432343D342D34003453345734333460
:100030003D3452346F347434613474346534003474
:100C5200831203131F140800F00070088312031399
:100C620088000800F1010314F10D00300A128A1104
:100C7200E7260A128A110800C030F5007508F10053
:100C820000300A128A11E7260A128A110800F000BF
:100C920070184C2E502E831203138515532E831277
:100CA200031385110800F0007018582E5C2E831271
:100CB200031305155F2E8312031305110800F600B6
:100CC2007608F5007508F10001300A128A11E7264C
:100CD2000A128A110800F60076088038F5007508B5
:100CE200F10000300A128A11E7260A128A1108005E
:100CF200A001A101A201A301A401A501A601A701CE
:100D0200A801A90183010A128A115F2F8316031316
:100D12001F17831203139F171F13831603139F15A5
:100D22001F159F141F109F17831203131F10080013
:100D3200A22E0730F3007D30F200F20B9E2EF30B51
:100D42009E2E0130F0020030031CF103F102FF304D
:100D52007106031DAE2EFF307006031DB12EB22E9A
:100D62009A2EB32E080001300A128A1148260A125E
:100D72008A116230F6006530F500F50BBE2EF60BD7
:100D8200BE2EC32E3830F5007508F10000300A126D
:100D92008A11E7260A128A110630F5007508F10059
:100DA20000300A128A11E7260A128A110C30F50065
:100DB2007508F10000300A128A11E7260A128A1118
:100DC2000A128A1133260A128A110800F4007408E2
:100DD2000A128A1154260A128A1171080A128A11F9
:100DE2002D260A128A1101300A128A1148260A1285
:100DF2008A110730F3007D30F200F20BFE2EF30B66
:100E0200FE2E00300A128A1148260A128A110D306B
:100E1200F300FB30F200F20B0C2FF30B0C2F112F0F
:100E220000300A128A1154260A128A1100300A125C
:100E32008A112D260A128A110800F800512F78080B
:100E420084000A128A1103200A128A110A3A03192B
:100E52002B2F2C2F392F780884000A128A11032095
:100E62000A128A110D3A031D372F382F3F2F392FBF
:100E72000A128A113D260A128A114C2F7808840020
:100E82000A128A1103200A128A110A128A11602692
:100E92000A128A114C2F0130F7007708F807512FF8
:100EA200780884000A128A1103200A128A11003873
:100EB200031D5C2F5D2F202F5E2F08006430F90088
:100EC2000030FA008312031385018601870188012D
:100ED200890111308316031385000F308600933089
:100EE2008700880189010A128A1187260A128A114B
:100EF2000A128A11B4260A128A110A128A112926A2
:100F02000A128A1183120313851401300A128A11FC
:100F12001E270A128A1140300A128A116C260A12FE
:100F22008A110D300A128A111E270A128A1183129F
:100F32000313861206169D2F0619A02FA12FB62F76
:100F4200A32FA32F061DA62FA72FA32FA82F0A304A
:100F5200F0000030F1000A128A1199260A128A1151
:100F62002030831203138606B62F861EB92FBA2F9E
:100F7200F62F06160618BE2FBF2FD02F00307A028A
:100F8200023003197902031CC72FC82FE62F013044
:100F9200F9020030031CFA03FA02E62FE62F861844
:100FA200D32FD42FE62F03307A02E83003197902C7
:100FB2000318DC2FDD2FE62F0130F9070318FA0A98
:100FC2000030FA07E62FE62FE62F7A08F101F10743
:100FD2007908F001F0070A128A1199260A128A1179
:100FE20004308312031387069D2F071106129D2FCB
:0E0FF2009D2F9D2FFC2FFC2F0A128A11002824
:02400E0032FF7F
:00000001FF
