:0400000051EF00F0CC
:10000800FACF13F0FBCF14F0E9CF15F0E9ED1FF0AC
:10001800D8CF01F0E8CF02F0E0CF03F0FACF04F038
:10002800FBCF05F0E9CF06F0EACF07F0E1CF08F003
:10003800E2CF09F0D9CF0AF0DACF0BF0F3CF0CF00A
:10004800F4CF0DF0F6CF0EF0F7CF0FF0F8CF10F099
:10005800F5CF11F011C0F5FF10C0F8FF0FC0F7FF82
:100068000EC0F6FF0DC0F4FF0CC0F3FF0BC0DAFFA3
:100078000AC0D9FF09C0E2FF08C0E1FF07C0EAFFD4
:1000880006C0E9FF05C0FBFF04C0FAFF03C0E0FF9C
:1000980002C0E8FF01C0D8FF1000A2EF21F0000164
:1000A800A86F010E00010001AD6F0001A851000109
:1000B800A86F000E00010001AC6F0001A851FF0EEF
:1000C80000010001A96F730E00010001AA6F420E22
:1000D80000010001AB6F000E806E000E816E000EF5
:1000E800826E000E836E000E846E110E926E0F0EDD
:1000F800936E930E946E000E956E000E966E42EC03
:1001080023F051EC23F0C2EC11F013EC1EF08982BD
:100118007C0E00010001676F0D0E0001666F000183
:10012800D3EC23F0070E226ED00E216E1FEC22F0C6
:100138007C0E00010001676F2A0E0001666F000146
:10014800D3EC23F0070E226ED00E216E1FEC22F0A6
:100158007B0E00010001676FEE0E0001666F000163
:10016800D3EC23F0070E226ED00E216E1FEC22F086
:100178000001A86F020E00010001616F0001A85183
:1001880000013BEC22F058EC13F0000E226EC80E72
:10019800216E1FEC22F000D07E0E00010001656F79
:1001A800040E0001646F00010BEC1FF077D17F0E85
:1001B80000010001656F0F0E0001646F0001BDECC6
:1001C8001EF081B401D001D097D101D000D081A414
:1001D80001D001D0FCD700D0A8EC20F0A5EC18F095
:1001E800E4EC14F08CEC1CF0B4EC06F0EEEC10F03F
:1001F800D9EC0AF058EC08F0CDEC1AF005EC0DF04B
:100208008EEC12F038EC16F09CEC09F075D174D134
:100218007E0E00010001656FB10E0001646F0001E0
:10022800BDEC1EF081B401D001D066D101D000D060
:1002380081A401D001D0FCD700D0A8EC20F05CD17B
:100248005BD17F0E00010001656F700E0001646FC5
:100258000001BDEC1EF081B401D001D04DD101D018
:1002680000D081A401D001D0FCD700D0A5EC18F0B3
:1002780043D142D17F0E00010001656FBB0E000122
:10028800646F0001BDEC1EF081B401D001D034D1FF
:1002980001D000D081A401D001D0FCD700D0E4EC7B
:1002A80014F02AD129D17F0E00010001656FB20E2A
:1002B8000001646F0001BDEC1EF081B401D001D0D3
:1002C8001BD101D000D081A401D001D0FCD700D02F
:1002D8008CEC1CF011D110D17F0E00010001656F6C
:1002E8001B0E0001646F0001BDEC1EF081B401D04B
:1002F80001D002D101D000D081A401D001D0FCD717
:1003080000D0B4EC06F0F8D0F7D07D0E0001000163
:10031800656FF30E0001646F0001BDEC1EF081B43F
:1003280001D001D0E9D001D000D081A401D001D002
:10033800FCD700D0D9EC0AF0DFD0DED07E0E000169
:100348000001656FA20E0001646F0001BDEC1EF094
:1003580081B401D001D0D0D001D000D081A401D087
:1003680001D0FCD700D0EEEC10F0C6D0C5D07F0E7F
:1003780000010001656FD10E0001646F0001BDEC42
:100388001EF081B401D001D0B7D001D000D081A433
:1003980001D001D0FCD700D058EC08F0ADD0ACD0DB
:1003A8007E0E00010001656F260E0001646F0001DA
:1003B800BDEC1EF081B401D001D09ED001D000D098
:1003C80081A401D001D0FCD700D0CDEC1AF094D094
:1003D80093D07E0E00010001656F750E0001646FF9
:1003E8000001BDEC1EF081B401D001D085D001D050
:1003F80000D081A401D001D0FCD700D005EC0DF0CD
:100408007BD07AD07E0E00010001656FF70E0001E7
:10041800646F0001BDEC1EF081B401D001D06CD036
:1004280001D000D081A401D001D0FCD700D08EEC3F
:1004380012F062D061D07F0E00010001656FA90E35
:100448000001646F0001BDEC1EF081B401D001D041
:1004580053D001D000D081A401D001D0FCD700D066
:1004680038EC16F049D048D07F0E00010001656FC6
:10047800A00E0001646F0001BDEC1EF081B401D034
:1004880001D03AD001D000D081A401D001D0FCD74E
:1004980000D09CEC09F030D02FD02ED00001000104
:1004A800AD51010AD8B483D6030AD8B4B1D6010A2B
:1004B800D8B4C7D6070AD8B4DDD6010AD8B4F3D65B
:1004C800030AD8B409D7010AD8B41FD70F0AD8B479
:1004D80035D7010AD8B44BD7030AD8B461D7010A73
:1004E800D8B477D7070AD8B48DD7010AD8B4A3D718
:1004F800030AD8B4B9D700D081B001D001D01FD039
:1005080000010001AD2F0AD00001A86F0E0E0001F6
:100518000001AD6F0001A85101D000D081A001D029
:1005280001D0FCD700D00001A86F010E0001000126
:10053800616F0001A85100013BEC22F000D081B2AC
:1005480001D001D029D600010001AD2B0E0E00010B
:10055800AD6501D001D00AD00001A86F010E0001DD
:100568000001AD6F0001A85101D000D081A201D0D7
:1005780001D0FCD700D00001A86F010E00010001D6
:10058800616F0001A85100013BEC22F005D604D6AA
:1005980003D651EF00F020EEB8F010EE94F0060EFE
:1005A800DECFE6FFE82EFCD7000E000100019A6FAF
:1005B800000E00019B6F000E00019C6F000E0001F1
:1005C8009D6F000E00010001606F7A0E00010001AE
:1005D800616F440E00010001626F8DC063F08EC030
:1005E80064F08FC065F0000149EC1AF0D8A001D082
:1005F80001D0CED18DC079F08EC07AF08FC07BF05B
:100608000001FCEC0FF079C09AF07AC09BF07BC037
:100618009CF07CC09DF09AC060F09BC061F09CC0CB
:1006280062F09DC063F0640E00010001646F000E6B
:100638000001656F000E0001666F000E0001676F14
:10064800000134EC19F000010001605100010001C3
:10065800996F9AC060F09BC061F09CC062F09DC029
:1006680063F0640E00010001646F000E0001656F05
:10067800000E0001666F000E0001676F00011EEC9E
:100688001CF000010001605100010001986F000199
:10069800000198C060F000010001616B000E0001CC
:1006A8000001636F0A0E0001626F0001C2EC19F0CD
:1006B80000010001605100010001976F0001000175
:1006C80098C060F000010001616B000E000100019C
:1006D800636F0A0E0001626F00010AEC18F0000156
:1006E8000001605100010001986F000E0001000137
:1006F8006B6F7A0E000100016C6F440E000100015F
:100708006D6F8DC068F08EC069F08FC06AF000010F
:10071800F0EC0BF068C079F069C07AF06AC07BF041
:100728000001FCEC0FF079C088F07AC089F0030E64
:10073800000100018B6FE80E00018A6F0001A1EC37
:100748001FF00001000188C09AF00001000189C073
:100758009BF0000100019C6B00019D6B9AC060F04A
:100768009BC061F09CC062F09DC063F0640E000104
:100778000001646F000E0001656F000E0001666FD6
:10078800000E0001676F000134EC19F00001000150
:10079800605100010001966F9AC060F09BC061F043
:1007A8009CC062F09DC063F0640E00010001646F9C
:1007B800000E0001656F000E0001666F000E00015B
:1007C800676F00011EEC1CF0000100016051000180
:1007D8000001956F0001000195C060F00001000163
:1007E800616B000E00010001636F0A0E0001626F69
:1007F8000001C2EC19F00001000160510001000184
:10080800946F0001000195C060F000010001616B68
:10081800000E00010001636F0A0E0001626F000103
:100828000AEC18F000010001605100010001956F09
:10083800000100019951D8B401D001D015D00001B0
:1008480000019951300F00010001626F00016FEC47
:1008580023F0000100019851300F00010001626F80
:1008680000016FEC23F012D0000100019851D8B4B8
:1008780001D001D00BD0000100019851300F0001C8
:100888000001626F00016FEC23F000D0000100014D
:100898009751300F00010001626F00016FEC23F0E7
:1008A8000001906F2E0E00010001626F000190514F
:1008B80000016FEC23F0000100018C6701D001D02A
:1008C80008D00001906F010E000100018C6F00013B
:1008D80090510001906F000E00010001926F00011D
:1008E80090510001906F030E00010001936F000109
:1008F800905100010001936701D001D002D035D09A
:1009080034D0FF0E0001000193250001906F000113
:100918000001916BFF0E91230001940E00019025B8
:10092800D96E0001000E00019121DA6EDF50300F00
:1009380000010001626F00016FEC23F0000100016B
:10094800922B000100018C5100010001926301D03B
:1009580001D002D00AD009D000010001930700019C
:100968000001936701D001D0CCD70001000198673E
:1009780001D001D018D00001906F200E00010001B5
:10098800626F0001905100016FEC23F00CD00BD086
:100998007F0E00010001656FF60E0001646F000113
:1009A8002BEC20F000D012000F0E0001736F000135
:1009B8006DC074F000016EC075F000016FC076F074
:1009C800000173290001776F05D00001D8907633B4
:1009D800753374330001772FF8D700017451000183
:1009E80000017A6F0F0E0001736F000170C074F080
:1009F800000171C075F0000172C076F00001732922
:100A08000001776F05D00001D890763375337433C1
:100A18000001772FF8D70001745100010001796FA8
:100A2800000100017A51D8B401D001D019D00001D9
:100A380000017951000100017A6101D001D017D07D
:100A4800000100017A510008000100017925000128
:100A5800736F190E0001735DD8A001D001D007D0C3
:100A680070C06DF071C06EF072C06FF078D1000187
:100A780000017951D8B401D001D019D0000100018A
:100A88007A5100010001796101D001D017D000012D
:100A9800000179510008000100017A250001736FF7
:100AA800190E0001735DD8A001D001D007D06DC028
:100AB8006DF06EC06EF06FC06FF051D10001736FB2
:100AC800060E00010001786F00017351000100015A
:100AD8006FAF01D001D004D000010001788F00D0A1
:100AE8000001000172AF01D001D003D00001000164
:100AF800788D000100016E8FFF0E000100016D1757
:100B0800FF0E000100016E17000E000100016F17B3
:100B180000010001718FFF0E000100017017FF0E28
:100B2800000100017117000E000100017217000199
:100B380000017951000100017A6101D001D03AD059
:100B480000D00001D8900001703700017137000112
:100B58007237000100017907000100017951000195
:100B680000017A19D8B401D001D019D000010001D0
:100B7800780700017851070BD8A401D001D0E1D73C
:100B88000ED00DD00CD00001D89000016F330001B9
:100B98006E3300016D33000100017A2B00D0000193
:100BA80000017951000100017A6301D001D0EBD72F
:100BB80044D043D0000100017A510001000179615D
:100BC80001D001D03AD000D00001D89000016D3793
:100BD80000016E3700016F37000100017A0700013C
:100BE80000017951000100017A19D8B401D001D06F
:100BF80019D000010001780700017851070BD8A42B
:100C080001D001D0E1D70ED00DD00CD00001D89082
:100C180000017233000171330001703300010001DB
:100C2800792B00D0000100017951000100017A639D
:100C380001D001D0EBD701D000D00001000178AF7E
:100C480001D001D018D0FF0E000100016D1BFF0E6E
:100C5800000100016E1BFF0E000100016F1B010E59
:100C6800000100016D27000E000100016E23000E37
:100C7800000100016F230001000178AD01D001D00F
:100C880019D0FF0E00010001701BFF0E00010001CA
:100C9800711BFF0E00010001721B010E0001000113
:100CA8007027000E000100017123000E00010001F1
:100CB800722300D00001736F000E00010001786FED
:100CC80000017351000100016D51000100017027FE
:100CD800000100016E5100010001712300010001B3
:100CE8006F510001000172230001000172AF01D0B1
:100CF80001D021D0FF0E00010001701BFF0E000182
:100D08000001711BFF0E00010001721B010E0001A2
:100D180000017027000E000100017123000E000180
:100D2800000172230001736F010E00010001786F4A
:100D38000001735100D070C060F071C061F072C0E2
:100D480062F07AC063F078C064F000011EEC14F021
:100D580060C06DF061C06EF062C06FF000D012002C
:100D68007E0E00010001676FDC0E0001666F000156
:100D7800D3EC23F0030E226EE80E216E1FEC22F056
:100D88001FD07C0E00010001676FE90E0001666F3D
:100D98000001D3EC23F00BEC21F081B001D001D09D
:100DA80002D014D013D07C0E00010001676F440EEE
:100DB8000001666F0001D3EC23F00BEC21F000D0AA
:100DC80081B001D001D0DDD701D000D081A001D001
:100DD80001D0FCD700D07DEC23F08AEC23F0C5ECE1
:100DE80022F000019D6F070E00010001626F0001F3
:100DF8009D510001EDEC22F07F0E00010001656FAE
:100E0800CA0E0001646F00012BEC20F0000E226E68
:100E1800000E216E17EC24F000019D6F480E0001B2
:100E28000001626F00019D510001EDEC22F07F0E80
:100E380000010001656FEC0E0001646F00012BECEE
:100E480020F08A888A9A010E000100019F6F5E0EC9
:100E580000019E6FFF0E000100019E5D030E000160
:100E68009F59D8A001D001D002D053D052D09EC0F3
:100E780021F09FC022F0E3EC21F0000E226E0A0E52
:100E8800216E1FEC22F000019D6F430E000100014E
:100E9800626F00019D510001EDEC22F000019D6F91
:100EA800040E000100018C6F00019D5112EC24F02A
:100EB80021C08DF022C08EF000010AEC0FF0000175
:100EC8009D6F4C0E00010001626F00019D510001F1
:100ED800EDEC22F000019D6F040E000100018C6F03
:100EE80000019D519EC08DF09FC08EF000010AEC5C
:100EF8000FF0000100019E4B9F2BFF0E0001000127
:100F08009E5D030E00019F59D8A001D001D0AFD734
:100F180000D000019D6F070E00010001626F000103
:100F28009D510001EDEC22F07F0E00010001656F7C
:100F3800FB0E0001646F00012BEC20F08A988A8A6E
:100F4800C90E000100019E5D000E00019F59D8B036
:100F580001D001D002D054D053D09EC021F09FC000
:100F680022F0E3EC21F0000E226E0A0E216E1FEC37
:100F780022F000019D6F430E00010001626F000125
:100F88009D510001EDEC22F000019D6F040E00015F
:100F980000018C6F00019D5112EC24F021C08DF0EE
:100FA80022C08EF000010AEC0FF000019D6F4C0E7C
:100FB80000010001626F00019D510001EDEC22F07B
:100FC80000019D6F040E000100018C6F00019D510E
:100FD8009EC08DF09FC08EF000010AEC0FF000015A
:100FE80000019E07D8A09F07C90E000100019E5D61
:100FF800000E00019F59D8B001D001D0AED700D063
:10100800030E226EE80E216E1FEC22F0000E226EF7
:10101800000E216EE3EC21F08A988A9A030E226E64
:10102800E80E216E1FEC22F01FD07C0E000100019B
:10103800676F6A0E0001666F0001D3EC23F00BECBA
:1010480021F081B001D001D002D014D013D07C0E91
:1010580000010001676F440E0001666F0001D3ECC8
:1010680023F00BEC21F000D081B001D001D0DDD706
:1010780001D000D081A001D001D0FCD700D0B1ECC4
:1010880023F0F29A00019D6F020E00010001616FCA
:1010980000019D5100013BEC22F0000E226EC80EAB
:1010A800216E1FEC22F01200000E00010001A06F5B
:1010B800000E00019F6F00019E6F000E00010001ED
:1010C800A46F00019E51000E00010001A56F000EE3
:1010D80000010001A66F000E00010001A76F7F0E3E
:1010E80000010001676F8E0E0001666F0001D3ECEE
:1010F80023F022EC24F07D0E00010001676F1D0E25
:101108000001666F0001D3EC23F0F3D0000E00015C
:101118000001A56F000E00010001A66F000E00017E
:101128000001A76F00019E6F000E00010001A46F6F
:1011380000019E51090E00010001A46501D001D0F3
:1011480002D02AD029D060EC23F021C068F022C058
:1011580069F0000134EC21F068C06DF069C06EF0F0
:101168006AC06FF0A5C070F0A6C071F0A7C072F099
:101178000001D8EC04F06DC0A5F06EC0A6F06FC0F9
:10118800A7F000010001A42B090E00010001A465CD
:1011980001D001D0D8D700D0A5C068F0A6C069F0AA
:1011A800A7C06AF0000E000100016B6F200E00015D
:1011B80000016C6F410E000100016D6F00010FEC22
:1011C8000EF068C0A5F069C0A6F06AC0A7F00001DB
:1011D8009E6F030E00010001626F00019E51000125
:1011E800EDEC22F000019E6F040E000100018C6FEF
:1011F80000019E51A5C079F0A6C07AF0A7C07BF087
:101208000001FCEC0FF079C08DF07AC08EF000017F
:101218000AEC0FF000019E6F0B0E00010001626FD7
:1012280000019E510001EDEC22F0A5C068F0A6C0B7
:1012380069F0A7C06AF0E80E000100016B6F9F0E0D
:10124800000100016C6F3B0E000100016D6F000191
:10125800F0EC0BF068C0A1F069C0A2F06AC0A3F07E
:1012680000019E6F030E000100018C6F00019E516A
:10127800A1C08DF0A2C08EF0A3C08FF00001CFEC0A
:1012880002F000019E6F4C0E00010001626F000128
:101298009E510001EDEC22F0A5C068F0A6C069F0EF
:1012A800A7C06AF0DB0E000100016B6FF90E0001A8
:1012B80000016C6F3E0E000100016D6F0001F0EC43
:1012C8000BF068C0A1F069C0A2F06AC0A3F00001E9
:1012D8009E6F010E000100018C6F00019E51A1C09C
:1012E8008DF0A2C08EF0A3C08FF00001CFEC02F009
:1012F80000D081B201D001D009D701D000D081A29D
:1013080001D001D0FCD700D024EC24F000019E6F5E
:10131800020E00010001616F00019E5100013BECCB
:1013280022F0000E226EC80E216E1FEC22F0120071
:101338000001686F000E000100016B6F0001685129
:101348000001686F000E000100016C6F0001685118
:101358000001686F000E000100016A6F000168510A
:101368007F0E00010001676F5C0E0001666F0001CF
:10137800D3EC23F0030E226EE80E216E1FEC22F050
:1013880031D07F0E00010001676F270E0001666FE4
:101398000001D3EC23F00BEC21F081B001D001D097
:1013A80002D026D025D07D0E00010001676FD10E36
:1013B8000001666F0001D3EC23F00BEC21F081B043
:1013C80001D001D002D014D013D07C0E000100014E
:1013D800676F440E0001666F0001D3EC23F00BEC3D
:1013E80021F000D081B001D001D0CBD701D000D0FE
:1013F80081A001D001D0FCD700D06FEC22F000EC26
:1014080023F07C0E00010001676FAB0E0001666FD0
:101418000001D3EC23F0000E226E640E216E1FEC47
:1014280022F0A6D00001686F0A0E226E00016851F2
:10143800EFEC23F00009D8B401D001D00ED00001A0
:10144800686F0B0E226E00016851EFEC23F0000963
:10145800D8A401D001D00DD000D07F0E000100012A
:10146800656FD80E0001646F00010BEC1FF08B84D0
:101478000CD07F0E00010001656FC80E0001646F7B
:1014880000010BEC1FF08B9400D00001686F180E60
:10149800226E00016851EFEC23F0000100016B6F30
:1014A8000001686F140E226E00016851EFEC23F002
:1014B800000100016C6F050E000100016B6501D091
:1014C80001D014D00001686F1D0E00010001606F8B
:1014D800000168510001696F010E00010001616F90
:1014E800000169510001E6EC23F014D00001686F97
:1014F8001D0E00010001606F000168510001696F55
:10150800000E00010001616F000169510001E6EC65
:1015180023F000D00A0E000100016C6501D001D053
:1015280012D00001686F1E0E00010001606F0001FB
:101538006851000100016C51020DF3CF61F0000108
:10154800E6EC23F015D00001686F1E0E00010001C3
:10155800606F000168510001696F000E0001000111
:10156800616F000169510001E6EC23F001D000D061
:1015780081B201D001D056D701D000D081A201D0CC
:1015880001D0FCD700D00001686F020E00010001F5
:10159800616F0001685100013BEC22F0000E226EE1
:1015A800C80E216E1FEC22F012007E0E0001000111
:1015B800676FEA0E0001666F0001D3EC23F0030E9B
:1015C800226EE80E216E1FEC22F00001686F020EF9
:1015D80000010001696F000168510001000169679D
:1015E80001D001D002D0DBD0DAD00001000169516E
:1015F800020AD8A401D001D03FD032D031D07C0E1D
:1016080000010001676F790E0001666F0001D3ECDD
:1016180023F00BEC21F081B001D001D002D026D00C
:1016280025D07C0E00010001676FFA0E0001666F7D
:101638000001D3EC23F00BEC21F081B001D001D0F4
:1016480002D014D013D07C0E00010001676F440E45
:101658000001666F0001D3EC23F00BEC21F000D001
:1016680081B001D001D0CBD701D000D081A001D06A
:1016780001D0FCD735D034D0000100016905D8A4C9
:1016880001D001D02DD020D01FD07E0E0001000146
:10169800676F560E0001666F0001D3EC23F00BEC68
:1016A80021F081B001D001D002D014D013D07C0E2B
:1016B80000010001676F440E0001666F0001D3EC62
:1016C80023F00BEC21F000D081B001D001D0DDD7A0
:1016D80001D000D081A001D001D0FCD701D000D02A
:1016E8008B847F0E00010001676FFB0E0001666F9F
:1016F8000001D3EC23F00001686F000E0001000127
:10170800616F000168510001F5EC1CF0010E226EBA
:10171800F40E216E1FEC22F07F0E00010001676FAE
:10172800FC0E0001666F0001D3EC23F00001686F26
:10173800010E00010001616F000168510001F5EC24
:101748001CF08B9481500F0B816E0001000169071A
:1017580000010001696701D001D047D720D01FD010
:101768007C0E00010001676F6A0E0001666F0001C0
:10177800D3EC23F00BEC21F081B001D001D002D0E2
:1017880014D013D07C0E00010001676F440E0001D5
:10179800666F0001D3EC23F00BEC21F000D081B090
:1017A80001D001D0DDD701D000D081A001D001D077
:1017B800FCD700D00001686F020E00010001616FC4
:1017C8000001685100013BEC22F0000E226EC80EA9
:1017D800216E1FEC22F012000F0E00016E6F000147
:1017E80068C06FF0000169C070F000016AC071F054
:1017F80000016E290001726F05D00001D890713385
:1018080070336F330001722FF8D700016F51000158
:101818000001736F0001736701D001D00ED0000E74
:1018280000010001686F000E00010001696F000EE1
:10183800000100016A6FE4D0E3D00F0E00016E6F63
:1018480000016BC06FF000016CC070F000016DC04A
:1018580071F000016E290001726F05D00001D89067
:10186800713370336F330001722FF8D700016F5155
:1018780000010001786F0001786701D001D00ED017
:10188800000E00010001686F000E00010001696F81
:10189800000E000100016A6FB3D0B2D00001000150
:1018A80078517B0F0001000173276AC078F00001AE
:1018B8006D5100010001781B800E000100017817AE
:1018C80000010001698F000100016C8FFF0E00010B
:1018D80000016B17FF0E000100016C17000E0001DC
:1018E80000016D17000E00010001746F000E000169
:1018F8000001756F000E00010001766F00016E6F28
:10190800070E00010001776F00016E5100D0000141
:10191800000168A101D001D013D0000100016B5172
:10192800000100017427000100016C510001000151
:101938007523000100016D5100010001762300D0DC
:101948000001D89000016A3300016933000168334F
:101958000001D89000016B3700016C3700016D372A
:1019680000010001772FD3D700D000016E6F090E58
:1019780000010001776F00016E5100D000010001E5
:1019880068A101D001D013D0000100016B51000102
:1019980000017427000100016C510001000175234A
:1019A800000100016D5100010001762300D0000103
:1019B800D89000016A3300016933000168330001DF
:1019C800D8900001763300017533000174330001AB
:1019D8000001772FD3D700D074C060F075C061F0D4
:1019E80076C062F073C063F078C064F000011EEC4A
:1019F80014F060C068F061C069F062C06AF000D09D
:101A080012007D0E00010001676F660E0001666F0F
:101A18000001D3EC23F0070E226ED00E216E1FECCE
:101A280022F000016C6F050E00010001616F0001DA
:101A38006C5100013BEC22F0EDD0ECD01FD07E0EB3
:101A480000010001676F460E0001666F0001D3ECCC
:101A580023F00BEC21F081B001D001D002D014D0DA
:101A680013D07C0E00010001676F440E0001666F01
:101A78000001D3EC23F00BEC21F000D081B001D0B1
:101A880001D0DDD701D000D081A001D001D0FCD792
:101A980000D0BDEC23F0000E226E320E216E1FEC3A
:101AA80022F07E0E00010001676F930E0001666F41
:101AB8000001D3EC23F0000E00010001706F000E4E
:101AC80000016F6F000E000100016F5D010E000143
:101AD8007059D8A001D001D002D021D020D06FC039
:101AE80060F0000100016F51000800016C6F0001F7
:101AF8006C0500010001616F00016CEC20F0000131
:101B080000016F4B702B000E000100016F5D010E8C
:101B180000017059D8A001D001D0E1D700D0000150
:101B28006C6F010E00010001616F00016C51000132
:101B38003BEC22F07E0E00010001676F840E00016D
:101B4800666F0001D3EC23F0010E226EF40E216EB5
:101B58001FEC22F0000E00010001706F000E000162
:101B68006F6F000E000100016F5D010E00017059DA
:101B7800D8A001D001D002D03CD03BD000016FC02A
:101B88006CF0000170C06DF000016C1F6D1F6C4B94
:101B98006D2BFF0E00016C27000E6D236FC022F025
:101BA80001EC22F000016E6F00016E5100016C190A
:101BB8006D11D8B401D001D00CD07D0E0001000108
:101BC800696FE20E0001686F00013FEC1BF022D044
:101BD80021D0000100016F4B702B000E00010001A5
:101BE8006F5D010E00017059D8A001D001D0C6D791
:101BF80000D000016C6F020E00010001616F00014E
:101C08006C5100013BEC22F0000E226EC80E216ED2
:101C18001FEC22F012000F0E00016E6F000168C069
:101C28006FF0000169C070F000016AC071F0000136
:101C38006E290001726F05D00001D890713370339E
:101C48006F330001722FF8D700016F5100010001B6
:101C5800776F0001776701D001D00ED0000E000128
:101C68000001686F000E00010001696F000E00019D
:101C780000016A6FCAD0C9D00F0E00016E6F000153
:101C88006BC06FF000016CC070F000016DC071F0A6
:101C980000016E290001726F05D00001D8907133E0
:101CA80070336F330001722FF8D700016F510001B4
:101CB8000001786F0001786701D001D00ED0000EC6
:101CC80000010001686F000E00010001696F000E3D
:101CD800000100016A6F99D098D0000E0001000140
:101CE800746F000E00010001756F000E0001000105
:101CF800766F000100017851890F00010001775FBC
:101D08006AC078F000016D5100010001781B800E57
:101D180000010001781700010001698FFF0E000122
:101D280000016817FF0E000100016917000E00018D
:101D380000016A17000100016C8FFF0E000100010D
:101D48006B17FF0E000100016C17000E0001000167
:101D58006D1700016E6F180E00010001736F00010E
:101D68006E510001D89000017437000175370001E9
:101D78007637000100016B5100010001685D000128
:101D880000016C51000100016959000100016D5109
:101D9800000100016A59D8A001D001D015D0000176
:101DA80000016B5100010001685F000100016C51E6
:101DB80000010001695B000100016D510001000193
:101DC8006A5B0001000174810001D8900001683746
:101DD8000001693700016A3700010001732FC1D77C
:101DE80000D074C060F075C061F076C062F077C052
:101DF80063F078C064F000011EEC14F060C068F075
:101E080061C069F062C06AF000D0120020EEAEF046
:101E180010EE93F00A0EDECFE6FFE82EFCD78DC059
:101E280060F08EC061F0270E00010001636F100E94
:101E38000001626F00015AEC1DF0000160C09BF0C8
:101E4800000161C09CF08DC088F08EC089F0270E1B
:101E5800000100018B6F100E00018A6F0001A1ECD8
:101E68001FF0000188C099F0000189C09AF099C05C
:101E780088F09AC089F0030E000100018B6FE80E0C
:101E880000018A6F0001A1EC1FF0000188C097F0E3
:101E9800000189C098F099C060F09AC061F0030E03
:101EA80000010001636FE80E0001626F00015AEC47
:101EB8001DF0000160C099F0000161C09AF097C060
:101EC80088F098C089F0000E000100018B6F640E45
:101ED80000018A6F0001A1EC1FF0000188C095F095
:101EE800000189C096F097C060F098C061F0000EBC
:101EF80000010001636F640E0001626F00015AEC7B
:101F08001DF0000160C097F0000161C098F095C015
:101F180088F096C089F0000E000100018B6F0A0E50
:101F280000018A6F0001A1EC1FF0000188C093F046
:101F3800000189C094F095C060F096C061F0000E71
:101F480000010001636F0A0E0001626F00015AEC84
:101F58001DF0000160C095F0000161C096F0050E0B
:101F6800000100018C6501D001D009D000018F6FFC
:101F7800050E000100018C6F00018F5100D0000197
:101F880000018C6701D001D002D031D030D0D89078
:101F9800000100018C3500018F6F0001906B00017A
:101FA8009037FE0E00018F250001916FFF0E000192
:101FB80090210001926F0001930E00019125D96EC6
:101FC8000001000E00019221DA6EDF50300F00018F
:101FD8000001626F00016FEC23F0000100018C0723
:101FE800000100018C6701D001D0D1D700D01200C8
:101FF8000F0E00017D6F000179C07EF000017AC0EC
:102008007FF000017BC080F000017D290001816F15
:1020180005D00001D89080337F337E330001812FB3
:10202800F8D700017E5100010001876F0001876722
:1020380001D001D00FD0000E00010001796F000E11
:1020480000017A6F000E00017B6F000E00017C6FAB
:10205800C0D0BFD0170E00017D6F000179C07EF09F
:1020680000017AC07FF000017BC080F000017D296B
:102078000001816F05D00001D89080337F337E3313
:102088000001812FF8D700017E5100010001826F05
:10209800000100017A8FFF0E000100017917FF0E81
:1020A800000100017A17000E000100017B170001F2
:1020B8000001795100010001836F000100017A518C
:1020C8000001846F00017B510001856F0001866B60
:1020D8008E0E00010001875F0001000187AF01D06B
:1020E80001D029D0000100018751800A8F0FD8B094
:1020F80001D001D010D0000E00010001796F000E50
:1021080000017A6F000E00017B6F000E00017C6FEA
:1021180060D05FD000D00001D89000018633000164
:102128008533000184330001833300010001873FB8
:10213800F2D72ED02DD0170E00010001876501D0EF
:1021480001D01ED0000E00010001796F000E0001C1
:102158007A6F000E00017B6F000E00017C6F39D092
:1021680038D00ED00001D8900001833700018437A1
:10217800000185370001863700010001870700D07C
:1021880000010001876701D001D0ECD701D000D051
:10219800000100018251D8B401D001D011D0000152
:1021A8000001861F0001851F0001841F0001836D47
:1021B800000E00018423000185230001862300D03E
:1021C80083C079F084C07AF085C07BF086C07CF04B
:1021D80000D012007F0E00010001676F320E00016F
:1021E800666F0001D3EC23F0030E226EE80E216E19
:1021F8001FEC22F01FD07F0E00010001676F520E06
:102208000001666F0001D3EC23F00BEC21F081B0E4
:1022180001D001D002D014D013D07C0E00010001EF
:10222800676F440E0001666F0001D3EC23F00BECDE
:1022380021F000D081B001D001D0DDD701D000D08D
:1022480081A001D001D0FCD700D07F0E0001000191
:10225800676FDF0E0001666F0001D3EC23F0000EFC
:10226800000100016A6F640E0001696F0FD08D8450
:10227800000E226E8C0E216E87EC22F08D94000EDB
:10228800226E120E216E1FEC22F000D00001000118
:102298006907D8A06A0700016929D8B46A29D8A4AF
:1022A80001D001D0E4D700D07F0E00010001676F94
:1022B800F10E0001666F0001D3EC23F0000E00015F
:1022C80000016A6F640E0001696F0FD08D84000EE3
:1022D800226EC80E216E87EC22F08D94000E226EBD
:1022E800120E216E1FEC22F000D0000100016907D8
:1022F800D8A06A0700016929D8B46A29D8A401D0EE
:1023080001D0E4D700D07F0E00010001676FE60E10
:102318000001666F0001D3EC23F0000E00010001FC
:102328006A6F640E0001696F0FD08D84000E226EF3
:10233800370E216E87EC22F08D94000E226E130E5C
:10234800216E1FEC22F000D0000100016907D8A01F
:102358006A0700016929D8B46A29D8A401D001D034
:10236800E4D700D00001686F020E00010001616F20
:102378000001685100013BEC22F0120000016A6F75
:10238800000E000100016C6F00016A518B84010E80
:10239800226E2C0E216E1FEC22F08B948D90010E74
:1023A800226E2C0E216E1FEC22F08D8000016A6FC8
:1023B800640E00010001686F00016A51000159ECC8
:1023C8001FF08D92010E226E2C0E216E1FEC22F052
:1023D8008D8200016A6F640E00010001686F0001C0
:1023E8006A51000159EC1FF08D84010E226E2C0EEB
:1023F800216E1FEC22F08D948982010E226E2C0E24
:10240800216E1FEC22F089928984010E226E2C0E17
:10241800216E1FEC22F089948986010E226E2C0E03
:10242800216E1FEC22F08996898A010E226E2C0EED
:10243800216E1FEC22F0899A00016A6F040E0001D8
:1024480000016C6F00016A51080E000100016C6503
:1024580001D001D002D023D022D06CC06AF0010E86
:1024680000016B6F00016A2B03D00001D8906B3715
:1024780000016A2FFAD700016B518A6E010E226E95
:102488002C0E216E1FEC22F0000100016C2B080EAF
:10249800000100016C6501D001D0DFD700D0000138
:1024A8006A6F000E000100016C6F00016A51080E8E
:1024B800000100016C6501D001D002D022D021D0EA
:1024C8006CC06AF0010E00016B6F00016A2B03D02B
:1024D8000001D8906B3700016A2FFAD700016B51C1
:1024E8008C6E010E226E2C0E216E1FEC22F0000164
:1024F80000016C2B080E000100016C6501D001D0B1
:10250800DFD78B84000E226E320E216E1FEC22F074
:102518008B94120000019D6F020E000100019E6F56
:1025280000019D5100019D6F000E000100019F6F89
:1025380000019D517D0E00010001676F4E0E0001E4
:10254800666F0001D3EC23F0070E226ED00E216EC9
:102558001FEC22F000019D6F050E00010001616F64
:1025680000019D5100013BEC22F09DD09CD01FD072
:102578007E0E00010001676FCE0E0001666F00013C
:10258800D3EC23F00BEC21F081B001D001D002D0C4
:1025980014D013D07C0E00010001676F440E0001B7
:1025A800666F0001D3EC23F00BEC21F000D081B072
:1025B80001D001D0DDD701D000D081A001D001D059
:1025C800FCD700D0B1EC22F07C0E00010001676F4F
:1025D800B50E0001666F0001D3EC23F06FEC17F025
:1025E80000019D6F000E00010001686F00019D5100
:1025F8000001B0EC1BF03BD07FEC21F000010001A2
:102608009F6F000100019E51000100019F19D8B47D
:1026180001D001D02CD09FC09EF000019D6F4E0EBE
:1026280000010001626F00019D510001EDEC22F0F4
:1026380000019D6F020E000100018C6F00019D5189
:10264800000100019FC08DF0000100018E6B0001A8
:102658000AEC0FF000019D6F010E00010001616F8F
:1026680000019D5100013BEC22F001D000D081B265
:1026780001D001D0C1D701D000D081A201D001D0B2
:10268800FCD700D000019D6F020E00010001616FB0
:1026980000019D5100013BEC22F0000E226EC80E95
:1026A800216E1FEC22F012007D0E00010001676F01
:1026B8007E0E0001666F0001D3EC23F000016C6F01
:1026C800310E00010001626F00016C5100016FECD6
:1026D80023F000D081B001D001D0FCD781A201D075
:1026E80001D005D081B401D001D00DD000D07C0E2E
:1026F80000010001696F590E0001686F00013FEC8D
:102708001BF001D000D081A001D001D0FCD700D0AF
:1027180000016C6F010E00010001616F00016C5136
:1027280000013BEC22F000016C6F480E0001000133
:10273800626F00016C510001EDEC22F000016C6F3A
:10274800320E00010001626F00016C5100016FEC54
:1027580023F000D081B201D001D0FCD781A001D0F4
:1027680001D005D081B401D001D00DD000D07C0EAD
:1027780000010001696F590E0001686F00013FEC0C
:102788001BF001D000D081A201D001D0FCD700D02D
:1027980000016C6F010E00010001616F00016C51B6
:1027A80000013BEC22F000016C6F480E00010001B3
:1027B800626F00016C510001EDEC22F000016C6FBA
:1027C800330E00010001626F00016C5100016FECD3
:1027D80023F000D081B401D001D0FCD781A001D072
:1027E80001D005D081B201D001D00DD000D07C0E2F
:1027F80000010001696F590E0001686F00013FEC8C
:102808001BF001D000D081A401D001D0FCD700D0AA
:1028180000016C6F020E00010001616F00016C5134
:1028280000013BEC22F0000E226EC80E216E1FEC58
:1028380022F01200000100016351D8B401D001D088
:102848000CD000010001605100016111000162110A
:10285800D8A401D001D01CD000D0000E0001000186
:10286800606F000E00010001616F000E00010001A1
:10287800626FA5D0A4D00CD000010001632B000129
:10288800D89000016233000161330001603300D049
:10289800000E0001000160150001656F000E0001C7
:1028A800000161150001666FFE0E0001000162154E
:1028B8000001676F0001655166116711D8A401D046
:1028C80001D0DAD719D018D000010001632B010E0E
:1028D800000100016027000E000100016123000EC5
:1028E8000001000162230001D89000016233000159
:1028F80061330001603300D0000E00010001601553
:102908000001656F000E0001000161150001666F8E
:10291800FF0E0001000162150001676F000165519B
:1029280066116711D8A401D001D0CED70DD00CD034
:102938000001000163070001D89000016037000121
:1029480061370001623700D00001000161AF01D09A
:1029580001D0EED70001000163B101D001D004D04D
:1029680000010001619F00D00001D890633300018D
:10297800000163510001676F666B656B000165516B
:10298800000100016013000166510001000161139C
:102998000001675100010001621300010001645148
:1029A800D8B401D001D004D000010001628F00D05A
:1029B80060C060F061C061F062C062F000D01200D7
:1029C80000019D6F000E000100019E6F00019D51E6
:1029D8007F0E00010001676F7A0E0001666F00012B
:1029E800D3EC23F0030E226EE80E216E1FEC22F0CA
:1029F8007F0E00010001656F030E0001646F000186
:102A08000BEC1FF000019D6F640E00010001686F60
:102A180000019D51000159EC1FF0030E226EE80ED3
:102A2800216E1FEC22F07F0E00010001656FC30EBE
:102A38000001646F00010BEC1FF000019D6F000E98
:102A4800000100019E6F00019D51090E0001000167
:102A58009E6501D001D002D041D040D000010001D4
:102A68009E51090DF350090F00010001686F000124
:102A780059EC1FF000019D6F460E00010001626FC6
:102A880000019D510001EDEC22F000019D6F020E46
:102A9800000100018C6F00019D51000100019E5151
:102AA800090D090EF324000100018D6F000EF420BA
:102AB80000018E6F00010AEC0FF0030E226E200E4B
:102AC800216E1FEC22F0000100019E2B090E00016F
:102AD80000019E6501D001D0C1D700D0010E226E41
:102AE800F40E216E1FEC22F000019D6F640E0001B0
:102AF8000001686F00019D51000159EC1FF00001B1
:102B08009D6F020E00010001616F00019D510001DF
:102B18003BEC22F01200100E00010001626F270E3C
:102B28000001636F000E0001646F000E0001656F05
:102B3800226E000E396E2250C58000D0C5B001D07B
:102B480001D0FCD700D000010001605100016025D0
:102B5800FE0BC96E22EC23F0C5AC01D001D00ED01B
:102B6800C58400D0C5B401D001D0FCD700D0226EF6
:102B7800010E396E2250000E76D075D061C0C9FFA3
:102B880022EC23F0C5AC01D001D00ED0C58400D012
:102B9800C5B401D001D0FCD700D0226E010E396E29
:102BA8002250000E60D05FD0C58200D0C5B201D0DF
:102BB80001D0FCD700D0D880000100016035C96E73
:102BC80022EC23F0C5AC01D001D00ED0C58400D0D2
:102BD800C5B401D001D0FCD700D0226E010E396EE9
:102BE8002250000E40D03FD0C58621D00001000100
:102BF8006207000E0001635B0001645B0001655B16
:102C080000016551621163116411D8A401D001D08B
:102C18000ED0C58400D0C5B401D001D0FCD700D0F7
:102C2800226E010E396E2250000E1DD01CD0C7A096
:102C380001D001D0DBD7C9CF66F0C58AC58800D0DE
:102C4800C5B801D001D0FCD7C58400D0C5B401D027
:102C580001D0FCD700D0226E000E396E2250000140
:102C68000001665100D012007F0E00010001676F5D
:102C7800660E0001666F0001D3EC23F0030E226E8E
:102C8800E80E216E1FEC22F01FD07E0E000100011D
:102C9800676FC00E0001666F0001D3EC23F00BECE8
:102CA80021F081B001D001D002D014D013D07C0E15
:102CB80000010001676F440E0001666F0001D3EC4C
:102CC80023F00BEC21F000D081B001D001D0DDD78A
:102CD80001D000D081A001D001D0FCD700D000ECF9
:102CE80023F07D0E00010001676F030E0001666F7F
:102CF8000001D3EC23F07D0E00010001616F950EF9
:102D08000001606F0001C3EC21F07D0E000100019D
:102D1800616F360E0001606F0001C3EC21F07D0E7B
:102D280000010001616FC00E0001606F0001C3EC7B
:102D380021F032EC23F000010001696F69C021F035
:102D4800F7EC23F00001000169510D0AD8B401D055
:102D580001D00AD00001000169510A0AD8A401D0A3
:102D680001D0E7D701D000D07E0E00010001616FCD
:102D7800660E0001606F0001C3EC21F00001686F6E
:102D8800020E00010001616F0001685100013BEC77
:102D980022F0000E226EC80E216E1FEC22F01200E7
:102DA8009598958A958C958C8C988C8A8C8C8C8E21
:102DB8003C0EE82EFED781B001D001D003D0010E21
:102DC80089D088D081B201D001D003D0020E82D040
:102DD80081D081B401D001D003D0030E7BD07AD04A
:102DE80081B601D001D003D00A0E74D073D0958873
:102DF800959A8C888C9A3C0EE82EFED781B001D02B
:102E080001D003D0040E66D065D081B201D001D0C4
:102E180003D0050E5FD05ED081B401D001D003D0BD
:102E2800060E58D057D081B601D001D003D00B0E72
:102E380051D050D0958A959C8C8A8C9C3C0EE82E5B
:102E4800FED781B001D001D003D0070E43D042D0C5
:102E580081B201D001D003D0080E3CD03BD081B460
:102E680001D001D003D0090E35D034D081B601D0BD
:102E780001D003D00C0E2ED02DD0958C959C8C8C27
:102E88008C9E3C0EE82EFED781B001D001D003D035
:102E98000E0E20D01FD081B201D001D003D0000E79
:102EA80019D018D081B401D001D003D00F0E12D0A0
:102EB80011D081B601D001D003D00D0E0BD00AD0AD
:102EC8009598959A959C959C8C988C9A8C9C8C9EA0
:102ED800FF0E00D012000001676F680E00010001AC
:102EE800606F000167510001686F000E000100016A
:102EF800616F0001685100018FEC15F000010001BD
:102F08006B6F000100016BAF01D001D047D0000109
:102F1800676F680E00010001606F000167510001D2
:102F2800686F000E00010001616F00016851000127
:102F380000016B517F0B00010001626F0001B8ECCA
:102F48001DF0000E000100016A6F000E0001696F9C
:102F5800140E00010001695D000E00016A59D8A035
:102F680001D001D002D01AD019D09C0E0001676F91
:102F7800D70EE82EFED7672FFCD700010001694B5A
:102F88006A2B140E00010001695D000E00016A59E8
:102F9800D8A001D001D0E9D701D000D00001676FD7
:102FA800680E00010001606F000167510001686F41
:102FB800020E00010001616F0001685100018FECF1
:102FC80015F0000100016B6F000100016BAD01D02D
:102FD80001D01BD00001676F680E00010001606F0F
:102FE800000167510001686F020E00010001616F66
:102FF80000016851000100016B51BF0B0001000185
:10300800626F0001B8EC1DF000D01200216E000EB6
:1030180000010001656F21500001000163AF01D07C
:1030280001D00ED000010001626D0001631FD8B00D
:10303800632B216E010E00010001656F215000D045
:103048000001000161AF01D001D00CD000010001E6
:10305800606D0001611FD8B0612B010E00010001F5
:10306800651B00D0000E00010001676F000E000113
:10307800666F0001000163516211D8B401D001D01C
:103088004BD0216E010E00010001646F21500AD05F
:10309800000100010001D890623763370001000188
:1030A800642B00D00001000163AF01D001D0F0D73C
:1030B80001D000D0000100010001D89066376737C1
:1030C80000010001625100010001605D0001000182
:1030D8006351000100016159D8A001D001D010D07E
:1030E80000010001625100010001605F0001000160
:1030F800635100010001615B00010001668100D09D
:10310800000100010001D89063336233000100011F
:10311800642FD0D701D000D0000100016551D8B488
:1031280001D001D008D000010001666D0001671FC1
:10313800D8B0672B00D066C060F067C061F000D0DF
:10314800120000016C6F000E000100016E6F00019B
:103158006C517C0E00010001676FCF0E0001666F95
:103168000001D3EC23F05AD000016C6F4E0E000121
:103178000001626F00016C510001EDEC22F00001CA
:1031880000016E51010D230EF324D96E000EF420B8
:10319800DA6EDF5000010001626F00016FEC23F06E
:1031A80056EC22F000010001606F00016BEC1EF08C
:1031B800000100016D6F00016C6F010E000100013C
:1031C800616F00016C5100013BEC22F0000E226E91
:1031D800320E216E1FEC22F0000100016E51010D2C
:1031E800230EF324D96E000EF420DA6EDF500001AE
:1031F80000016D19D8B401D001D00CD07D0E0001AA
:103208000001696FAB0E0001686F00013FEC1BF015
:1032180026D025D0000100016E2B00D0000100014E
:103228006E51010D230EF324D96E000EF420DA6ED0
:10323800DF50D8A401D001D097D700D000016C6F1F
:10324800020E00010001616F00016C5100013BECAE
:1032580022F0000E226EC80E216E1FEC22F0120022
:10326800000E00010001686F000E0001696F000E7A
:1032780000016A6F000E00016B6F000100016751C9
:10328800641165116611D8B401D001D06ED0216ED9
:10329800010E000100016C6F21500ED00001D89082
:1032A80000016437000165370001663700016737A0
:1032B800000100016C2B00D00001000167AF01D0B4
:1032C80001D0ECD701D000D00001D89000016837B8
:1032D8000001693700016A3700016B3700010001FE
:1032E800645100010001605D0001000165510001A9
:1032F8000001615900010001665100010001625995
:10330800000100016751000100016359D8A001D0F4
:1033180001D01CD000010001645100010001605F70
:1033280000010001655100010001615B000100011D
:10333800665100010001625B000100016751000154
:103348000001635B00010001688100D00001D89092
:1033580000016733000166330001653300016433FF
:10336800000100016C2FB0D700D068C060F069C0C0
:1033780061F06AC062F06BC063F01200216E000E4B
:1033880000010001656F21500001000161AF01D00B
:1033980001D00ED000010001606D0001611FD8B09E
:1033A800612B216E010E00010001656F215000D0D4
:1033B8000001000163AF01D001D008D00001000175
:1033C800626D0001631FD8B0632B00D000010001BB
:1033D80063516211D8B401D001D042D0216E010EE0
:1033E80000010001646F21500AD0000100010001B2
:1033F800D8906237633700010001642B00D00001C8
:10340800000163AF01D001D0F0D701D000D0000196
:103418000001625100010001605D0001000163517B
:10342800000100016159D8A001D001D00DD00001E0
:103438000001625100010001605F00010001635159
:1034480000010001615B00D0000100010001D8907B
:103458006333623300010001642FD9D701D000D053
:10346800000100016551D8B401D001D008D0000195
:103478000001606D0001611FD8B0612B00D060C0F1
:1034880060F061C061F000D012000001000162AF7D
:1034980001D001D022D0000160C066F0000161C0F7
:1034A80067F0000162C068F00001661F671F681FAF
:1034B800662B000E67236823000E000166250001B5
:1034C8000001606F000E000167210001616F800E2E
:1034D800000168210001626F00D00001000165AFA2
:1034E80001D001D022D0000163C066F0000164C0A1
:1034F80067F0000165C068F00001661F671F681F5C
:10350800662B000E67236823000E00016625000164
:103518000001636F000E000167210001646F800ED7
:10352800000168210001656F00D0000E0001000154
:10353800601B000E00010001611B800E00010001EC
:10354800621B000E00010001631B000E0001000158
:10355800641B800E00010001651B0001000163511E
:1035680000010001605D00010001645100010001DB
:103578006159000100016551000100016259D8B08C
:1035880001D001D002D0D89003D0D88001D000D08B
:10359800120000016A6F020E000100016B6F00014A
:1035A8006A5100016A6F000E000100016C6F000192
:1035B8006A5112EC23F07C0E00010001676F9A0E2D
:1035C8000001666F0001D3EC23F000016A6F000E62
:1035D800216E00016A51FFEC23F023D01CEC24F08B
:1035E800000100016C6F000100016B510001000136
:1035F8006C19D8B401D001D014D06CC06BF06CC079
:1036080068F0000159EC1FF000016A6F010E00011B
:103618000001616F00016A5100013BEC22F001D00A
:1036280000D081B201D001D0D9D701D000D081A279
:1036380001D001D0FCD700D000016A6F640E0001F0
:103648000001686F00016A51000159EC1FF09D905C
:10365800CD9000016A6F020E00010001616F000148
:103668006A5100013BEC22F0000E226EC80E216E5A
:103678001FEC22F0120068C066F069C067F0000114
:10368800D3EC23F000016A6F000E000100016B6F9C
:1036980000016A51130E000100016B6501D001D0D1
:1036A80002D035D034D08B749C0E00016A6FD70ECF
:1036B800E82EFED76A2FFCD79C0E00016A6FD70E42
:1036C800E82EFED76A2FFCD79C0E00016A6FD70E32
:1036D800E82EFED76A2FFCD79C0E00016A6FD70E22
:1036E800E82EFED76A2FFCD79C0E00016A6FD70E12
:1036F800E82EFED76A2FFCD7000100016B2B130EB2
:10370800000100016B6501D001D0CDD700D00001C8
:103718006A6F000E000100016B6F00016A51C70E4D
:10372800000100016B6501D001D002D014D013D084
:103738009C0E00016A6FD70EE82EFED76A2FFCD7C1
:10374800000100016B2BC70E000100016B6501D061
:1037580001D0EED700D012003C0E000100016861D4
:1037680001D001D066D00001000168C060F00001FE
:103778000001616B000E00010001636F0A0E000179
:10378800626F0001C2EC19F060C069F061C06AF0B4
:103798000001000168C060F000010001616B000ECB
:1037A80000010001636F0A0E0001626F00010AEC5C
:1037B80018F0000100016039F00B000169250001D3
:1037C8000001686F0001696F680E00010001606FF9
:1037D8000001695100016A6F000E00010001616F6C
:1037E80000016A5100018FEC15F0000100016B6FB8
:1037F800800E000100016B170001696F680E00015F
:103808000001606F0001695100016A6F000E00013C
:103818000001616F00016A51000100016B51000154
:103828000001681100010001626F0001B8EC1DF091
:1038380000D0120000010001675164116511661182
:10384800D8B401D001D05BD0216E010E226E215078
:103858000CD00001D89000016437000165370001E1
:10386800663700016737222A00D00001000167AFE0
:1038780001D001D0EED701D000D000010001645181
:1038880000010001605D00010001655100010001B7
:1038980061590001000166510001000162590001EF
:1038A80000016751000100016359D8A001D001D07F
:1038B80019D000010001645100010001605F00019E
:1038C8000001655100010001615B000100016651C2
:1038D80000010001625B0001000167510001000165
:1038E800635B00D00001D8900001673300016633A4
:1038F8000001653300016433222EBFD700D060C0B9
:1039080060F061C061F062C062F063C063F01200F1
:103918007F0E00010001676F3D0E0001666F000118
:10392800D3EC23F0030E226EE80E216E1FEC22F07A
:103938001FD07F0E00010001676F840E0001666FC3
:103948000001D3EC23F00BEC21F081B001D001D0C1
:1039580002D014D013D07C0E00010001676F440E12
:103968000001666F0001D3EC23F00BEC21F000D0CE
:1039780081B001D001D0DDD701D000D081A001D025
:1039880001D0FCD700D07F0E00010001676F970EB1
:103998000001666F0001D3EC23F0898A030E226EC2
:1039A800E80E216E1FEC22F07F0E00010001676F08
:1039B800480E0001666F0001D3EC23F0899A030ECC
:1039C800226EE80E216E1FEC22F00001686F020ED5
:1039D80000010001616F0001685100013BEC22F019
:1039E8001200000E00010001646FC00E0001636F39
:1039F8004ED000010001616701D001D00FD0040E44
:103A0800346001D001D002D0342A2CD00001626F7A
:103A1800010E346E0001625125D024D0010E3464A9
:103A280001D001D002D034061DD00001626F040E0F
:103A3800346E0001625116D015D014D081500F0B8E
:103A48008009816E1DD081500F0B2009816E18D01E
:103A580081500F0B4009816E13D081500F0B100954
:103A6800816E0ED03450010AD8B4E8D7030AD8B40E
:103A7800EAD7010AD8B4ECD7070AD8B4EED700D0F1
:103A8800000E226E1E0E216E1FEC22F000D00001E7
:103A980000016307D8A0640700016329D8B464292A
:103AA800D8A401D001D0A5D700D01200000E000183
:103AB8000001666F000E0001656F0001000163518F
:103AC8006211D8B401D001D04AD0216E010E000194
:103AD8000001646F21500AD0000100010001D89054
:103AE8006237633700010001642B00D00001000138
:103AF80063AF01D001D0F0D701D000D000010001A0
:103B08000001D89065376637000100016251000155
:103B18000001605D0001000163510001000161596D
:103B2800D8A001D001D010D00001000162510001DD
:103B38000001605F00010001635100010001615B49
:103B480000010001658100D0000100010001D8904A
:103B58006333623300010001642FD0D700D065C001
:103B680060F066C061F01200226E000E396E2250BD
:103B7800C58000D0C5B001D001D0FCD700D000016D
:103B88000001605100016025FE0BC96E22EC23F094
:103B9800C5AC01D001D00DD0C58400D0C5B401D0CA
:103BA80001D0FCD700D0226E010E396E225036D0DB
:103BB80035D061C0C9FF22EC23F0C5AC01D001D0DB
:103BC8000DD0C58400D0C5B401D001D0FCD700D039
:103BD800226E010E396E225021D020D062C0C9FF5A
:103BE80022EC23F0C5AC01D001D00DD0C58400D0A3
:103BF800C5B401D001D0FCD700D0226E010E396EB9
:103C080022500CD00BD0C58400D0C5B401D001D04F
:103C1800FCD700D0226E000E396E2250120000012F
:103C2800646F010E216E0001645106EC24F0EA0E67
:103C38000001646FC30EE82EFED7642FFCD7000185
:103C4800646F000E00010001606F00016451000103
:103C5800656F380E00010001616F000165510001B8
:103C6800DAEC20F00001646F020E3B6E0001645133
:103C78000001646F000E00010001606F00016451D3
:103C88003B50040900010001616F0001DAEC20F0EB
:103C98000001646F040E3A6E000164510001646F04
:103CA800000E00010001606F000164513A500809DC
:103CB80000010001616F0001DAEC20F00001646F7F
:103CC8000C0E3C6E00016451C5EC22F012000A0E85
:103CD80000010001606101D001D006D0000100019F
:103CE8006051300F45D044D00001000160510A0AEC
:103CF800D8A401D001D003D0410E3AD039D0000168
:103D0800000160510B0AD8A401D001D003D0420EA3
:103D18002FD02ED00001000160510C0AD8A401D088
:103D280001D003D0430E24D023D0000100016051FC
:103D38000D0AD8A401D001D003D0440E19D018D050
:103D48000001000160510E0AD8A401D001D003D0AF
:103D58002A0E0ED00DD00001000160510F0AD8A420
:103D680001D001D003D0230E03D002D0000E00D022
:103D780012000001666F000E00010001676F00016C
:103D880066519DEC22F015D000010001672B00015F
:103D980064C0F6FF000165C0F7FF08000001F5CF19
:103DA80062F000016FEC23F000010001644B652B09
:103DB80000D0000164C0F6FF000165C0F7FF0800ED
:103DC800F5500009D8A401D001D0DED700D00F0EDD
:103DD80000010001676501D001D002D017D016D0CC
:103DE8000001666F200E00010001626F000166513C
:103DF80000016FEC23F000010001672B0F0E00019A
:103E08000001676501D001D0EBD700D01200000196
:103E1800666F000E00010001676F00016651D9EC62
:103E280022F015D000010001672B000164C0F6FFE5
:103E3800000165C0F7FF08000001F5CF62F000013E
:103E48006FEC23F000010001644B652B00D00001EA
:103E580064C0F6FF000165C0F7FF0800F5500009CF
:103E6800D8A401D001D0DED700D00F0E0001000188
:103E7800676501D001D002D017D016D00001666F57
:103E8800200E00010001626F0001665100016FEC15
:103E980023F000010001672B0F0E00010001676588
:103EA80001D001D0EBD700D01200630E0001000151
:103EB800686501D001D011D00001696F0A0E226E29
:103EC8000001695197EC23F00001696F0A0E226E18
:103ED80000016951A4EC23F02FD00001000168C053
:103EE80060F000010001616B000E00010001636FCA
:103EF8000A0E0001626F0001C2EC19F00001000116
:103F08006051226E97EC23F00001000168C060F058
:103F180000010001616B000E00010001636F0A0ED1
:103F28000001626F00010AEC18F000010001605105
:103F3800226EA4EC23F000D01200000100018B5186
:103F48008A11D8B401D001D03BD0216E010E226E67
:103F5800215008D0000100010001D8908A378B3722
:103F6800222A00D0000100018BAF01D001D0F2D786
:103F780001D000D0000100018A5100010001885DD4
:103F8800000100018B51000100018959D8A001D01E
:103F980001D00DD0000100018A5100010001885FA5
:103FA800000100018B5100010001895B00D0000174
:103FB80000010001D8908B338A33222EDBD700D042
:103FC80088C088F089C089F012000600EACF16F090
:103FD800E1CF17F0E2CF18F0D9CF19F0DACF1AF005
:103FE800F3CF1BF0F4CF1CF0F6CF1DF0F7CF1EF087
:103FF800F8CF1FF0F5CF20F09EA001D001D003D05C
:104008005AEC21F000D0F2A401D001D003D026EC64
:1040180024F000D020C0F5FF1FC0F8FF1EC0F7FF36
:104028001DC0F6FF1CC0F4FF1BC0F3FF1AC0DAFF67
:1040380019C0D9FF18C0E2FF17C0E1FF16C0EAFF98
:1040480015C0E9FF14C0FBFF13C0FAFF110031D0FF
:10405800000164C0F6FF000165C0F7FF0800F550D5
:104068000A0AD8B401D001D00ED0000164C0F6FF0E
:10407800000165C0F7FF0800F5500D0AD8A401D06B
:1040880001D004D000D0D9EC22F00ED0000164C0D9
:10409800F6FF000165C0F7FF08000001F5CF62F0E8
:1040A80000016FEC23F000D000010001644B652B88
:1040B80000D0000164C0F6FF000165C0F7FF0800EA
:1040C800F5500009D8A401D001D0C2D700D0120001
:1040D800899A226E060E216E2250C8EC23F0898A36
:1040E800280EE82EFED7899A226E020E216E2250E3
:1040F800C8EC23F060C021F0C8EC23F061C021F0C7
:10410800C8EC23F0898A280EE82EFED700D0899AB9
:10411800226E050E216E2250C8EC23F0226EFF0E8F
:10412800216E2250C8EC23F000010001626F898AD9
:10413800010E00010001621700010001626701D051
:1041480001D0E5D700D012007E0E00010001676F94
:10415800150E0001666F0001D3EC23F0030E226EEA
:10416800E80E216E1FEC22F07E0E00010001676F41
:10417800360E0001666F0001D3EC23F000D081B643
:1041880001D001D0FCD701D000D081A601D001D048
:10419800FCD700D00001686F020E00010001616FBA
:1041A8000001685100013BEC22F0120060C021F0D0
:1041B8000CEC24F061C021F01FEC24F0226E010EFB
:1041C800216E225006EC24F0100E226E940EE82E7A
:1041D800FED7222EFCD700F0226E000E216E225050
:1041E80006EC24F0200E226E290EE82EFED7222E91
:1041F800FCD700D0226E000E216E22500CEC24F069
:10420800226E000E216E22501FEC24F012000001D5
:10421800616F000E00010001626F00016151C70E5D
:1042280000010001626501D001D002D018D017D07A
:1042380081B001D001D002D012D011D0000E226E70
:104248000A0E216E1FEC22F000010001622BC70E3E
:1042580000010001626501D001D0EAD700D0120048
:104268000001000168C060F00001000169C061F050
:1042780000010001626B00016B6F8E0E00010001EE
:10428800636F00016B5100016C6F000E00010001AB
:10429800646F00016C5100011EEC14F060C068F0FE
:1042A80061C069F062C06AF000D012009E90800E72
:1042B800CF6E3F2A3B0E3F6401D001D006D03E2A84
:1042C800126E000E3F6E125000D03B0E3E6401D0BD
:1042D80001D006D03D2A126E000E3E6E125000D05C
:1042E800170E3D6401D001D005D0126E000E3D6E50
:1042F800125000D012000001676F680E0001000123
:10430800606F000167510001686F000E0001000135
:10431800616F0001685100018FEC15F00001000188
:10432800696F0001000169390F0B070B0A0D0001C5
:10433800000169510F0BF32400D0120000EEAEF01B
:10434800100EEE6AE806FDE100EE35F00B0EEE6A9F
:10435800E806FDE1BA0EF66E470EF76E000EF86E2F
:1043680000EE23F010EE12F00900F5CFEEFFE55055
:10437800E150FAE1000EF86E000153EF00F010D0A2
:10438800000160C0F6FF000161C0F7FF0800F5CF2B
:1043980021F0F7EC23F000010001604B612B00D005
:1043A800000160C0F6FF000161C0F7FF0800F5508A
:1043B8000009D8A401D001D0E3D700D0120021C051
:1043C80060F00001603BF00E6017300E00016017CE
:1043D800BD50CF0B00016011BD6E21C060F022C03E
:1043E80061F00001D890613360330001D8906133E7
:1043F800603300016051BE6E1200899A0001606F3F
:10440800030E216E00016051C8EC23F022C021F098
:10441800C8EC23F00001606FFF0E216E00016051AF
:10442800C8EC23F000010001616F898A00010001D6
:10443800615100D0120022502110D8A401D001D01F
:1044480002D014D013D0100E0001606F940EE82E25
:10445800FED7602FFCD700F02106D8A022062250F4
:104468002110D8A401D001D0EED700D012000FD06F
:104478008B84000E226E320E216E1FEC22F08B947C
:10448800000E226E320E216E1FEC22F000D00001C9
:104498000001610700016129D8A401D001D0E8D743
:1044A80000D01200226800D0D4EC16F0226E222828
:1044B800D8B401D001D0F8D702D001D000D0D4ECC4
:1044C80016F0216E2128D8A401D001D0F8D700D049
:1044D800225000D012008D844E0E216EEB0EE82E75
:1044E800FED7212EFCD78D94EA0E216EC30EE82E3E
:1044F800FED7212EFCD7EA0E216EC30EE82EFED77A
:10450800212EFCD7120022502110D8A401D001D0AE
:1045180002D00ED00DD0280EE82EFED72106D8A046
:10452800220622502110D8A401D001D0F4D700D0FF
:1045380012000001626F000E00010001606F0001AF
:1045480062510001636F020E00010001616F0001FA
:1045580063510001DAEC20F01200938093821D0E63
:10456800C86EC79EC686C694C692C690C69EC69C8E
:10457800C68AC58400D0C5B401D001D0FCD700D00C
:1045880012000001626F000E00010001606F00015F
:1045980062510001636F010E00010001616F0001AB
:1045A80063510001DAEC20F012000001626F000E86
:1045B80000010001606F000162510001636FC00ECD
:1045C80000010001616F000163510001DAEC20F085
:1045D80012000001636F000E00010001606F00010E
:1045E8006351000100016251800900010001616FFF
:1045F8000001DAEC20F01200216E000E226E21502C
:10460800AC94B886010EB06E370EAF6EAB8EAB8829
:10461800AC8AAECF22F0AECF22F01200CD9E800E33
:10462800CF6E000ECE6ECD86CD82CD9ACD98CD942C
:104638009E909D80F28CF28ECD80120001D000D029
:10464800C730E832010B216EC5501F0B211000093D
:10465800D8A401D001D0F4D700D01200ABA201D069
:1046680001D004D0AB98AB8801D000D09EAA01D06D
:1046780001D0FCD700D0AE5000D01200C19AC1982A
:10468800C186C184C182C190C08EC084C082C090DE
:10469800C08AC098C086C29012008D928D908C50AE
:1046A800F00B0A098C6E080EE82EFED78D828D80DD
:1046B8008C50F00B8C6E1200C29AC298C296C294AB
:1046C800C28200D0C2B201D001D0FCD7C3CF21F042
:1046D800C4CF22F012000001636F010E0001000137
:1046E800606F0001635162C061F00001DAEC20F0F4
:1046F8001200BD9EBD9CCB68CA82CA90BD86BD848F
:10470800BD98BD9A000EBE6ECA841200D59CD58A8B
:10471800D588D586000ED76E000ED66EF294F28A32
:10472800F28ED58E12008D928C50F00B22108C6E6A
:10473800080EE82EFED78D828C50F00B8C6E12007E
:104748008D908C50F00B22108C6E080EE82EFED740
:104758008D808C50F00B8C6E1200BD96BD94BD926E
:10476800BD90BD98BD9A000EBE6E000ECB6ECA9469
:104778001200898AC79EC78CC698C696C694C692E8
:10478800C690C69EC68A120021C0C9FF00D0C7A025
:1047980001D001D0FCD700D0C95000D01200C5EC20
:1047A80022F066C064F067C065F000012BEC20F0D1
:1047B80012003132334134353642373839432A30E2
:1047C8002344000160C021F0F7EC23F061C021F020
:1047D800F7EC23F0120022C021F0F7EC23F032ECC2
:1047E80023F000D0120000D09EA801D001D0FCD741
:1047F80021C0ADFF120021C03FF0000ECE6E800E2A
:10480800CF6E1200216602D0899601D089861200E7
:10481800216602D0899401D089841200D6CF21F074
:10482800D7CF22F01200000ED76E21C0D6FF12009B
:104838003F5000D0120021C08CFF1200C28012002D
:08484800C2901200F29412006C
:107BEE0050544B343041205465737420436F646598
:107BFE000A20202056312E31204A756C3132002059
:107C0E0020437974726F6E20546563680A2063791D
:107C1E0074726F6E2E636F6D2E6D79002020202092
:107C2E002050544B3430410A2020205049433138E3
:107C3E0046343535300050726573732053573120FA
:107C4E007768656E0A7265616479004F7468657253
:107C5E0020535773206973204C6F77004A50313090
:107C6E0020746F2042555A5A4552004A50323026DF
:107C7E0032313D535445505045520A4A5032332604
:107C8E0032343D554E49504F4C4152005465737439
:107C9E002054696D65722031205254430A53573275
:107CAE002D3E4578697400493243204453313330B8
:107CBE00370A5357322D3E45786974205345433A5F
:107CCE000054657374204B65797061640A506C655D
:107CDE006173652070726573733A004A50323026B4
:107CEE0032313D4443204D4F544F520A4A503130A9
:107CFE003D50574D00454E544552206F6E0A6B65F0
:107D0E0079626F61726420746F20657869740041C6
:107D1E004E3A202020202020563A0A5357322D3E2C
:107D2E004578697420543A00507265737320616E01
:107D3E0079206B657920746F206563686F0D0A007A
:107D4E00313846343535302043616E6E6F740A54C7
:107D5E00657374204932430031384634353530204E
:107D6E0043616E6E6F740A546573742053504900EC
:107D7E00546573742053776974636865730A50721F
:107D8E00657373205357000D0A0A50544B3430411B
:107D9E00205465737420554152540D0A0045727279
:107DAE006F723A0A496E636F7272656374204B6527
:107DBE007900454E54455220746F20657869740DD4
:107DCE000A0A00436F6E6E65637420534B50532B3B
:107DDE005053320053504920454550524F4D204587
:107DEE0072726F7200373A2053746570706572202C
:107DFE004D6F746F7200312D2D2020322B2B2020D1
:107E0E00333D546573740054657374204578742043
:107E1E00442E496E7075740031303A2054696D6588
:107E2E007220312052544300416374697661746547
:107E3E000A457874204449004A50332C352C362C90
:107E4E0037203D20535049004A5032332632343DBC
:107E5E004249504F4C4152000D0A0A54657374202A
:107E6E00446F6E650D0A0031313A2053504920455A
:107E7E004550524F4D0052656164696E672045450D
:107E8E0050524F4D0057726974696E6720454550C8
:107E9E00524F4D00383A20536572766F204D6F74F5
:107EAE006F7200323A20457874204420496E707506
:107EBE007400436F6E6E656374205543303041001D
:107ECE004A503320262035203D2049324300546548
:107EDE007374204443204D6F746F72005465737435
:107EEE0020537465707065720031323A2049324306
:107EFE002052544300377365673A20426C616E6BB3
:107F0E0000313A205465737420416C6C00363A206F
:107F1E004443204D6F746F72004A50393D534B2DC0
:107F2E00525354005465737420536572766F005427
:107F3E006573742052656C61790052656C617920AD
:107F4E004F4646004A50393D534552564F005465F0
:107F5E00737420534B505300546573742055415223
:107F6E005400333A204B6579706164005465737424
:107F7E002037736567004A50373D52656C61790052
:107F8E0054657374204144430052656C6179204FEF
:107F9E004E0031343A20534B50530031333A205572
:107FAE0041525400353A2052656C617900343A20C2
:107FBE003773656700377365673A200043570A4584
:107FCE00433A00393A204144430042757A204F6EBD
:107FDE000043656E7465720052696768740050578D
:107FEE004D3A004C656674004F76657200434357F8
:027FFE00000081
:020000040030CA
:0800000024CE381EFF8381FFAE
:02000A000FA045
:00000001FF
