:060000000A128A11122809
:10000800FE00030EF6000408F7000A08F800831241
:1000180003137F08F9000A128A11D32B0A128A11D6
:10002800462C83120313B8002E3084004030AA00F7
:100038000408AB000A30AC002A08840083130008C7
:10004800AD00AA0A2B0884002D088000AB0AAC0B6F
:1000580020281030A0002730A1002908A301A307F9
:100068002808A201A2070A128A11F1210A128A118C
:10007800831203132108B701B7072008B601B60792
:100088001030A0002730A1002908A301A3072808E1
:10009800A201A2070A128A1188220A128A1183125F
:1000A80003132108B501B5072008B401B407E830E7
:1000B800A0000330A1003508A301A3073408A2015A
:1000C800A2070A128A1188220A128A1183120313BC
:1000D8002108B301B3072008B201B207E830A00035
:1000E8000330A1003508A301A3073408A201A20721
:1000F8000A128A11F1210A128A11831203132108A4
:10010800B501B5072008B401B4076430A000003079
:10011800A1003308A301A3073208A201A2070A120B
:100128008A1188220A128A11831203132108B10145
:10013800B1072008B001B0076430A0000030A1006A
:100148003308A301A3073208A201A2070A128A11E1
:10015800F1210A128A11831203132108B301B3078C
:100168002008B201B2070A30A0000030A10031080F
:10017800A301A3073008A201A2070A128A11882244
:100188000A128A11831203132108AF01AF0720084E
:10019800AE01AE070A30A0000030A1003108A3016B
:1001A800A3073008A201A2070A128A11F1210A1234
:1001B8008A11831203132108B101B1072008B00185
:1001C800B00706303802031CEA28EB28F02805306F
:1001D800AA002A08B800F028B808031DF428F52852
:1001E800F7280F290F293808AA002A07FE3E2E3EB5
:1001F800840083130008303E0A128A11BC240A12B4
:100208008A11013083120313B802B808031D0D299F
:100218000E29F7280F29080083120313BC01BD011A
:10022800BE01BF018501860187018801890111305E
:100238008316031385000F308600933087008801EA
:1002480089010A128A110D230A128A110A128A11C7
:100258005A240A128A110A128A118E240A128A1141
:100268000A128A117D240A128A110A128A116C2430
:100278000A128A118312031385140A128A111B2584
:100288000A128A11831203130616861206300A12FE
:100298008A11AD240A128A1101300A128A114122E8
:1002A8000A128A1146300A128A11AD240A128A11DA
:1002B80006300A128A1141220A128A1100300A12E3
:1002C8008A110A250A128A11003083120313A0002A
:1002D8000030A1000A128A11FF240A128A11742917
:1002E8000A128A1148230A128A1183120313210859
:1002F800BD01BD072008BC01BC073D08A101A1073D
:100308003C08A001A0070A128A11F4230A128A11D4
:100318000A128A111F250A128A1183120313B900BF
:100328003908BE003E080A3A031D9B299C297429F6
:100338000A128A112D240A128A1183120313210822
:10034800A701A7072008A601A6070630A8000030C5
:10035800A9000A128A117D230A128A118312031333
:100368002608B9002708BA0003300310BA0CB90CE4
:10037800FF3E031DB9293908BB003B08BF004630C2
:100388000A128A11AD240A128A11831203133F0834
:10039800B900BA013908A8003A08A90003300A12BE
:1003A8008A1115200A128A11003083120313A00043
:1003B8000030A1000A128A11FF240A128A110030A3
:1003C8000A128A110A250A128A11742974297429B1
:1003D800ED29ED290A128A11122883120313A601A6
:1003E800A701210820040319FA29FB29392AA501A4
:1003F8000314A50D0B2A01300310A00DA10DFF3E1B
:10040800031D002A0130A4002408A5070B2AA11FF8
:100418000E2A0F2AFF29112A112A01300310A60DCE
:10042800A70DFF3E031D122A21082302031D1E2AC1
:1004380020082202031C212A222A2A2A2008A20292
:100448002108031CA303A30226142A2A013003103F
:10045800A10CA00CFF3E031D2B2A0130A502031D91
:10046800362A372A112A392A392A2708A101A10749
:100478002608A001A007402A080083120313A80039
:100488007A2A280884000A128A119E240A128A11DC
:100498000A3A0319502A512A5E2A280884000A12A7
:1004A8008A119E240A128A110D3A031D5C2A5D2ABC
:1004B800642A5E2A0A128A11E6240A128A11732A09
:1004C80083120313280884000A128A119E240A1230
:1004D8008A110A128A11BC240A128A11732A01305D
:1004E80083120313A7002708A8077A2A280884007C
:1004F8000A128A119E240A128A110038031D852ABD
:10050800862A452A872A0800831203132108200413
:1005180003198F2A902AC62AA5010314A50DA02A1B
:1005280001300310A00DA10DFF3E031D952A0130D7
:10053800A4002408A507A02AA11FA32AA42A942A54
:10054800A62AA62A21082302031DAC2A2008220273
:10055800031CAF2AB02AB72A2008A2022108031CCC
:10056800A303A302B72A01300310A10CA00CFF3E7D
:10057800031DB82A0130A502031DC32AC42AA62ACE
:10058800C62AC62A2308A101A1072208A001A0079C
:10059800CD2A080083120313A40024080A128A1122
:1005A800CA240A128A118312031321080A128A1113
:1005B80015250A128A1101300A128A11D8240A1242
:1005C8008A11073083120313A3007D30A200A20B07
:1005D800EB2AA30BEB2A00300A128A11D8240A123C
:1005E8008A110D3083120313A300FB30A200A20B63
:1005F800FB2AA30BFB2A002B00300A128A11CA24FB
:100608000A128A1100300A128A1115250A128A1153
:10061800080001300A128A11D8240A128A1162309D
:1006280083120313A6006530A500A50B192BA60B92
:10063800192B1E2B383083120313A5002508A1009F
:1006480000300A128A11CE220A128A110630831249
:100658000313A5002508A10000300A128A11CE2232
:100668000A128A110C3083120313A5002508A10071
:1006780000300A128A11CE220A128A110A128A112D
:10068800F3240A128A11080083120313A401A50196
:100698009F121F129F110730A3007D30A200A20BEA
:1006A800532BA30B532B831203131F155B2B1F19FB
:1006B8005E2B5F2B5B2B602B1E08A200A301220878
:1006C800A300A2012208A4002308A500831603138F
:1006D8001E08831203132407A40025080318250AFB
:1006E800A5002508A101A1072408A001A0077C2BCB
:1006F800080083120313AA01AB01822B261C852B49
:10070800862B8C2B2808AA070318AB0A2908AB07E5
:1007180001300310A80DA90DFF3E031D8D2B0130DC
:100728000310A70CA60CFF3E031D942B27082604D4
:10073800031D9F2BA02B822BA12B2B08A701A707FA
:100748002A08A601A607A82B0800831203130C1079
:1007580080308F000130F5007508F4073C307402D2
:10076800031CB72BB82BBE2B0130F5007508F30717
:10077800F401BE2B3C307302031CC32BC42BCA2BC1
:100788000130F5007508F207F301CA2B1830720220
:10079800031CCF2BD02BD22BF201D22B08000C1C20
:1007A800D62BD72BDD2B0A128A11A9230A128A11FC
:1007B800DD2B0B1DE02BE12BE72B0A128A111324EA
:1007C8000A128A11E72B790883120313FF007808AD
:1007D8008A0077088400760E8300FE0E7E0E0900DC
:1007E800831203132008A20004300310A20DFF3E59
:1007F800031DF92B30302205A3001708CF39230435
:1008080097002108A3002008A20002300310A30CBF
:10081800A20CFF3E031D0A2C2208950008000B11AC
:100828007008003EF00071080318013E013EF10017
:1008380071087004031D212C222C282C8312031309
:10084800CA010314CA0D2C2C83120313CA012C2CC1
:100858000800831203130108A200A30100307005E9
:10086800A400FF307105A50022082404F000230825
:100878002504F1007108A101A1077008A001A007D3
:10088800452C0800F001F101F201F301F401C00167
:10089800C101C201C301C401C501C601C701C80124
:1008A800C901CA0183010A128A1110298316031388
:1008B8001F17831203139F171F13831603139F1504
:1008C8001F159F141F109F17831203131F10080072
:1008D800831203138E0180308F00901590140C1032
:1008E800831603130C140B178B178312031310149E
:1008F8000800831203138101F001F1018316031329
:100908008116011681150111811001100B118B162A
:100918008B170800FF30831603139200831203130A
:100928009210121495011215971517159712171290
:100938009501080004308A000408840A82070034FC
:10094800523450344D343A34003430343034303446
:10095800003483120313A60026088038A500250852
:10096800A10000300A128A11CE220A128A11080048
:1009780083120313A6002608A5002508A10001304C
:100988000A128A11CE220A128A110800831203134E
:10099800A0002018D02CD42C831203130515D72CB3
:1009A800831203130511080083120313A0002018F3
:1009B800DE2CE22C831203138515E52C8312031316
:1009C80085110800C03083120313A5002508A10073
:1009D80000300A128A11CE220A128A1108008312E4
:1009E8000313A1010314A10D00300A128A11CE22AB
:1009F8000A128A1108000030831203132005F00040
:100A0800FF302105F100200881000800831203133C
:100A1800A1002108A0002008F4008E0180308F007A
:100A2800080083120313A00020088800080083121E
:0C0A380003131F1408007408212D08008F
:02400E0032FF7F
:00000001FF
