:060000000A128A11432DD3
:100A7E00831203131F14080083010A128A117C2F9C
:100A8E00831603131F17831203139F171F13831647
:100A9E0003139F151F159F141F109F178312031307
:100AAE001F100800F2008312031389100808F03992
:100ABE00720488000730F1007D30F000F00B652DD8
:100ACE00F10B652D8312031389140808F039880081
:100ADE000800F2008312031309100808F03972049B
:100AEE0088000730F1007D30F000F00B7C2DF10B0B
:100AFE007C2D8312031309140808F03988000800AE
:100B0E0083120313891009100808F0390A38880077
:100B1E000730F1007D30F000F00B932DF10B932D8B
:100B2E0083120313891409140808F0398800080089
:100B3E00A82D0730F3007D30F200F20BA42DF30B3D
:100B4E00A42D0130F0020030031CF103F102FF303E
:100B5E007106031DB42DFF307006031DB72DB82D81
:100B6E00A02DB92D0800F400D52D831203130715FF
:100B7E005030F0000030F1000A128A119F250A123F
:100B8E008A118312031307116430F0000030F10054
:100B9E000A128A119F250A128A11D52D0130F402EC
:100BAE007408FF3A031DDC2DDD2DBC2DDE2D080053
:100BBE00F401F501831203139F121F129F110730C8
:100BCE00F3007D30F200F20BEA2DF30BEA2D8312C7
:100BDE0003131F15F22D1F19F52DF62DF22DF72DDE
:100BEE001E08F200F3017208F300F2017208F4001D
:100BFE007308F500831603131E087407F4007508B6
:100C0E000318750AF5007508F101F1077408F00173
:100C1E00F007112E0800FB0064307B02031C182E17
:100C2E00192E262E0A300A128A1159250A128A11F5
:100C3E000A300A128A1170250A128A11532E0A30AE
:100C4E00F0000030F1007B08F900FA017908F2009B
:100C5E007A08F3000A128A11A2260A128A11700863
:100C6E000A128A1159250A128A110A30F000003030
:100C7E00F1007B08F900FA017908F2007A08F30016
:100C8E000A128A1108270A128A1170080A128A118A
:100C9E0070250A128A11532E0800F501F60171080B
:100CAE00700403195B2E5C2E9A2EF7010314F70DB8
:100CBE006C2E01300310F00DF10DFF3E031D612E61
:100CCE000130F4007408F7076C2EF11F6F2E702E92
:100CDE00602E722E722E01300310F50DF60DFF3EB2
:100CEE00031D732E71087302031D7F2E700872028E
:100CFE00031C822E832E8B2E7008F2027108031CA9
:100D0E00F303F30275148B2E01300310F10CF00C6B
:100D1E00FF3E031D8C2E0130F702031D972E982ED9
:100D2E00722E9A2E9A2E7608F101F1077508F001AF
:100D3E00F007A12E0800F601F31FA62EA72EB02E47
:100D4E00F209F309F20A0319F30AF6010314F60D78
:100D5E00B02EF11FB32EB42EBA2EF009F109F00AFF
:100D6E000319F10ABA2E710870040319BF2EC02E92
:100D7E00F62EF5010314F50DD02E01300310F00DF3
:100D8E00F10DFF3E031DC52E0130F4007408F5076A
:100D9E00D02EF11FD32ED42EC42ED62ED62E7108C1
:100DAE007302031DDC2E70087202031CDF2EE02E70
:100DBE00E72E7008F2027108031CF303F302E72E0C
:100DCE0001300310F10CF00CFF3E031DE82E013034
:100DDE00F502031DF32EF42ED62EF62EF62E7608E1
:100DEE00031DFA2E002FF209F309F20A0319F30A72
:100DFE00002F7308F101F1077208F001F007072FB9
:100E0E000800F601F11F0C2F0D2F162FF009F10916
:100E1E00F00A0319F10AF6010314F60D162FF31F4B
:100E2E00192F1A2F242FF209F309F20A0319F30AC4
:100E3E000130F4007408F606242FF701F80171084A
:100E4E00700403192B2F2C2F6A2FF5010314F50DA7
:100E5E003C2F01300310F00DF10DFF3E031D312F1D
:100E6E000130F4007408F5073C2FF11F3F2F402F7F
:100E7E00302F422F422F01300310F70DF80DFF3E99
:100E8E00031D432F71087302031D4F2F700872024A
:100E9E00031C522F532F5B2F7008F2027108031C94
:100EAE00F303F30277145B2F01300310F10CF00CF7
:100EBE00FF3E031D5C2F0130F502031D672F682FC7
:100ECE00422F6A2F6A2F7608031D6E2F742FF70993
:100EDE00F809F70A0319F80A742F7808F101F107D7
:100EEE007708F001F0077B2F080083120313A0018F
:100EFE00A101A201850186018701880189011130B6
:100F0E008316031385000F30860093308700880107
:100F1E0089010A128A1147250A128A110A128A11A8
:100F2E0087250A128A1102300A128A11BA250A126C
:100F3E008A110A128A113F250A128A11A62F8312CC
:100F4E000313A101A201A0010A302002031CB02F3D
:100F5E00B12FB32FCD2FCD2F0A128A11DF250A12F2
:100F6E008A118312031321087007A10022080318A7
:100F7E00220A7107A2000130FC007C08A0070A308B
:100F8E002002031CCB2FCC2FB32FCD2F0A30F00015
:100F9E000030F1002208F301F3072108F201F207F5
:100FAE000A128A1154260A128A1171088312031327
:100FBE00A201A2077008A101A1072208FD002108C5
:100FCE00FC0001300310FD0CFC0CFF3E031DE92F4D
:100FDE007C08A1007D08A20021080A128A1112269F
:100FEE000A128A11A62FA62FFC2FFC2F0A128A1185
:020FFE000028C9
:02400E0032FF7F
:00000001FF
