:0400000054EF3FF08A
:107EA400C2801200000190EF3FF0C29AC298C296BD
:107EB400C294C28200D0C2B201D001D0FCD7C3CFD9
:107EC40001F0C4CF02F01200C19AC198C186C184E6
:107ED400C182C190C08EC084C082C090C08AC09844
:107EE400C086C290120002500110D8A401D001D063
:107EF40002D013D012D0100E036E940EE82EFED7CB
:107F0400032EFCD700F00106D8A00206025001108F
:107F1400D8A401D001D0EFD700D01200046E000E17
:107F2400076E0450000E066E000E056E000E806E85
:107F3400000E816E000E826E000E836E000E846E43
:107F4400110E926E0F0E936E930E946E000E956E3C
:107F5400000E966E66EC3FF052EC3FF0046E010E9C
:107F6400076E0450828400D0040E076401D001D04F
:107F740005D0046E010E076E045000D057EC3FF09C
:107F840001C005F002C006F00B0E055C000E065899
:107F9400D8A001D001D0E8D716D015D08A888A9C01
:107FA4008A9A8A9E1ED08A988A8C8A9A8A9E19D026
:107FB4008A988A9C8A8A8A9E14D08A988A9C8A9AE9
:107FC4008A8E0FD00ED00750010AD8B4E7D7030A1F
:107FD400D8B4E9D7010AD8B4EBD7070AD8B4EDD797
:107FE40000D005C001F006C002F075EC3FF0072A8E
:0C7FF400BBD7BAD7B9D7FFD700EF00F019
:020000040020DA
:08000000FFFFFFFFFFFFFFFF00
:020000040030CA
:0E00000024CE381EFF8381FF0FC00FA00F40DB
:00000001FF
