:100000000A128A11DC2B00308A000408840A820755
:10001000003443347934743472346F346E342034A1
:10002000503454344B343434303441340034553447
:100030006C3474347234613473346F346E346934B4
:0600400063343A34003481
:10071800831203131F140800F000700883120313D8
:1007280088000800F1010314F10D00300A128A1143
:10073800A4240A128A110800C030F5007508F100D7
:1007480000300A128A11A4240A128A110800F00043
:100758007018AF2BB32B831203138515B62B831296
:10076800031385110800F0007018BB2BBF2B8312F0
:1007780003130515C22B8312031305110800F60095
:100788007608F5007508F10001300A128A11A424D0
:100798000A128A110800F60076088038F5007508F4
:1007A800F10000300A128A11A4240A128A110800E2
:1007B800B601B701B801B901BA01BB01BC01BD015D
:1007C800BE01BF0183010A128A11682E8316031322
:1007D8001F17831203139F171F13831603139F15E5
:1007E8001F159F141F109F17831203131F10080053
:1007F800052C0730F3007D30F200F20B012CF30BCF
:10080800012C0130F0020030031CF103F102FF302B
:100818007106031D112CFF307006031D142C152CB6
:10082800FD2B162C0800F400322C83120313071535
:100838005030F0000030F1000A128A11FC230A122D
:100848008A118312031307116430F0000030F1009D
:100858000A128A11FC230A128A11322C0130F4027E
:100868007408FF3A031D392C3A2C192C3B2C08002C
:1008780001300A128A11AB230A128A116230F6007B
:100888006530F500F50B462CF60B462C4B2C383012
:10089800F5007508F10000300A128A11A4240A1222
:1008A8008A110630F5007508F10000300A128A1125
:1008B800A4240A128A110C30F5007508F1000030E2
:1008C8000A128A11A4240A128A110A128A1196237A
:1008D8000A128A11080083120313B101B2019F1290
:1008E8001F129F110730B0007D30AF00AF0B7A2C7C
:1008F800B00B7A2C831203131F15822C1F19852C19
:10090800862C822C872C1E08AF00B0012F08B0005F
:10091800AF012F08B1003008B200831603131E0878
:10092800831203133107B10032080318320AB200E8
:100938003208AE01AE073108AD01AD07A32C08009F
:10094800F40074080A128A11B7230A128A1171086E
:100958000A128A1190230A128A1101300A128A1186
:10096800AB230A128A110730F3007D30F200F20B34
:10097800BB2CF30BBB2C00300A128A11AB230A12D2
:100988008A110D30F300FB30F200F20BC92CF30B87
:10099800C92CCE2C00300A128A11B7230A128A11E8
:1009A80000300A128A1190230A128A110800F800EE
:1009B8000E2D780884000A128A1103200A128A115F
:1009C8000A3A0319E82CE92CF62C780884000A1254
:1009D8008A1103200A128A110D3A031DF42CF52CF2
:1009E800FC2CF62C0A128A11A0230A128A11092D4E
:1009F800780884000A128A1103200A128A110A123E
:100A08008A11C3230A128A11092D0130F7007708C9
:100A1800F8070E2D780884000A128A1103200A129A
:100A28008A110038031D192D1A2DDD2C1B2D0800E5
:100A3800710870040319212D222D582DF501031476
:100A4800F50D322D01300310F00DF10DFF3E031DA1
:100A5800272D0130F4007408F507322DF11F352DCC
:100A6800362D262D382D382D71087302031D3E2D85
:100A780070087202031C412D422D492D7008F202A4
:100A88007108031CF303F302492D01300310F10C24
:100A9800F00CFF3E031D4A2D0130F502031D552DB4
:100AA800562D382D582D582D7308F101F10772086D
:100AB800F001F0075F2D08000030FC000030FB005B
:100AC8000030FA000030F900692D701C6C2D6D2D76
:100AD800852D7408F907750803110318013E0319D9
:100AE800762DFA07760803110318013E03197D2DA8
:100AF800FB07770803110318013E0319842DFC072F
:100B0800852D0130F8000310F40DF50DF60DF70DE5
:100B1800F80B872D01300310F30CF20CF10CF00CDC
:100B2800FF3E031D8F2D7308720471047004031DAA
:100B38009E2D9F2D692DA02D7C08F3007B08F200C7
:100B48007A08F1007908F000A92D0800F501F601EE
:100B5800710870040319B12DB22DF02DF70103149B
:100B6800F70DC22D01300310F00DF10DFF3E031DEE
:100B7800B72D0130F4007408F707C22DF11FC52DF9
:100B8800C62DB62DC82DC82D01300310F50DF60D54
:100B9800FF3E031DC92D71087302031DD52D700872
:100BA8007202031CD82DD92DE12D7008F2027108AC
:100BB800031CF303F3027514E12D01300310F10C4B
:100BC800F00CFF3E031DE22D0130F702031DED2D51
:100BD800EE2DC82DF02DF02D7608F101F1077508DE
:100BE800F001F007F72D0800003083120313AB0063
:100BF8000030AA000030A9000030A8002308220411
:100C0800210420040319092E0A2E5E2EAC010314B8
:100C1800AC0D1C2E0130FD000310A00DA10DA20D7E
:100C2800A30DFD0B102E0130FD007D08AC071C2E16
:100C3800A31F1F2E202E0E2E222E222E0130FD0045
:100C48000310A80DA90DAA0DAB0DFD0B242E23082A
:100C58002702031D392E22082602031D392E2108DA
:100C68002502031D392E20082402031C3C2E3D2E8C
:100C78004D2E2008A4022108031C210FA5022208DA
:100C8800031C220FA6022308031C230FA702281403
:100C98004D2E01300310A30CA20CA10CA00CFF3E9A
:100CA800031D4E2E0130AC02031D5B2E5C2E222E3E
:100CB8005E2E5E2E2B08A3002A08A2002908A10098
:100CC8002808A000672E080083120313B5018501C8
:100CD8008601870188018901113083160313850075
:100CE8000F30860093308700880189010A128A1123
:100CF800EA230A128A110A128A113C240A128A115A
:100D080002300A128A1117240A128A110A128A1149
:100D18008C230A128A1183120313851401300A12D4
:100D28008A11DB240A128A110A128A11A0230A12D4
:100D38008A110F300A128A11DB240A128A114E30E6
:100D48000A128A11CF230A128A1122300A128A1132
:100D5800C3230A128A11B02E003083120313A30092
:100D68000030A2000330A100E830A0000A128A1166
:100D78006F240A128A11831203132D08F0002E081B
:100D8800F100F201F3010030F7000030F600013005
:100D9800F500E830F4000A128A1160250A128A1157
:100DA800730883120313A7007208A6007108A50030
:100DB8007008A4000A128A11F8250A128A118312EF
:100DC80003132008B3003308B5004B300A128A1108
:100DD800CF230A128A11831203133508B300B40112
:100DE8003308F8003408F90003300A128A1105277D
:100DF8000A128A11B02EB02E012F012F0A128A1161
:100E0800002883120313AA00203084003630FA0029
:100E18000408FB000A30FC007A08840083130008E9
:100E2800FD00FA0A7B0884007D088000FB0AFC0BA1
:100E3800102F1030F0002730F1007908F301F30784
:100E48007808F201F2070A128A11AA250A128A11F1
:100E5800710883120313A901A9077008A801A8073C
:100E68001030F0002730F1007908F301F307780813
:100E7800F201F2070A128A111C250A128A11710856
:100E880083120313A701A7077008A601A607E83075
:100E9800F0000330F1002708F301F3072608F201F8
:100EA800F2070A128A111C250A128A117108831284
:100EB8000313A501A5077008A401A407E830F000F2
:100EC8000330F1002708F301F3072608F201F207BF
:100ED8000A128A11AA250A128A11710883120313A9
:100EE800A701A7077008A601A6076430F000003024
:100EF800F1002508F301F3072408F201F2070A12AA
:100F08008A111C250A128A11710883120313A3017E
:100F1800A3077008A201A2076430F0000030F100B6
:100F28002508F301F3072408F201F2070A128A11CF
:100F3800AA250A128A11710883120313A501A507AD
:100F48007008A401A4070A30F0000030F10023085B
:100F5800F301F3072208F201F2070A128A111C258D
:100F68000A128A11710883120313A101A1077008DC
:100F7800A001A0070A30F0000030F1002308F301B7
:100F8800F3072208F201F2070A128A11AA250A12A7
:100F98008A11710883120313A301A3077008A20121
:100FA800A20706302A02031CDA2FDB2FE02F0530B8
:100FB800FA007A08AA00E02FAA08031DE42FE52FFB
:100FC800E72FFF2FFF2F2A08FA007A07FE3E203E60
:100FD800840083130008303E0A128A11C3230A12C0
:100FE8008A11013083120313AA02AA08031DFD2FD8
:080FF800FE2FE72FFF2F080078
:02400E0032FF7F
:00000001FF
