:060000000A128A11772F9D
:100EEE0083010A128A11CD2F831603131F17831243
:100EFE0003139F171F13831603139F151F159F149C
:100F0E001F109F17831203131F100800962F073010
:100F1E00F3007D30F200F20B922FF30B922F013083
:100F2E00F0020030031CF103F102FF307106031DC5
:100F3E00A22FFF307006031DA52FA62F8E2FA72FD1
:100F4E000800F400C32F8312031307155030F0006E
:100F5E000030F1000A128A118D270A128A118312AB
:100F6E00031307116430F0000030F1000A128A11E9
:100F7E008D270A128A11C32F0130F4027408FF3A2A
:100F8E00031DCA2FCB2FAA2FCC2F080083120313B9
:100F9E0085018601870188018901113083160313AB
:100FAE0085000F30860093308700880189010A1270
:100FBE008A117B270A128A1102300A128A11A82777
:100FCE000A128A11EA2F831203130618EF2FF02F3D
:100FDE00F22F0715EA2F8618F52FF62FEA2F071195
:100FEE00EA2FEA2FEA2FEA2FFC2FFC2F0A128A1182
:020FFE000028C9
:02400E0032FF7F
:00000001FF
