:0400000041EF05F0D7
:10080000437974726F6E2050544B34304100486508
:100810006C6C6F20576F726C64004F7665720000CD
:10082000000E806E000E816E000E826E000E836ED2
:10083000000E846E110E926E0F0E936E930E946ED8
:10084000000E956E000E966E23EC05F032EC05F06E
:1008500052EC04F01C6E020E176E1C500BEC05F0EF
:10086000898200D081B001D001D0FCD700D01C6EAD
:10087000010E186E1C5064EC05F0080E1B6E000E85
:100880001A6E8AEC04F01C6E420E186E1C5064EC5A
:1008900005F0080E1B6E0E0E1A6E8AEC04F0FFD7E0
:1008A00000EF00F01A6E010E146E1A5077EC05F08E
:1008B000EA0E1A6EC30EE82EFED71A2EFCD71A6E59
:1008C000000E156E1A501B6E380E166E1B50BFECC4
:1008D00004F01A6E020E126E1A501A6E000E156E89
:1008E0001A5012500409166EBFEC04F01A6E040E72
:1008F000116E1A501A6E000E156E1A50115008091A
:10090000166EBFEC04F01A6E0C0E136E1A504EECFD
:1009100005F0120027D01AC0F6FF1BC0F7FF080031
:10092000F5500A0AD8B401D001D00CD01AC0F6FF95
:100930001BC0F7FF0800F5500D0AD8A401D001D064
:1009400004D000D059EC05F00AD01AC0F6FF1BC045
:10095000F7FF0800F5CF18F06EEC05F000D01A4A4A
:100960001B2A00D01AC0F6FF1BC0F7FF0800F55085
:100970000009D8A401D001D0CED700D0120015C0F4
:1009800014F07DEC05F016C014F083EC05F0176E42
:10099000010E146E175077EC05F0100E176E940EC2
:1009A000E82EFED7172EFCD700F0176E000E146E3F
:1009B000175077EC05F0200E176E290EE82EFED7A3
:1009C000172EFCD700D0176E000E146E17507DEC5A
:1009D00005F0176E000E146E175083EC05F0120030
:1009E00015501410D8A401D001D002D013D012D0C9
:1009F000100E166E940EE82EFED7162EFCD700F0C1
:100A00001406D8A0150615501410D8A401D001D092
:100A1000EFD700D012000FD08B84000E156E320E6F
:100A2000146EF0EC04F08B94000E156E320E146E02
:100A3000F0EC04F000D017061728D8A401D001D09C
:100A4000EBD700D01200C19AC198C186C184C1827F
:100A5000C190C08EC084C082C090C08AC098C08639
:100A6000C29012008D928D908C50F00B0A098C6E02
:100A7000080EE82EFED78D828D808C50F00B8C6E88
:100A8000120000EE01F0130EEE6AE806FDE1000E22
:100A9000F86E080EF76E000110EF04F0186E000EED
:100AA000156E1850196E010E166E1950BFEC04F039
:100AB0001200186E000E156E1850196EC00E166ECC
:100AC0001950BFEC04F01200196E000E156E19508B
:100AD00018508009166EBFEC04F01200196E010E5A
:100AE000156E195018C016F0BFEC04F0120014B0C7
:100AF00002D0899601D08986120014B002D0899460
:0C0B000001D08984120014C08CFF120088
:020000040020DA
:08000000FFFFFFFFFFFFFFFF00
:020000040030CA
:0E00000024CE381EFF8381FF0FC00FA00F40DB
:00000001FF
