:020000040000FA
:0600000075EF1DF0120077
:020006001200E6
:06000800C4EF1AF0120023
:02000E000000F0
:0100100000EF
:03001100000000EC
:06001800C4EF1AF0120013
:02001E000400DC
:10002000383B00008000000012000000A52E0000F8
:10003000A200000001000000110000009F0000006D
:10004000030000000E0000009C0000000300000000
:10005000D9CFE6FFE1CFD9FF060EE126010EDF6E14
:10006000DB6AFA0EF36E020EF3CFDBFFFE0EF36EC9
:10007000030EF3CFDBFF730EF36E040EF3CFDBFF43
:10008000420EF36E050EF3CFDBFF806A816A826A4F
:10009000836A846A110E926E0F0E936E930E946EA5
:1000A000956A966A04EC1DF0F7EC19F095D9B4EC5A
:1000B0000BF08982660EE66E370EE66E01EC0FF0ED
:1000C000E552E552D00EE66E070EE66E57EC1CF0D8
:1000D000E552E552830EE66E370EE66E01EC0FF048
:1000E000E552E552D00EE66E070EE66E57EC1CF0B8
:1000F000E552E5529D0EE66E370EE66E01EC0FF00E
:10010000E552E552D00EE66E070EE66E57EC1CF097
:10011000E552E552020EE66E3FD9E552FCD9C80E13
:10012000E66EE66A57EC1CF0E552E552940EE66E78
:100130002E0EE66E73EC0FF0E552E552DF500E0A1C
:1001400001E1F3D0030A01E1E1D0010A01E1CFD0DE
:10015000070A01E1BDD0010A01E1ABD0030A01E1C8
:1001600099D0010A01E187D00F0A01E175D0010A97
:1001700065E0030A55E0010A45E0070A35E0010A97
:1001800025E0030A01E0E0D0880EE66E2E0EE66E52
:1001900045EC0FF0E552E55281B417D081A4FED7AB
:1001A00026DA46DAACDA1CDB7CDB4DEC06F091ECAF
:1001B00005F00BEC07F073EC08F0C3EC08F07EECF4
:1001C00009F0FCEC09F073EC0AF0BED0790EE66E93
:1001D0002E0EE66E45EC0FF0E552E55281B403D0E9
:1001E00081A4FED704DAB0D06F0EE66E2E0EE66E56
:1001F00045EC0FF0E552E55281B403D081A4FED75F
:1002000017DAA2D0670EE66E2E0EE66E45EC0FF002
:10021000E552E55281B403D081A4FED770DA94D0C0
:100220005E0EE66E2E0EE66E45EC0FF0E552E552E0
:1002300081B403D081A4FED7D3DA86D0520EE66E05
:100240002E0EE66E45EC0FF0E552E55281B403D078
:1002500081A4FED726DB78D0410EE66E2E0EE66E28
:1002600045EC0FF0E552E55281B404D081A4FED7ED
:1002700091EC05F069D0320EE66E2E0EE66E45EC7E
:100280000FF0E552E55281B404D081A4FED74DECC5
:1002900006F05AD02B0EE66E2E0EE66E45EC0FF0F1
:1002A000E552E55281B404D081A4FED70BEC07F0EF
:1002B0004BD01B0EE66E2E0EE66E45EC0FF0E552AF
:1002C000E55281B404D081A4FED773EC08F03CD091
:1002D0000C0EE66E2E0EE66E45EC0FF0E552E55282
:1002E00081B404D081A4FED7C3EC08F02DD0000E59
:1002F000E66E2E0EE66E45EC0FF0E552E55281B447
:1003000004D081A4FED77EEC09F01ED0F70EE66E75
:100310002D0EE66E45EC0FF0E552E55281B404D0A7
:1003200081A4FED7FCEC09F00FD0EE0EE66E2D0E88
:10033000E66E45EC0FF0E552E55281B404D081A49D
:10034000FED773EC0AF000D081B00CD0DF06010EAE
:10035000DF5C02E20E0EDF6E81A0FED7010EE66EBC
:100360001BD8E55281B20CD0DF2ADF500E0802E222
:10037000010EDF6E81A2FED7010EE66E0DD8E552AA
:10038000D5D6060EE15C02E2E16AE552E16EE55285
:10039000E7CFD9FF12001200D9CFE6FFE1CFD9FF96
:1003A000FE0EDBCFF3FFDB06F350000811E28B8477
:1003B000320EE66EE66A57EC1CF0E552E5528B947D
:1003C000320EE66EE66A57EC1CF0E552E552E8D7CD
:1003D000E552E7CFD9FF1200D9CFE6FFE1CFD9FF31
:1003E000E652DF6A8B842C0EE66E010EE66E57EC49
:1003F0001CF0E552E5528B948D902C0EE66E010EAA
:10040000E66E57EC1CF0E552E5528D80640EE66E08
:1004100042EC1AF0E5528D922C0EE66E010EE66E5D
:1004200057EC1CF0E552E5528D82640EE66E42EC0C
:100430001AF0E5528D842C0EE66E010EE66E57EC36
:100440001CF0E552E5528D9489822C0EE66E010E69
:10045000E66E57EC1CF0E552E552899289842C0E29
:10046000E66E010EE66E57EC1CF0E552E5528994FB
:1004700089862C0EE66E010EE66E57EC1CF0E552F6
:10048000E5528996898A2C0EE66E010EE66E57ECCF
:100490001CF0E552E552899A040EDF6E090EDF5C0E
:1004A00014E2010EDF5206E0DFCFF3FFE846FE0B59
:1004B000F306FCE18A6E2C0EE66E010EE66E57EC3A
:1004C0001CF0E552E552DF2AE9D7DF6A090EDF5C4E
:1004D00014E2010EDF5206E0DFCFF3FFE846FE0B29
:1004E000F306FCE18C6E2C0EE66E010EE66E57EC08
:1004F0001CF0E552E552DF2AE9D78B84320EE66E16
:10050000E66A57EC1CF0E552E5528B94E552E55251
:10051000E7CFD9FF1200D70EE66E2D0EE66E01EC86
:100520000FF0E552E552310EE66E13EC0CF0E55299
:1005300081B0FED78150020B03E08150040B08E12B
:10054000BC0EE66E370EE66E13EC0FF0E552E55288
:1005500081A0FED7010EE66E1FDFE552480EE66E63
:1005600003EC0CF0E552320EE66E13EC0CF0E552A3
:1005700081B2FED78150010B03E08150040B08E1EA
:10058000BC0EE66E370EE66E13EC0FF0E552E55248
:1005900081A2FED7010EE66EFFDEE552480EE66E42
:1005A00003EC0CF0E552330EE66E13EC0CF0E55262
:1005B00081B4FED78150010B03E08150020B08E1AA
:1005C000BC0EE66E370EE66E13EC0FF0E552E55208
:1005D00081A4FED7020EE66EDFDEE552F40EE66E73
:1005E000010EE66E57EC1CF0E552E5521200C60E05
:1005F000E66E2D0EE66E01EC0FF0E552E552E80EC8
:10060000E66E030EE66E57EC1CF0E552E552B60EB0
:10061000E66E2D0EE66E01EC0FF0E552E55281B666
:10062000FED781A6FED7020EE66EB6DEE5521200B8
:10063000D9CFE6FFE1CFD9FF020EE126DF6A9C0E9B
:10064000E66E2D0EE66E01EC0FF0E552E552DF503E
:10065000EA6A800FE96E000EEA22EF503BE04E0E90
:10066000E66E03EC0CF0E552DF50EA6A800FE96EAB
:10067000000EEA22EF50E66E13EC0CF0E552E1ECCE
:1006800019F0E66EA7EC19F0E552E76E010EE7CF20
:10069000DBFFE66E81DEE552320EE66EE66A57EC6F
:1006A0001CF0E552E552DF50EA6A800FE96E000E59
:1006B000EA22EF50F36E010EDB50F35C09E0870E87
:1006C000E66E2D0EE66E13EC0FF0E552E5520DD0FE
:1006D000DF2ABDD7020EE66E5FDEE552C80EE66E7B
:1006E000E66A57EC1CF0E552E552020EE15C02E2CC
:1006F000E16AE552E16EE552E7CFD9FF1200D9CFAA
:10070000E6FFE1CFD9FFE652DF6A7D0EE66E2D0EE1
:10071000E66E01EC0FF0E552E552E80EE66E030ED0
:10072000E66E57EC1CF0E552E552710EE66E2D0EAA
:10073000E66E73EC0FF0E552E552640EE66E42ECA5
:100740001AF0E552E80EE66E030EE66E57EC1CF06A
:10075000E552E5526A0EE66E2D0EE66E73EC0FF072
:10076000E552E552DF6A0A0EDF5C24E2090EDF0281
:10077000F350090FE66E42EC1AF0E552460EE66EB3
:1007800003EC0CF0E552090EDF02F350090FE66EA0
:10079000E66A020EE66E5BEC0CF0E552E552E552BD
:1007A000200EE66E030EE66E57EC1CF0E552E552A5
:1007B000DF2AD9D7F40EE66E010EE66E57EC1CF078
:1007C000E552E552640EE66E42EC1AF0E552020E76
:1007D000E66EE2DDE552E552E552E7CFD9FF1200C1
:1007E000D9CFE6FFE1CFD9FF020EE1265F0EE66E1C
:1007F0002D0EE66E01EC0FF0E552E552E80EE66EC6
:10080000030EE66E57EC1CF0E552E55281A017D0BE
:10081000550EE66E2D0EE66E01EC0FF0E552E55238
:1008200093EC0BF081A00BD0CD0EE66E370EE66E8A
:1008300001EC0FF0E552E55293EC0BF0E7D781A005
:10084000FED74C0EE66E2D0EE66E01EC0FF0E55273
:10085000E552898AE80EE66E030EE66E57EC1CF050
:10086000E552E552420EE66E2D0EE66E01EC0FF0FB
:10087000E552E552899AE80EE66E030EE66E57ECF5
:100880001CF0E552E552020EE66E86DDE552020EE0
:10089000E15C02E2E16AE552E16EE552E7CFD9FFA1
:1008A0001200D9CFE6FFE1CFD9FF020EE126340EC8
:1008B000E66E2D0EE66E01EC0FF0E552E552E80E05
:1008C000E66E030EE66E57EC1CF0E552E55281A091
:1008D00017D01A0EE66E2D0EE66E01EC0FF0E55203
:1008E000E55293EC0BF081A00BD0CD0EE66E370EE7
:1008F000E66E01EC0FF0E552E55293EC0BF0E7D712
:1009000081A0FED7F9EC1BF0ACEC1CF0EEEC0BF088
:10091000070EE66E03EC0CF0E552130EE66E2D0E9C
:10092000E66E23EC0CF0E552E552000EE66EE66A48
:10093000CAEC1CF0E552E552480EE66E03EC0CF0F2
:10094000E5520E0EE66E2D0EE66E23EC0CF0E5522F
:10095000E5528A888A9A5E0EDE6E010EDD6EDECF6B
:1009600014F0DDCF15F0FF0E145C030E15583AE2BB
:10097000DECFE6FFDDCFE6FF0FEC1CF0E552E552DF
:100980000A0EE66EE66A57EC1CF0E552E552430E9D
:10099000E66E03EC0CF0E552B7EC1CF0F3CF14F06C
:1009A000F4CF15F014C0E6FF15C0E6FF040EE66EA6
:1009B0005BEC0CF0E552E552E5524C0EE66E03ECB2
:1009C0000CF0E552DECFE6FFDDCFE6FF040EE66E6B
:1009D0005BEC0CF0E552E552E552DF2A010E01E333
:1009E000DB2ABDD7070EE66E03EC0CF0E5520A0ECB
:1009F000E66E2D0EE66E23EC0CF0E552E5528A9879
:100A00008A8AD9CFE9FFDACFEAFFC80ED880EE5440
:100A1000000EED543AE2DECFE6FFDDCFE6FF0FEC4D
:100A20001CF0E552E5520A0EE66EE66A57EC1CF041
:100A3000E552E552430EE66E03EC0CF0E552B7ECDE
:100A40001CF0F3CF14F0F4CF15F014C0E6FF15C07E
:100A5000E6FF040EE66E5BEC0CF0E552E552E55263
:100A60004C0EE66E03EC0CF0E552DECFE6FFDDCF78
:100A7000E6FF040EE66E5BEC0CF0E552E552E55243
:100A8000DF06010E01E2DB06BCD7E80EE66E030EC0
:100A9000E66E57EC1CF0E552E552000EE66EE66A93
:100AA0000FEC1CF0E552E5528A988A9AE80EE66E41
:100AB000030EE66E57EC1CF0E552E55281A017D00C
:100AC000E20EE66E370EE66E01EC0FF0E552E552EF
:100AD00093EC0BF081A00BD0CD0EE66E370EE66ED8
:100AE00001EC0FF0E552E55293EC0BF0E7D781A053
:100AF000FED705EC1CF0F29A020EE66E4DDCE552D4
:100B0000C80EE66EE66A57EC1CF0E552E552020E9E
:100B1000E15C02E2E16AE552E16EE552E7CFD9FF1E
:100B20001200D9CFE6FFE1CFD9FF030EE126FD0E7B
:100B3000E66E2C0EE66E01EC0FF0E552E552E80E83
:100B4000E66E030EE66E57EC1CF0E552E552020E1F
:100B5000DF6EDF50000870E2020EDF5C28E181A04A
:100B600023D0DC0EE66E2C0EE66E01EC0FF0E552A3
:100B7000E55293EC0BF081A017D0D30EE66E2C0E4D
:100B8000E66E01EC0FF0E552E55293EC0BF081A01C
:100B90000BD0CD0EE66E370EE66E01EC0FF0E5528F
:100BA000E55293EC0BF0DBD781A0FED71DD0DF041C
:100BB0001BE181A017D0C30EE66E2C0EE66E01EC91
:100BC0000FF0E552E55293EC0BF081A00BD0CD0E67
:100BD000E66E370EE66E01EC0FF0E552E55293EC4F
:100BE0000BF0E7D781A0FED78B840A0EE66E2D0EA0
:100BF000E66E01EC0FF0E552E552E66A39EC0BF0D7
:100C0000E552F40EE66E010EE66E57EC1CF0E5526E
:100C1000E552C00EE66E2C0EE66E01EC0FF0E552CA
:100C2000E552010EE66E39EC0BF0E5528B940F0E97
:100C30008114816EDF068DD781A017D0E20EE66E9B
:100C4000370EE66E01EC0FF0E552E55293EC0BF037
:100C500081A00BD0CD0EE66E370EE66E01EC0FF0E4
:100C6000E552E55293EC0BF0E7D781A0FED7020ED8
:100C7000E66ECCEC01F0E552C80EE66EE66A57EC83
:100C80001CF0E552E552030EE15C02E2E16AE55236
:100C9000E16EE552E7CFD9FF1200D9CFE6FFE1CFF1
:100CA000D9FF020EE126B50EE66E2C0EE66E01ECC3
:100CB0000FF0E552E552E80EE66E030EE66E57ECD5
:100CC0001CF0E552E55281A017D0AB0EE66E2C0E5B
:100CD000E66E01EC0FF0E552E55293EC0BF081A0CB
:100CE0000BD0CD0EE66E370EE66E01EC0FF0E5523E
:100CF000E55293EC0BF0E7D781A0FED7A40EE66E89
:100D00002C0EE66E01EC0FF0E552E552640EDE6E3D
:100D1000DD6ADFCF14F0DF06010EDBCF15F001E254
:100D2000DB06000ED8801454000E155411E28D8499
:100D3000730EE66EE66A38EC1CF0E552E5528D94CF
:100D4000120EE66EE66A57EC1CF0E552E552E1D76A
:100D50009F0EE66E2C0EE66E01EC0FF0E552E552AA
:100D6000640EDE6EDD6ADFCF14F0DF06010EDBCF2E
:100D700015F001E2DB06000ED8801454000E155465
:100D800011E28D84AA0EE66EE66A38EC1CF0E5529C
:100D9000E5528D94120EE66EE66A57EC1CF0E552B1
:100DA000E552E1D7990EE66E2C0EE66E01EC0FF0DF
:100DB000E552E552640EDE6EDD6ADFCF14F0DF0629
:100DC000010EDBCF15F001E2DB06000ED8801454D3
:100DD000000E155411E28D84370EE66EE66A38EC8B
:100DE0001CF0E552E5528D94130EE66EE66A57EC60
:100DF0001CF0E552E552E1D7020EE66ECCEC01F0B4
:100E0000E552020EE15C02E2E16AE552E16EE55272
:100E1000E7CFD9FF1200D9CFE6FFE1CFD9FF070E08
:100E2000E126DE6ADD6A020EDB6A030EDB6A040E6F
:100E3000DB6A050EDB6A060EDB6A900EE66E2C0E90
:100E4000E66E01EC0FF0E552E55213EC1DF0770E63
:100E5000E66E2C0EE66E01EC0FF0E552E55281A233
:100E600028D1030EDB6A040EDB6A050EDB6A060E70
:100E7000DB6A020EDB6A0A0EF36E020EDBCFF4FFB2
:100E8000F350F45C55E2030EDBCF14F0040EDBCF1D
:100E900015F0050EDBCF16F0060EDBCF17F014C0F1
:100EA000E6FF15C0E6FF16C0E6FF17C0E6FF17EC29
:100EB0001DF0E552E7CF17F0E552E7CF16F0E55207
:100EC000E7CF15F0E552E7CF14F0F3CF1CF0F4CFE5
:100ED0001DF01CC006F01DC007F05BEC10F005C053
:100EE00018F006C019F007C01AF008C01BF018C0AF
:100EF0000AF019C00BF01AC00CF01BC00DF014C0A2
:100F000005F015C006F016C007F017C008F071EC28
:100F100010F0030E05C0DBFF040E06C0DBFF050E5C
:100F200007C0DBFF060E08C0DBFF020EDB2AA3D7DB
:100F3000030EDBCF14F0040EDBCF15F0050EDBCF74
:100F400016F0060EDBCF17F00A6A0B6A200E0C6E45
:100F5000410E0D6E14C005F015C006F016C007F066
:100F600017C008F007EC11F0030E05C0DBFF040EFC
:100F700006C0DBFF050E07C0DBFF060E08C0DBFF67
:100F8000030EE66E03EC0CF0E552030EDBCF05F02A
:100F9000040EDBCF06F0050EDBCF07F0060EDBCF2D
:100FA00008F0C7EC11F006C014F007C015F014C02B
:100FB000E6FF15C0E6FF040EE66E5BEC0CF0E552B2
:100FC000E552E5520B0EE66E03EC0CF0E552030E13
:100FD000DBCF18F0040EDBCF19F0050EDBCF1AF0D3
:100FE000060EDBCF1BF0680E0A6EE80E0B6E9F0E2E
:100FF0000C6E3B0E0D6E18C005F019C006F01AC03D
:1010000007F01BC008F05AEC11F005C014F006C040
:1010100015F007C016F008C017F014C0E6FF15C0A1
:10102000E6FF16C0E6FF17C0E6FF030EE66E81EC92
:101030000DF01C6E050EE15E1C504C0EE66E03ECCE
:101040000CF0E552030EDBCF18F0040EDBCF19F0E5
:10105000050EDBCF1AF0060EDBCF1BF0230E0A6E57
:10106000DB0E0B6EF90E0C6E3E0E0D6E18C005F009
:1010700019C006F01AC007F01BC008F05AEC11F0B6
:1010800005C014F006C015F007C016F008C017F030
:1010900014C0E6FF15C0E6FF16C0E6FF17C0E6FF66
:1010A000010EE66E81EC0DF01C6E050EE15E1C502B
:1010B000D6D681A2FED715EC1DF0020EE66ECCEC62
:1010C00001F0E552C80EE66EE66A57EC1CF0E552F8
:1010D000E552070EE15C02E2E16AE552E16EE5529B
:1010E000E7CFD9FF1200D9CFE6FFE1CFD9FF020E3B
:1010F000E126DF6E010EDB6A71EC1AF05C0EE66E23
:101100002C0EE66E01EC0FF0E552E552E66A84EC37
:101110001AF0E55281A218D080EC1AF0E76E010EA9
:10112000E7CFDBFFDB50DF5C0EE0010EDB50DF6E54
:10113000010EDBCFE6FF42EC1AF0E552010EE66E3F
:10114000CCEC01F0E552E6D781A2FED7640EE66E44
:1011500042EC1AF0E5529D90CD90020EE66ECCEC7A
:1011600001F0E552C80EE66EE66A57EC1CF0E55257
:10117000E552020EE15C02E2E16AE552E16EE552FF
:10118000E7CFD9FF1200D9CFE6FFE1CFD9FF020E9A
:10119000E1264C0EE66E2C0EE66E01EC0FF0E552E9
:1011A000E552E80EE66E030EE66E57EC1CF0E552D3
:1011B000E55281A015D03C0EE66E2C0EE66E01ECD9
:1011C0000FF0E552E552AFDA81A00AD0CD0EE66EFF
:1011D000370EE66E01EC0FF0E552E552A4DAE9D7DE
:1011E00081A0FED724EC1DF0320EE66EE66A57ECC5
:1011F0001CF0E552E5522D0EE66E2C0EE66E01EC6B
:101200000FF0E552E552DE6ADD6ADECF14F0DDCF85
:1012100015F0000E145C010E155816E2DECF14F026
:10122000DDCF15F0FF0ED8801456000E1556145061
:10123000E66EDFCFE6FF9FEC17F0E552E552DF2ABE
:10124000010E01E3DB2AE1D7010EE66ECCEC01F0E2
:10125000E5521E0EE66E2C0EE66E01EC0FF0E55226
:10126000E552F40EE66E010EE66E57EC1CF0E55208
:10127000E552DE6ADD6ADECF14F0DDCF15F0000E38
:10128000145C010E155824E2DFCFE6FF53EC17F093
:10129000E552146E156ADECF16F0DDCF17F0FF0EA3
:1012A000D8801656000E17561650141802E1175023
:1012B000151809E00D0EE66E2C0EE66E13EC0FF01D
:1012C000E552E55211D0DF2A010E01E3DB2AD3D724
:1012D000020EE66ECCEC01F0E552C80EE66EE66A50
:1012E00057EC1CF0E552E552020EE15C02E2E16AC5
:1012F000E552E16EE552E7CFD9FF1200D9CFE6FF04
:10130000E1CFD9FF020EE126DF6E010EDB6A000E8F
:10131000E66E2C0EE66E01EC0FF0E552E552E80E9B
:10132000E66E030EE66E57EC1CF0E552E55281A026
:1013300015D0F20EE66E2B0EE66E01EC0FF0E552C4
:10134000E552F1D981A00AD0CD0EE66E370EE66ED9
:1013500001EC0FF0E552E552E6D9E9D781A0FED7BE
:1013600058EC18F0D80EE66E2B0EE66E01EC0FF07E
:10137000E552E55211EC13F0E66A76EC13F0E55213
:1013800081A222D05AEC13F0E76E010EE7CFDBFF0B
:10139000DB50DF5C18E0010EDB50DF6E4E0EE66EB8
:1013A00003EC0CF0E552010EDBCFE6FFE66A020E1D
:1013B000E66E5BEC0CF0E552E552E552010EE66E8E
:1013C000CCEC01F0E552DCD781A2FED7020EE66E2E
:1013D000CCEC01F0E552C80EE66EE66A57EC1CF064
:1013E000E552E552020EE15C02E2E16AE552E16E8D
:1013F000E552E7CFD9FF1200D9CFE6FFE1CFD9FF01
:10140000E652CE0EE66E2B0EE66E01EC0FF0E552C4
:10141000E552E80EE66E030EE66E57EC1CF0E55260
:10142000E55281A015D0C00EE66E2B0EE66E01ECE3
:101430000FF0E552E55277D981A00AD0CD0EE66EC5
:10144000370EE66E01EC0FF0E552E5526CD9E9D7A4
:1014500081A0FED764EC1BF0A60EE66E2B0EE66EA6
:1014600001EC0FF0E552E552900EE66E2B0EE66EA3
:1014700091EC1BF0E552E552780EE66E2B0EE66E0F
:1014800091EC1BF0E552E552670EE66E2B0EE66E10
:1014900091EC1BF0E552E55288EC1BF0DF6EDFCFDC
:1014A000E6FF7BEC1BF0E5520D0EDF5C03E00A0E5D
:1014B000DF5CF2E1580EE66E2B0EE66E91EC1BF04F
:1014C000E552E552020EE66ECCEC01F0E552C80E94
:1014D000E66EE66A57EC1CF0E552E552E552E5523D
:1014E000E7CFD9FF1200D9CFE6FFE1CFD9FF030E36
:1014F000E126DF6A010EDB6A020EDB6A4E0EE66E43
:101500002B0EE66E01EC0FF0E552E552E80EE66EAA
:10151000030EE66E57EC1CF0E552E55281A020D098
:10152000430EE66E2B0EE66E01EC0FF0E552E5522F
:10153000FAD881A015D0320EE66E2B0EE66E01ECC5
:101540000FF0E552E552EFD881A00AD0CD0EE66E3D
:10155000370EE66E01EC0FF0E552E552E4D8DED727
:1015600081A0FED79BEC1CF064EC1BF0280EE66E0D
:101570002B0EE66E01EC0FF0E552E552640EE66EBE
:10158000E66A57EC1CF0E552E55281A25AD00A0EE9
:10159000E66E76EC1CF0E552000907E00B0EE66EF5
:1015A00076EC1CF0E55200090AE1210EE66E2B0EE6
:1015B000E66E73EC0FF0E552E5528B8409D01F0EF6
:1015C000E66E2B0EE66E73EC0FF0E552E5528B944F
:1015D000180EE66E76EC1CF0E552DF6E140EE66E29
:1015E00076EC1CF0E552E76E010EE7CFDBFFDF5033
:1015F000050809E2010EE66E1D0EE66E87EC1CF092
:10160000E552E55207D0E66A1D0EE66E87EC1CF047
:10161000E552E552010EDB500A080BE2010EDB50E9
:10162000E824E66E1E0EE66E87EC1CF0E552E552ED
:1016300007D0E66A1E0EE66E87EC1CF0E552E55216
:10164000A4D781A2FED7020EE66ECCEC01F0E552E3
:10165000C80EE66EE66A57EC1CF0E552E552030E42
:10166000E15C02E2E16AE552E16EE552E7CFD9FFC3
:101670001200D9CFE6FFE1CFD9FF020EE126C00E5E
:10168000DE6EDD6ADFCF14F0DF06010EDBCF15F072
:1016900001E2DB06000ED8801454000E155439E226
:1016A000FE0EDB5009E1040E0001915D02E2912B78
:1016B00002D0010E916F08D000019151010802E2A1
:1016C000910702D0040E916F9151040A16E0070AA7
:1016D0000FE0010A08E0030A01E013D00F0E8114A5
:1016E0008009816E0ED00F0E81142009816E09D001
:1016F0000F0E81144009816E04D00F0E8114100961
:10170000816E1E0EE66EE66A57EC1CF0E552E5525D
:10171000B9D7020EE15C02E2E16AE552E16EE55200
:10172000E7CFD9FF1200D9CFE6FFE1CFD9FFE652CC
:10173000DF6ADF50146E156AD890155004E6C80EA3
:10174000145C000E15580BE281A009D00A0EE66E5B
:10175000E66A57EC1CF0E552E552DF2AEAD7E5527B
:08176000E552E7CFD9FF1200AA
:08176800010EE66ECEEC0FF05D
:10177000E5520F0EE66EE66A57EC1CF0E552E552B4
:10178000380EE66EE66ADDDBE552E5520001020E38
:10179000A16F040EA111E66EE66AD3DBE552E552B5
:1017A0000001040EA06F080EA011E66EE66AC9DB08
:1017B000E552E55200010C0E9F6FEEEF0BF0D9CF12
:1017C000E6FFE1CFD9FFFE0EDBCFE6FFE66AB9DB2D
:1017D000E552E552E552E7CFD9FF1200010EE66E61
:1017E000E66AAFDBE552E5521200020EE66EE66AEB
:1017F000A8DBE552E5521200C00EE66EE66AA1DBF8
:10180000E552E5521200D9CFE6FFE1CFD9FFFE0E37
:10181000DB508009E66EE66A94DBE552E552E5525C
:10182000E7CFD9FF1200D9CFE6FFE1CFD9FFFE0EF7
:10183000DBCFE6FF010EE66E84DBE552E552E552B2
:10184000E7CFD9FF1200D9CFE6FFE1CFD9FFFD0ED8
:10185000DBCFF6FFFE0EDBCFF7FF0800F55027E0E9
:10186000FD0EDBCFF6FFFE0EDBCFF7FF0800F550D5
:101870000A080AE0FD0EDBCFF6FFFE0EDBCFF7FF16
:101880000800F5500D0802E1B7DF0BD0FD0EDBCFED
:10189000F6FFFE0EDBCFF7FF0800F550E66EC3DF64
:1018A000E552FD0EDB2AFE0E01E3DB2AD0D7E5521E
:1018B000E7CFD9FF1200D9CFE6FFE1CFD9FF0A0E5B
:1018C000E126DE6ADD6AD950020FE96EDACFEAFF5F
:1018D000EE6AEE6AEE6AEE6AEE6AEE6AEE6AEE6A48
:1018E000100E146E270E156EFC0EDBCF06F0FD0EEB
:1018F000DBCF07F014C00BF015C00CF03FEC1DF06F
:10190000080E06C0DBFF090E07C0DBFFFC0EDBCFB5
:1019100014F0FD0EDBCF15F0100E0B6E270E0C6EC3
:1019200014C006F015C007F03FEC1DF002C014F023
:1019300003C015F0060E14C0DBFF070E15C0DBFF59
:10194000060EDBCF14F0070EDBCF15F0E80E0B6EA2
:10195000030E0C6E14C006F015C007F03FEC1DF02E
:1019600002C014F003C015F0040E14C0DBFF050E16
:1019700015C0DBFFE80E146E030E156E060EDBCFEE
:1019800006F0070EDBCF07F014C00BF015C00CF00B
:101990003FEC1DF0060E06C0DBFF070E07C0DBFFA5
:1019A000040EDBCF14F0050EDBCF15F0640E0B6ECA
:1019B0000C6A14C006F015C007F03FEC1DF002C021
:1019C00014F003C015F0020E14C0DBFF030E15C0A7
:1019D000DBFF640E146E156A040EDBCF06F0050EF5
:1019E000DBCF07F014C00BF015C00CF03FEC1DF07E
:1019F000040E06C0DBFF050E07C0DBFF020EDBCFC7
:101A000014F0030EDBCF15F00A0E0B6E0C6A14C037
:101A100006F015C007F03FEC1DF002C014F003C043
:101A200015F014C0DEFF15C0DDFF0A0E146E156A36
:101A3000020EDBCF06F0030EDBCF07F014C00BF075
:101A400015C00CF03FEC1DF0020E06C0DBFF030ECC
:101A500007C0DBFFFE0EDB50050805E2050EF36E46
:101A6000FE0EF3CFDBFFFE0EDB50000819E2D9CFEC
:101A700016F0DACF17F0FE0EDB04020D1650F32439
:101A8000E96E1750F420EA6EEECF14F0EFCF15F0A8
:101A9000300E1424E66EC7DEE552FE0EDB06E3D7F9
:101AA0000A0EE15C02E2E16AE552E16EE552E7CF3F
:101AB000D9FF1200D9CFE6FFE1CFD9FFE652FE0EE3
:101AC000DB50000819E2FE0EDB50DF6EDF5000082D
:101AD00013E2DF04146EFD0EDB5014C0E7FFE75283
:101AE00004E0E8427F0BE706FCE1010B300FE66EF5
:101AF0009ADEE552DF06EAD7E552E552E7CFD9FF95
:101B00001200D9CFE6FFE1CFD9FF0C0EE126DF6A44
:101B1000D950010FE96EDACFEAFFEE6AEE6AEE6A9B
:101B2000EE6AEE6A060EDB6A070EDB6A080EDB6AF7
:101B3000090EDB6AFA0EDBCF14F0FB0EDBCF15F0DB
:101B4000FC0EDBCF16F0FD0EDBCF17F0F00E0A6EA9
:101B50000B68790E0C6E440E0D6E14C005F015C0A6
:101B600006F016C007F017C008F02DEC12F0010ABD
:101B700001E136D1FA0EDBCF05F0FB0EDBCF06F02C
:101B8000FC0EDBCF07F0FD0EDBCF08F0F6EC11F01A
:101B9000060E04C0DBFF070E05C0DBFF080E06C003
:101BA000DBFF090E07C0DBFF060EDBCF04F0070EDC
:101BB000DBCF05F0080EDBCF06F0090EDBCF07F018
:101BC000640E096E0A6A0B6A0C6AE0EC1CF0050EE2
:101BD00004C0DBFF060EDBCF04F0070EDBCF05F001
:101BE000080EDBCF06F0090EDBCF07F0640E096E9E
:101BF0000A6A0B6A0C6AE0EC1CF0040E00C0DBFF02
:101C00000A0E146E14C00CF0040EDBCF07F083EC48
:101C10001DF0030E03C0DBFF0A0E146E14C00CF09F
:101C2000040EDBCF07F083EC1DF0040E07C0DBFFD2
:101C3000FA0EDBCF16F0FB0EDBCF17F0FC0EDBCF7E
:101C400018F0FD0EDBCF19F00A6A0B6A7A0E0C6EE3
:101C5000440E0D6E16C005F017C006F018C007F050
:101C600019C008F05AEC11F0C7EC11F006C014F0DE
:101C700007C015F0E80E0B6E030E0C6E14C006F0D4
:101C800015C007F03FEC1DF002C014F003C015F0C2
:101C9000060E14C0DBFF070E15C0DBFF080EDB6A63
:101CA000090EDB6A060EDBCF04F0070EDBCF05F072
:101CB000080EDBCF06F0090EDBCF07F0640E096ECD
:101CC0000A6A0B6A0C6AE0EC1CF0020E04C0DBFF2F
:101CD000060EDBCF04F0070EDBCF05F0080EDBCFDE
:101CE00006F0090EDBCF07F0640E096E0A6A0B6A74
:101CF0000C6AE0EC1CF0010E00C0DBFF0A0E146E53
:101D000014C00CF0010EDBCF07F083EC1DF0035084
:101D1000DF6E0A0E146E14C00CF0010EDBCF07F05C
:101D200083EC1DF0010E07C0DBFF050EDB500DE05C
:101D3000050EDB50300FE66E76DDE552040EDB500B
:101D4000300FE66E70DDE55209D0040EDB5006E080
:101D5000040EDB50300FE66E66DDE552030EDB50FD
:101D6000300FE66E60DDE5522E0EE66E5CDDE5526C
:101D7000FE0EDB5005E1010EF36EFE0EF3CFDBFF2E
:101D80000B0EDB6A030EF36E0A0EF3CFDBFFDB50A4
:101D900000081EE2D9CF14F0DACF15F00A0EDB04EA
:101DA0000F011424E96E000E1520EA6EEF50300F7B
:101DB000E66E39DDE5520B0EDB2AFE0EDB50F36ECC
:101DC0000B0EDB50F35C01E103D00A0EDB06DFD71C
:101DD000040EDB5004E1200EE66E25DDE55207D04F
:101DE0001A0EE66E2B0EE66E2EDDE552E5520C0E57
:101DF000E15C02E2E16AE552E16EE552E7CFD9FF2C
:101E00001200D9CFE6FFE1CFD9FFE8DCFD0EDBCF32
:101E1000E6FFFE0EDBCFE6FF16DDE552E552E552AA
:101E2000E7CFD9FF1200D9CFE6FFE1CFD9FFE652C5
:101E3000FD0EDBCFE6FFFE0EDBCFE6FFE2DFE55275
:101E4000E552DF6ADFCF14F0140EE76E1418E8AE27
:101E500002D0E73402D0E750145C0AE28B74320EF1
:101E6000E66EE66A57EC1CF0E552E552DF2AEAD747
:101E7000D00EE66E070EE66E57EC1CF0E552E5520A
:101E8000E552E552E7CFD9FF1200D9CFE6FFE1CF07
:101E9000D9FFE652DF6AA9DCFD0EDBCFF6FFFE0EAE
:101EA000DBCFF7FF0800F55010E0DF2AFD0EDBCF97
:101EB000F6FFDB2AFE0EDBCFF7FF01E3DB2A08008B
:101EC000F550E66EB0DCE552E7D7100EDF5C06E2B7
:101ED000200EE66EA8DCE552DF2AF7D7E552E55280
:101EE000E7CFD9FF1200D9CFE6FFE1CFD9FFE65205
:101EF000DF6A82DCFD0EDBCFF6FFFE0EDBCFF7FFE5
:101F00000800F55010E0DF2AFD0EDBCFF6FFDB2ADC
:101F1000FE0EDBCFF7FF01E3DB2A0800F550E66E8B
:101F200082DCE552E7D7100EDF5C06E2200EE66E9B
:101F30007ADCE552DF2AF7D7E552E552E7CFD9FF41
:101F40001200D9CFE6FFE1CFD9FFFE0EDBCFE6FFCF
:101F500033D8E552FD0EDBCFE6FF3CD8E552010E4B
:101F6000E66E1CD8E552010EE66EE66A57EC1CF0F0
:101F7000E552E552E66A12D8E552020EE66EE66ACE
:101F800057EC1CF0E552E552E66A16D8E552E66ACF
:101F900021D8E552E552E7CFD9FF1200D9CFE6FFAD
:101FA000E1CFD9FFFE0EDB50E8B08986E8A0899624
:101FB000E552E7CFD9FF1200D9CFE6FFE1CFD9FF35
:101FC000FE0EDB50E8B08984E8A08994E552E7CFA3
:101FD000D9FF1200D9CFE6FFE1CFD9FFFE0EDB50CB
:101FE0008C6EE552E7CFD9FF12000001A085080EE4
:101FF000A011E66EDFEC0BF0E55212000001A09597
:10200000080EA011E66EDFEC0BF0E55212000001A5
:10201000A083080EA011E66EDFEC0BF0E552120073
:102020000001A093080EA011E66EDFEC0BF0E55264
:1020300012000001A081080EA011E66EDFEC0BF08B
:10204000E55212000001A091080EA011E66EDFEC2F
:102050000BF0E5521200180EE66EDFEC0BF0E552C5
:1020600012001C0EE66EDFEC0BF0E55212000001D0
:10207000A183040EA111E66EDFEC0BF0E552120015
:102080000001A193040EA111E66EDFEC0BF0E55206
:1020900012000001A181040EA111E66EDFEC0BF02D
:1020A000E55212000001A191040EA111E66EDFECD1
:0620B0000BF0E5521200E6
:0A20B6000F9E08D00F9E07AE05D064
:1020C000066C071EE86A07220F8E07C001F006C0E3
:1020D00000F0136A126A8E0E026E036AA7EF12F006
:1020E0000D7E0F6AE3EC12F0FBEC12F00FB68BEFF3
:1020F00012F00FA20AD00FAA03D00FBE8BEF12F07E
:102100000FA497EF12F094EF12F00FAA05D00FACC6
:1021100097EF12F094EF12F00FA00AD00FA808D09A
:102120000FBE04D00FA402D0A0EF12F0A4EF12F063
:10213000126A036A0D50085C116E10E305C013F0BB
:1021400006C000F007C001F008C010F00AC005F09A
:102150000BC006F00CC007F00F3A09D00AC013F00C
:102160000BC000F00CC001F00DC010F0116C0F9E00
:102170000FBC0F8E10C002F00FB0D3EF12F01A0E8A
:102180001160D3EF12F0026A086A0FA408D0056C40
:10219000061E071E081EE86A0622072208220FAC48
:1021A00008D0136C001E011E021EE86A00220122E4
:1021B0000222046A115207E008340732063205325F
:1021C0000432112EF9D7055013260650002207506D
:1021D00001220850022204C012F00F9E02AE0BD062
:1021E000126C131E001E011E021EE86A132200223A
:1021F000012202220F8E02A006D0D88001320032C6
:1022000013321232102A10C002F0A7EF12F00F6A38
:10221000E3EC12F0FBEC12F00FB68BEF12F00FA212
:1022200005D00FBA8BEF12F092EF12F00FBA9EEFBB
:1022300012F00FA005D00FB88BEF12F09EEF12F046
:102240000FB892EF12F0036A7F0E0824026EE86A5C
:1022500003220D50025EE86A035A1A0E106E086AD5
:10226000126A136A006A016A0A50055E0B50065A28
:102270000C50075A000E085A09E70A5005260B5061
:1022800006220C500722000E082201D0128AD89094
:102290000536063607360836D8901236133600361D
:1022A0000136102EE1D7075006100510D8A4128A67
:1022B000A7EF12F00F6AE3EC12F0FBEC12F00FB68E
:1022C0008BEF12F00FA205D00FB88BEF12F092EF48
:1022D00012F00FAA05D00FB08BEF12F092EF12F0B0
:1022E0000FB002D00FA802D09EEF12F0036A0D507B
:1022F0000824026EE86A03227E0E025EE86A035A30
:10230000126A136A006A016A0C500702F4CF01F0E6
:10231000F3CF00F00B500702F3501326F4500022C5
:10232000000E01220C500602F3501326F450002236
:10233000000E01220A500702F3501226F450132215
:10234000000E002201220B500602F3501226F45018
:102350001322000E002201220C500502F350122617
:10236000F4501322000E002201220A500602F450FB
:102370001226000E1322002201220B500502F450F7
:102380001226000E132200220122A7EF12F00F6A7C
:10239000E3EC12F00FB6D1EF11F00FA20ED00FB494
:1023A00005D07F0E076EFF0E066E1FD0800E076EE3
:1023B000066A1BD0076A066A18D00FB0FBD78F0ECB
:1023C0000860EDD77E0E0864F5D78E0E085C05E038
:1023D000D89007320632082AF8D70FA406D0066C28
:1023E000071EE86A072207AEE5D712000F6AE3EC82
:1023F00012F00FB600EF12F00FA20FD00FB407D0FB
:102400007F0E076EFF0E066E056E046E25D0800EE1
:10241000076E01D0076A000EF6D70FB0FBD7046A2B
:102420009F0E0860EBD77E0E0864F4D79E0E085C02
:1024300007E0D8900732063205320432082AF6D770
:102440000FA40AD0046C051E061E071EE86A0522AA
:102450000622072207AEDED7120036EC12F00FB6C6
:10246000000C0FB0000C0FB4000C010C0F6AE3EC71
:1024700012F0FBEC12F00FB612000FAE08D00FA056
:1024800004D00FA802D00F8012000F9012000D5040
:10249000085C0BE10C50075C08E10B50065C05E1A1
:1024A0000A50055C02E10F801200D8A002D00F8E06
:1024B00010D008500DC008F00D6E07500CC007F08A
:1024C0000C6E06500BC006F00B6E05500AC005F0EE
:1024D0000A6E0D50085C10E0FF0F09E00F900FB47A
:1024E00003D00FAE0F8412000FAE0F9412000D2A0E
:1024F000D8900C320B320A320A50055E0B50065A45
:102500000C50075A07BEEAD7D8900536063607366C
:10251000082EF8D7C8D77F0E086EFF0E076E066E1E
:10252000056E12007F0E0FBEFF0E086E02D07F0EEA
:10253000086E800E076E066A056AF3D70FAE04D0E8
:10254000800E086E076AF7D7086A076AF4D7015049
:10255000001013101210F8E003BEF0D701BE0CD02B
:1025600002500310EBE0D8901236133600360136D5
:102570000206D8A00306F2D70350D4E10228D2E025
:1025800012AE11D07F0E121402E113A00CD0132A48
:10259000E86A0022012207E3D880013200321332B8
:1025A000022A0228BFE00250C9E013C005F000C0B3
:1025B00006F00134076E0230086E0732089E0FBE27
:1025C000088E91EF12F00736083602E30F840F7E73
:1025D00006E10F80086A076A066A056A1200082881
:1025E00003E0D88007321200D890073202E10F8250
:1025F00012000F8612000C360D3602E30F8C0F7E90
:1026000006E10F880D6A0C6A0B6A0A6A12000D282F
:1026100003E0D8800C321200D8900C32EAE10F8A25
:022620001200A6
:0E262200D9CFE6FFE1CFD9FF030EE126E66A2D
:10263000680EE66E6CEC18F0E552E552E76E020E9D
:10264000E7CFDBFFDBAE12D0DB507F0BE66EE66A36
:10265000680EE66EF2EC18F0E552E552E552C80E4F
:10266000E66EE66A57EC1CF0E552E552020EE66EA5
:10267000680EE66E6CEC18F0E552E552E76E020E5D
:10268000E7CFDBFFDBAC0CD0DB50BF0BE66E020EFE
:10269000E66E680EE66EF2EC18F0E552E552E55291
:1026A000030EE15C02E2E16AE552E16EE552E7CF3A
:1026B000D9FF1200D9CFE6FFE1CFD9FFE652E66A93
:1026C000680EE66E6CEC18F0E552E552DF6EDF380E
:1026D0000F0B070B0A0DF3CF14F00F0EDF141424A9
:1026E00000D0E552E552E7CFD9FF1200D9CFE6FF7F
:1026F000E1CFD9FFE6523C0EF36EFE0EDBCFF4FFC6
:10270000F350F45C31E20A0E166E16C00CF0FE0EA9
:10271000DBCF07F083EC1DF003C015F00A0E146E3A
:1027200014C00CF0FE0EDBCF07F083EC1DF0073871
:10273000F00B1524E76EFE0EE7CFDBFFE66A680EAE
:10274000E66E6CEC18F0E552E552DF6E800EDF1697
:10275000FE0EDB50DF10E66EE66A680EE66EF2EC07
:1027600018F0E552E552E552E552E552E7CFD9FFC0
:102770001200D9CFE6FFE1CFD9FFE652010EE66E97
:10278000680EE66E6CEC18F0E552E552DF6EDF384D
:102790000F0B0A0DF3CF14F00F0EDF14142400D02A
:1027A000E552E552E7CFD9FF1200D9CFE6FFE1CFDE
:1027B000D9FF3C0EF36EFE0EDBCFF4FFF350F45C5A
:1027C00027E20A0E166E16C00CF0FE0EDBCF07F0E5
:1027D00083EC1DF003C015F00A0E146E14C00CF04B
:1027E000FE0EDBCF07F083EC1DF00738F00B15244D
:1027F000E76EFE0EE7CFDBFFFE0EDBCFE6FF010E3E
:10280000E66E680EE66EF2EC18F0E552E552E5521F
:10281000E552E7CFD9FF1200D9CFE6FFE1CFD9FFCC
:10282000E652020EE66E680EE66E6CEC18F0E552AB
:10283000E552DF6EDF380F0B030B0A0DF3CF14F0F8
:102840000F0EDF14142400D0E552E552E7CFD9FF74
:102850001200D9CFE6FFE1CFD9FFE652180EF36E92
:10286000FE0EDBCFF4FFF350F45C33E20A0E166E7B
:1028700016C00CF0FE0EDBCF07F083EC1DF003C09A
:1028800015F00A0E146E14C00CF0FE0EDBCF07F02C
:1028900083EC1DF00738F00B1524E76EFE0EE7CF32
:1028A000DBFF020EE66E680EE66E6CEC18F0E55289
:1028B000E552DF6E400EDF16FE0EDB50DF10E66ED7
:1028C000020EE66E680EE66EF2EC18F0E552E55286
:1028D000E552E552E552E7CFD9FF1200030EE66E4E
:1028E000680EE66E6CEC18F0E552E55200D012006E
:1028F000D9CFE6FFE1CFD9FFFE0EDB50000810E292
:10290000FE0EDB5007080CE3FE0EDBCFE6FF030EE6
:10291000E66E680EE66EF2EC18F0E552E552E5520E
:10292000E552E7CFD9FF1200D9CFE6FFE1CFD9FFBB
:10293000E652040EE66E680EE66E6CEC18F0E55298
:10294000E552DF6EDF380F0B0A0DF3CF14F00F0ED8
:10295000DF14142400D0E552E552E7CFD9FF12006E
:10296000D9CFE6FFE1CFD9FFFE0EDB5000082BE206
:10297000FE0EDB501F0827E30A0E166E16C00CF081
:10298000FE0EDBCF07F083EC1DF003C015F00A0E3E
:10299000146E14C00CF0FE0EDBCF07F083EC1DF0BC
:1029A0000738F00B1524E76EFE0EE7CFDBFFFE0EB7
:1029B000DBCFE6FF040EE66E680EE66EF2EC18F072
:1029C000E552E552E552E552E7CFD9FF1200D9CFE3
:1029D000E6FFE1CFD9FFE652050EE66E680EE66E21
:1029E0006CEC18F0E552E552DF6EDF380F0B0A0D84
:1029F000F3CF14F00F0EDF14142400D0E552E5528B
:102A0000E7CFD9FF1200D9CFE6FFE1CFD9FFFE0E05
:102A1000DB5000082BE2FE0EDB500C0827E30A0E09
:102A2000166E16C00CF0FE0EDBCF07F083EC1DF027
:102A300003C015F00A0E146E14C00CF0FE0EDBCFAE
:102A400007F083EC1DF00738F00B1524E76EFE0E3F
:102A5000E7CFDBFFFE0EDBCFE6FF050EE66E680E6E
:102A6000E66EF2EC18F0E552E552E552E552E7CF9A
:102A7000D9FF1200D9CFE6FFE1CFD9FFE652060E0B
:102A8000E66E680EE66E6CEC18F0E552E552DF6E0D
:102A9000DF380F0B0A0DF3CF14F00F0EDF141424E0
:102AA00000D0E552E552E7CFD9FF1200D9CFE6FFBB
:102AB000E1CFD9FF640EF36EFE0EDBCFF4FFF350CF
:102AC000F45C27E20A0E166E16C00CF0FE0EDBCF89
:102AD00007F083EC1DF003C015F00A0E146E14C04D
:102AE0000CF0FE0EDBCF07F083EC1DF00738F00B87
:102AF0001524E76EFE0EE7CFDBFFFE0EDBCFE6FF11
:102B0000060EE66E680EE66EF2EC18F0E552E5523F
:0A2B1000E552E552E7CFD9FF1200AD
:062B1A004F7665720020F9
:102B20000042757A204F6E005357322D3E4578692A
:102B30007400436F6E6E65637420534B50532B507B
:102B40005332004A50393D534B2D52535400546573
:102B5000737420534B5053000D0A0A54657374204C
:102B6000446F6E650D0A00454E54455220746F2027
:102B7000657869740D0A0A00507265737320616E7E
:102B800079206B657920746F206563686F0D0A008A
:102B90000D0A0A50544B343041205465737420554B
:102BA0004152540D0A00454E544552206F6E0A6B37
:102BB0006579626F61726420746F20657869740052
:102BC000436F6E6E65637420554330304100546529
:102BD00073742055415254004932432044533133D9
:102BE00030370A5357322D3E457869742053454398
:102BF0003A004A503320262035203D2049324300F8
:102C00005465737420493243205254430053504951
:102C100020454550524F4D204572726F72005265EB
:102C20006164696E6720454550524F4D0057726987
:102C300074696E6720454550524F4D004A50332C01
:102C4000352C362C37203D20535049005465737481
:102C5000205350490A454550524F4D0054657374F6
:102C60002054696D65722031205254430A53573203
:102C70002D3E4578697400414E3A202020202020C6
:102C8000563A0A5357322D3E4578697420543A001B
:102C90005465737420414443005269676874004C62
:102CA0006566740043656E746572004A50393D5321
:102CB0004552564F005465737420536572766F0009
:102CC0004357004A5032332632343D4249504F4C2C
:102CD0004152004A5031303D50574D004A50323039
:102CE0002632313D535445505045520A4A503233F2
:102CF0002632343D554E49504F4C41520054657375
:102D000074205374657070657200434357005057C8
:102D10004D3A0043570A45433A004A503230263272
:102D2000313D4443204D4F544F520A4A5031303DBB
:102D300050574D0054657374204443204D6F746F99
:102D4000720052656C6179204F46460052656C6195
:102D500079204F4E004A50373D52656C61790054DE
:102D60006573742052656C617900377365673A202A
:102D700000377365673A20426C616E6B005465736F
:102D8000742037736567004572726F723A0A496E34
:102D9000636F7272656374204B6579005465737458
:102DA000204B65797061640A506C656173652070B1
:102DB000726573733A0041637469766174650A459C
:102DC0007874204449005465737420457874204415
:102DD0002E496E707574005465737420537769744E
:102DE000636865730A5072657373205357003134FA
:102DF0003A20534B50530031333A2055415254003E
:102E000031323A20493243205254430031313A2082
:102E100053504920454550524F4D0031303A2054CF
:102E2000696D657220312052544300393A20414483
:102E30004300383A20536572766F204D6F746F727D
:102E400000373A2053746570706572204D6F746F4F
:102E50007200363A204443204D6F746F7200353A49
:102E60002052656C617900343A203773656700330E
:102E70003A204B657970616400323A2045787420BD
:102E80004420496E70757400313A20546573742083
:102E9000416C6C00312D2D2020322B2B2020333D16
:052EA00054657374008D
:012EA500002C
:0A2EA600D9CFE6FFE1CFD9FFE652D5
:102EB000899A030EE66E30EC1DF0E552FE0EDBCF74
:102EC000E6FF30EC1DF0E552E66830EC1DF0E5520F
:102ED000DF6E898ADF5000D0E552E552E7CFD9FF97
:102EE0001200D9CFE6FFE1CFD9FF899A030EE66E33
:102EF00030EC1DF0E552FE0EDBCFE6FF30EC1DF0AE
:102F0000E552FB0EDBCFF3FFDB06F350000812E2C5
:102F1000E66830EC1DF0E552E66EFC0EDBCFE9FF13
:102F2000DB2AFD0EDBCFEAFF01E3DB2AE552E750A7
:102F3000EF6EE7D7898AE552E7CFD9FF1200D9CFE4
:102F4000E6FFE1CFD9FFE652899A060EE66E30EC35
:102F50001DF0E552898A010EE66EE66A38EC1CF037
:102F6000E552E552899A020EE66E30EC1DF0E5520C
:102F7000FE0EDBCFE6FF30EC1DF0E552FD0EDBCFA1
:102F8000E6FF30EC1DF0E552898A010EE66EE66A36
:102F900038EC1CF0E552E552899A050EE66E30ECED
:102FA0001DF0E552E66830EC1DF0E552DF6E898ACF
:102FB000000EDF92DF94DF96DF98DF9ADF9CDF9EC2
:102FC000DF50EAE1E552E552E7CFD9FF1200D9CF51
:102FD000E6FFE1CFD9FFE652FB0EDB50100802E21C
:102FE000010E61D0FB0EDBCFE6FFFE0EDB50E5529B
:102FF000E724FF0F146EFE0EDB500F09D880145427
:1030000002E2010E50D0899A060EE66E30EC1DF0F9
:10301000E552898A010EE66EE66A38EC1CF0E5524C
:10302000E552899A020EE66E30EC1DF0E552FE0E76
:10303000DBCFE6FF30EC1DF0E552FB0EDBCFF3FFFC
:10304000DB06F35000080FE2FC0EDBCFE9FFDB2AC2
:10305000FD0EDBCFEAFF01E3DB2AEF50E66E30EC3A
:103060001DF0E552EAD7898A010EE66EE66A38EC71
:103070001CF0E552E552899A050EE66E30EC1DF023
:10308000E552E66830EC1DF0E552DF6E898A000EED
:10309000DF92DF94DF96DF98DF9ADF9CDF9EDF50C0
:1030A000EAE1000E00D0E552E552E7CFD9FF120069
:1030B000948694880C0EC86EC79EC686C694C69227
:1030C000C690C69EC69CC68AC584C5B4FED71200EB
:1030D0000001A25100D01200D9CFE6FFE1CFD9FF05
:1030E000050EE126100EF36E010EF3CFDBFF270E67
:1030F000F36E020EF3CFDBFF030EDB6A040EDB6A16
:103100000001A26BC580C5B0FED7FE0EDB50E824DF
:10311000FE0BC96EA2D8C5AC08D0C584C5B4FED715
:103120000001010EA26F000E51D0FD0EDB50C96EE2
:1031300094D8C5AC08D0C584C5B4FED70001010E33
:10314000A26F000E43D0C582C5B2FED7FE0EDB5083
:10315000E8240109C96E81D8C5AC08D0C584C5B4BE
:10316000FED70001010EA26F000E30D0C586C7B099
:1031700020D0D950010FE96EDACFEAFFEF06EECF8B
:1031800014F0000EEF5AEECF15F0EF5AEECF16F016
:10319000EF5AEFCF17F0145015101610171008E162
:1031A000C584C5B4FED70001010EA26F000E0ED07B
:1031B000DED7C950DF6EC58AC588C5B8FED7C584BD
:1031C000C5B4FED70001A26BDF5000D0146E050E0F
:1031D000E15C02E2E16AE552E16E1450E552E7CFAC
:1031E000D9FF1200D9CFE6FFE1CFD9FF0001A26BD2
:1031F000C580C5B0FED7FE0EDB50E824FE0BC96EBD
:103200002CD8C5AC07D0C584C5B4FED70001010ECB
:10321000A26F1FD0FD0EDB50C96E1FD8C5AC07D002
:10322000C584C5B4FED70001010EA26F12D0FC0EFA
:10323000DB50C96E12D8C5AC07D0C584C5B4FED763
:103240000001010EA26F05D0C584C5B4FED70001F0
:10325000A26BE552E7CFD9FF1200C750040B01E083
:10326000010E146E1F0EC514141001E0F6D71200E3
:103270008C988C8A8C8C8C8E010EE66EE66A38EC0B
:103280001CF0E552E55281B002D0010E5FD081B250
:1032900002D0020E5BD081B402D0030E57D081B6AB
:1032A00002D00A0E53D08C888C9A8C8C8C8E010E96
:1032B000E66EE66A38EC1CF0E552E55281B002D0C9
:1032C000040E44D081B202D0050E40D081B402D0A9
:1032D000060E3CD081B602D00B0E38D08C888C8A7A
:1032E0008C9C8C8E010EE66EE66A38EC1CF0E55282
:1032F000E55281B002D0070E29D081B202D0080E6B
:1033000025D081B402D0090E21D081B602D00C0E96
:103310001DD08C888C8A8C8C8C9E010EE66EE66AA1
:1033200038EC1CF0E552E55281B002D00E0E0ED002
:1033300081B202D0000E0AD081B402D00F0E06D0A6
:1033400081B602D00D0E02D0FF0E00D01200D9CFF0
:10335000E6FFE1CFD9FF0A0EF36EFE0EDBCFF4FFDE
:10336000F350F45C04E2FE0EDB50300F26D0FE0E6C
:10337000DB500A0802E1410E20D0FE0EDB500B08A4
:1033800002E1420E1AD0FE0EDB500C0802E1430EA1
:1033900014D0FE0EDB500D0802E1440E0ED0FE0EDE
:1033A000DB500E0802E12A0E08D0FE0EDB500F089B
:1033B00002E1230E02D0000E00D0E552E7CFD9FF84
:1033C0001200D9CFE6FFE1CFD9FFE652DF6850DF28
:1033D000DF6EFF0EDF5CFBE04BDFFF0801E0FCD798
:0E33E000DF5000D0E552E552E7CFD9FF1200D2
:0233EE008D92BE
:1033F0008D90F00E8C140A098C6E010EE66EE66A52
:1034000038EC1CF0E552E5528D828D80F00E8C1464
:103410008C6E1200D9CFE6FFE1CFD9FF8D92FE0E60
:10342000DBCFE6FFF00E8C14E552E7108C6E010E38
:10343000E66EE66A38EC1CF0E552E5528D82F00E3D
:103440008C148C6EE552E7CFD9FF1200D9CFE6FF7E
:10345000E1CFD9FF8D90FE0EDBCFE6FFF00E8C148E
:10346000E552E7108C6E010EE66EE66A38EC1CF051
:10347000E552E5528D80F00E8C148C6EE552E7CF4C
:10348000D9FF1200D9CFE6FFE1CFD9FFFE0EDB5006
:10349000630809E20A0EE66EBDDFE5520A0EE66E2B
:1034A000D5DFE5521AD00A0E146E14C00CF0FE0ED1
:1034B000DBCF07F083EC1DF00350E66EABDFE55287
:1034C0000A0E146E14C00CF0FE0EDBCF07F083EC76
:1034D0001DF00750E66EBADFE552E552E7CFD9FF9F
:0234E0001200D8
:0E34E200CD9E800ECF6ECE6ACD86CD82CD9A65
:1034F000CD98CD949E909D80F28CF28ECD8012005E
:1035000000019C5100D01200D9CFE6FFE1CFD9FFD6
:10351000FE0EDBCF9CF0CE6A800ECF6EE552E7CF79
:10352000D9FF120000019D5100D01200D9CFE6FF53
:10353000E1CFD9FFFE0EDBCF9DF0E552E7CFD9FFFB
:10354000120000019E5100D01200D9CFE6FFE1CF5A
:10355000D9FFFE0EDBCF9EF0E552E7CFD9FF120078
:103560009E90800ECF6E00019C2B9C513B0802E286
:103570009D2B9C6B9D513B0802E29E2B9D6B9E51A7
:08358000170801E29E6B120026
:08358800DACFE4FFE2CFDAFF25
:10359000E9CFE4FFEACFE4FFF6CFE4FFF7CFE4FFA3
:1035A000F5CFE4FFF3CFE4FFF4CFE4FFFACFE4FF7D
:1035B00000EE00F0140EE80403E3EECFE4FFFBD7C7
:1035C00000EE14F00A0EE80403E3EECFE4FFFBD7AD
:1035D000E6529EA002D0B0EC1AF0F2A402D0DEECCB
:1035E0001CF0E55200EE1DF00A0EE80403E3E5CFFF
:1035F000EDFFFBD700EE13F0140EE80403E3E5CF74
:10360000EDFFFBD7E5CFFAFFE5CFF4FFE5CFF3FF02
:10361000E5CFF5FFE5CFF7FFE5CFF6FFE5CFEAFF12
:0A362000E5CFE9FFE5CFDAFF110066
:06362A001E0EF66E000EFC
:10363000F76E000EF86E00010900F550976F090053
:10364000F550986F03E1976701D03DD00900F55020
:10365000926F0900F550936F0900F550946F0900BF
:103660000900F550E96E0900F550EA6E09000900FD
:103670000900F550956F0900F550966F0900090093
:10368000F6CF99F0F7CF9AF0F8CF9BF092C0F6FF03
:1036900093C0F7FF94C0F8FF0001955302E19653E1
:1036A00007E00900F550EE6E9507F8E29607F9D7A6
:1036B00099C0F6FF9AC0F7FF9BC0F8FF000197077B
:0836C000000E985BBFD7120059
:0836C800D9CFE6FFE1CFD9FFE5
:1036D000E652DF6AAC94B886B06A810EAF6EAB8EEC
:1036E000AB88AC8AAE50DF6EAE50DF6EE552E5526D
:1036F000E7CFD9FF1200D9CFE6FFE1CFD9FF9EA8CF
:10370000FED7FE0EDB50AD6EE552E7CFD9FF1200BB
:10371000ABA202D0AB98AB889EAAFED7AE5000D029
:103720001200D9CFE6FFE1CFD9FFFD0EDBCFF6FFC8
:10373000FE0EDBCFF7FF0800F55011E0FD0EDBCFEA
:10374000F6FFFE0EDBCFF7FF0800F550E66ED3DF85
:10375000E552FD0EDB2AFE0E01E3DB2AE6D7E55239
:06376000E7CFD9FF1200C3
:0A3766002020437974726F6E205426
:103770006563680A20637974726F6E2E636F6D2EB5
:103780006D7900202020202050544B3430410A20F5
:103790002020504943313846343532300050544BA4
:1037A000343041205465737420436F64650A2020CF
:1037B0002056312E30204A756E3132004F746865C4
:1037C0007220535773206973204C6F7700507265D5
:1037D000737320535731207768656E0A7265616490
:1037E00079004A50313020746F2042555A5A455260
:0137F00000D8
:0E37F200BD9EBD9CCB68CA92CA80BD86BD84B8
:10380000BD98BD9ABE6ACA841200BD96BD94BD9291
:10381000BD90BD98BD9ABE6ACB6ACA941200D9CF3A
:10382000E6FFE1CFD9FFFD0EDBCF15F0FE0EDBCFBB
:1038300016F0040ED89015361636E804FBE1300E6B
:103840001514146ECF0EBD141410BD6EFD0EDBCF1B
:1038500014F0FE0EDBCF15F0D89015321432D8904C
:10386000153214321450BE6EE552E7CFD9FF120064
:10387000D9CFE6FFE1CFD9FFD950FD0FE96EFF0E9A
:10388000DA20EA6E000ED880EE54000EED540BE202
:10389000050EE66E91EC1DF0E552FD0EDB06FE0E08
:1038A00001E2DB06E9D7E552E7CFD9FF1200D9CF15
:1038B000E6FFE1CFD9FFD950FD0FE96EFF0EDA2008
:1038C000EA6E000ED880EE54000EED540BE2050EA9
:1038D000E66E55EC1DF0E552FD0EDB06FE0E01E234
:0C38E000DB06E9D7E552E7CFD9FF120064
:0438EC00D9CFE6FF4B
:1038F000E1CFD9FFFE0EDBCFE6FF7BEC1BF0E552FC
:1039000088EC1BF000D0E552E7CFD9FF1200D9CFE9
:10391000E6FFE1CFD9FFFE0EDBCFE6FF7BEC1BF02D
:10392000E552FD0EDBCFE6FF7BEC1BF0E552E552E6
:10393000E7CFD9FF12008D84050EE66EE66A57ECDC
:103940001CF0E552E5528D941E0EE66EE66A57ECC9
:083950001CF0E552E5521200E3
:08395800D59CD58AD588D586DF
:10396000D586D76AD66AF294F28AF28E1200D750C0
:10397000166E176A000E1616FF0E1716D6500001A7
:103980001610146E17C015F014C0F3FF15C0F4FF25
:1039900000D01200D9CFE6FFE1CFD9FFFD0EDBCF7B
:1039A00014F0FE0EDBCF15F0000E1414D76EFD0ED2
:1039B000DB50D66EE552E7CFD9FF1200F294120029
:1039C000036A026A016A006A200EE76ED890043624
:1039D00005360636073600360136023603360950FC
:1039E000005C0A5001580B5002580C50035809E370
:1039F0000950005E0A50015A0B50025A0C50035AEB
:083A0000042AE72EE4D71200AE
:083A0800C19AC198C186C18476
:103A1000C182C190C08EC084C082C090C08AC0984C
:103A2000C086C2901200C2801200C2901200C29AD8
:103A3000C298C296C294C282C2B2FED7C3CFF3FF6D
:083A4000C4CFF4FF00D0120016
:083A4800949A898AC79EC78C7D
:103A5000C698C696C694C692C690C69EC68A1200DE
:103A6000D9CFE6FFE1CFD9FFFE0EDB50C96EC7A06C
:0E3A7000FED7C95000D0E552E7CFD9FF1200B3
:023A7E00036AD9
:103A8000026A100EE76ED890063607360236033605
:103A90000B50025C0C50035805E30B50025E0C50B7
:0A3AA000035A062AE72EF0D71200A1
:063AAA00FF0EE3501E6E4A
:103AB000480E01D04C0EE76EE72EFED7E76AE72EE0
:0A3AC000FED71E2EF7D700001200FB
:063ACA00000EF36E00EE99
:103AD00000F0060E01D81200EA6002D0EE6AFCD7B0
:0A3AE000F350E9601200EE6AFCD713
:063AEA0015EE00F025EED0
:103AF00000F0F86A0F9C15EC1BF003EC00F028ECCA
:063B000000F0FBD71200EB
:0A3B0600036A080EE76ED890073638
:103B100003360C50035C02E3036E072AE72EF7D747
:023B2000120091
:0E3B2200FF0EE350E84E1200000000D000D06D
:083B300000D0E82EFAD71200C4
:083B38003132334134353642CD
:0A3B4000373839432A3023440001CE
:020000040030CA
:01000100C23C
:0100020018E5
:010003001EDE
:010005008377
:010006008178
:00000001FF
